:040000000C947401E7
:100004000C9400000C9400000C9400000C9400006C
:100014000C9400000C9400000C9400000C9400005C
:100024000C9400000C9400000C9400000C9400004C
:100034000C9400000C943A020C9400000C94000000
:100044000C9400000C9400000C9400000C9400002C
:100054000C9400000C9400000C9400000C9400001C
:100064000C9400000C9400000C9400000C9400000C
:100074000C9400000C9400000C9400000C940000FC
:100084000C9400000C9400000507206000000000A0
:100094000000005F00000007000700147F147F14B5
:1000A400242A7F2A122313086462364955225000F9
:1000B40005030000001C2241000041221C00082A04
:1000C4001C2A0808083E08080050300000080808E8
:1000D4000808003030000020100804023E51494551
:1000E4003E00427F400042615149462141454B3127
:1000F4001814127F1027454545393C4A49493001B7
:10010400710905033649494936064949291E00360D
:10011400360000005636000000081422411414145E
:10012400141441221408000201510906324979418C
:100134003E7E1111117E7F494949363E414141229B
:100144007F4141221C7F494949417F090901013E00
:10015400414151327F0808087F00417F410020401F
:10016400413F017F081422417F404040407F020408
:10017400027F7F0408107F3E4141413E7F09090907
:10018400063E4151215E7F091929464649494931B4
:1001940001017F01013F4040403F1F2040201F7F5D
:1001A4002018207F63140814630304780403615146
:1001B40049454300007F4141020408102041417F2A
:1001C40000000402010204404040404000010204D7
:1001D4000020545454787F484444383844444420DC
:1001E400384444487F3854545418087E090102089E
:1001F4001454543C7F0804047800447D400020409B
:10020400443D00007F10284400417F40007C0418D6
:1002140004787C0804047838444444387C14141466
:1002240008081414187C7C08040408485454542006
:10023400043F4440203C4040207C1C2040201C3C87
:100244004030403C44281028440C5050503C4464F6
:10025400544C44000836410000007F000000413641
:10026400080002010204027F4141417F00010307AB
:100274000F1F3F7FFF0000000A0000000001000084
:10028400000001000200030004000500060007004E
:10029400080044616E672064692063687579656E3F
:1002A4000044656E2074616E670080C001002D4EAD
:1002B400414E00494E4600000A0004007A02110033
:1002C4003E0584020F000005960209000F05A502F1
:1002D40009001805A50202006307AE0201006907C0
:1002E400B0020000F894EE27ECBBF1E0F5BFE5BFE7
:1002F400E0936C008DE0A2E0BB27ED938A95E9F7CB
:1003040080E090E1A0E0B1E0ED930197E9F7ECEB38
:10031400F2E085919591009761F0A591B5910590D2
:100324001590BF01F00105900D920197E1F7FB01D3
:10033400F0CF8BBFEFEFEDBFE0E1EEBFC0E0D5E063
:100344000C948C03EAEEE0936100BC9AA79ABD9AE0
:10035400E3E8E6B908950E947E0A30E03330A0F560
:10036400303019F4EDEFE0936200313019F4E7EF27
:10037400E0936200323019F4EFEDE093620000E0A4
:10038400033000F5003041F4E0B1E4701E2F143066
:1003940019F00E94640938C1013041F4E0B1E07100
:1003A4001E2F103119F00E9464092EC1023041F44D
:1003B400E0B1E1701E2F113019F00E94640924C1CC
:1003C4000F5FDECF3F5FCACFEFEFFFEF0E94850ADA
:1003D4001BC1BA93AA932897ECE8F0E0E883F98369
:1003E400EE81EC7FEE83EA85E770EE0FEE0F0E2EC2
:1003F400EE81E37EE029EE83E885EF770E2EEF8130
:10040400E078E029EF83DE0123D20C949E07A0E17B
:100414000E9485080E9478080895BA93AA93A88137
:10042400EFEFEA1BE1BF22960895C59A0895A8E765
:10043400B0E0F3DF0895A0E0B0E0EFDFC5980895E1
:10044400E0E0E0BFE4E7E3BFE0E0E2BFA0E0B0E06B
:10045400E4DFE0E0EFBDE1E0EEBDECEFEDBDE0EEAA
:10046400ECBDE4E0E7BFE0E0E0937D00789408951C
:100474000A921A92FA926A937A938A939A93AA9313
:10048400BA93EA93FA93EFB7EA931A930A93ECEFC9
:10049400EDBDE0EEECBDF20131962F01E8ECF0E0A9
:1004A4004E165F0614F0442455244614570414F4DD
:1004B400AF9A01C0AF98E7ECF0E0E415F50569F4F4
:1004C4004ADF8F01EFEFFFEFE017F10731F0A0E60D
:1004D400B5E0A00FB11FE1E0EC9309911991E99106
:1004E400EFBFF991E991B991A99199918991799184
:1004F4006991F990199009901895BA93AA93E0918B
:100504006100E460E0936100EA81FB81309731F49B
:100514000E947509E9EFE2BBEFE7EBBBAA81BB815F
:10052400119721F4E881EA570E947A09AA81BB81D4
:10053400129741F4E881EC57E0936200E1EFE2BBEB
:10054400EFEFEBBBAA81BB81139751F4E881EC5721
:10055400E0936200E5EFE2BBE0E0E3B9EFE7EBBB79
:10056400AA81BB81149741F4E881EE57E0936200BD
:10057400E7EFE2BBEFE7EBBBAA81BB81159741F440
:10058400E881E056E0936200E5EFE2BBEFE7EBBB06
:10059400AA81BB81169741F4E881E056E09362009A
:1005A400E1EFE2BBEFE7EBBBAA81BB81179721F434
:1005B400E881EC570E947A09AA81BB81189731F42B
:1005C4000E947509E1EFE2BBEFE7EBBBAA81BB81B7
:1005D400199731F40E947509E5EFE2BBEFE7EBBB35
:1005E400AA81BB811A9739F4E881EA5DE09362003D
:1005F400EFEFE2BBEBBBA1E0B0E00E94350AE0E024
:10060400EA93A0E00E946908249608958824992416
:100614000E94810964F00E948609A13041F00E9481
:10062400810909F40895F40131964F01F1CFBB20FB
:10063400B1F046010E94810994F00E94810921F4DD
:100644000E948609A03009F002C0BB2404C00E94A5
:100654008609A13021F0F40131964F01EBCFBB2084
:10066400C9F44601002480149004A4F00024081462
:10067400090421F40E948609A03009F003C0E1E0D6
:10068400BE2E08950E948609A13021F0F40131970D
:100694004F01E8CF0E948C09BB2011F0C8DE01C0D5
:1006A400C4DEA0E6B5E0AC0DBD1DEC91E03009F56B
:1006B40076D1E5E0EA93EAE0EA93A0E0B5E00E94AF
:1006C4001608BB2019F0F601319602C0F6013197E5
:1006D4006F010E949709AFE0B5E00E94A209DA9287
:1006E400CA92A0E8B0E009DFA8EEB3E00E94350AA0
:1006F400D8CF55D10E949709A8E1B5E00E94A2097C
:10070400A0E6B5E0AC0DBD1DE0E0EC9394DE0E94E4
:100714008C090895EFEFE0936100E1BBD79AE4E020
:10072400F0E0FA93EA93A2E4B0E053DE70DE0ADE6E
:1007340087DEDA92CA92A0E5B5E00E94B508EEE140
:10074400EA93E4E1EA93A0E5B5E00E9416085EDFCF
:10075400FECFFFCF0895AA931A93E0916500EF7E30
:10076400E093650018E0F6DFE981E07821F0E0919C
:100774006500E26003C0E0916500ED7FE0936500F1
:10078400E981EE0FE983E6DFE0916500E460E09340
:100794006500E0DFE0916500EB7FE09365001150B8
:1007A40011F7E0916500E061E093650018810C9415
:1007B400FC08AA93E0916500EE7FE0936500A881B0
:1007C400CADF0C94B308AA93E0916500E160E0935A
:1007D4006500A881C0DF0C94B308AA931A93E98139
:1007E400E695E695E6951E2FE4E5E19FF001DF012D
:1007F400EA81F0E0EA0FFB1FE0936905F0936A05D4
:10080400E12F18810C944309AA93E981E068AE2F83
:10081400D0DFE981EA93A981E0DFE064AE2FC9DF8C
:100824000C94FC08AA93E981EA93A981EDDFE09195
:100834006905F0916A05E559FA4FE0810C94FC08CA
:10084400AA930E94AC09A881A083BDDF0C94B308CD
:10085400BA93AA930E947E0AE0916400E0610E9428
:10086400B709E061E0936500E0916400E4600E94F0
:10087400B709EB7FE0936500E0916400E260E093E8
:100884006400E0916400E160E0936400E09164003E
:10089400E8600E94B709E77FE0936500AAE0B0E052
:1008A4000E94350AE0916500E860E0936500EC8100
:1008B400FD81309721F1E681E3701E2FEC81FD81EB
:1008C400E681E695E695E7700E2FEC81FD81E781E0
:1008D400EF773E2FAC81BD810E94570AE093250536
:1008E400F093260512960E94570AE0933A05F09376
:1008F4003B05AC81BD8114960E94570A0DC010E0DF
:1009040003E032E3E0E0F0E0E0932505F093260510
:10091400E0933A05F0933B05E0933C05F0933D05E5
:10092400A1E247DFE12FE460AE2F43DFE02FE06177
:10093400AE2F3FDFE32FE068AE2F3BDFA0E239DFCD
:10094400A1E022D0E1E0E0932105E0E0E09322057C
:10095400E1E0E0932705E0932805E0932905EFEF14
:10096400E0932A05E1E0E0933105E2E3F5E0FA9350
:10097400EA93EFEFEA93A8E0B0E00E94E3080FD017
:10098400E1E00E94850A60C0AA93E881E03011F09A
:10099400ECE001C0E8E0AE2F0CDF0C94B3080E9439
:1009A4007E0A30E0E0912205E03009F03FEFE0E01C
:1009B400EA93A0E029DF08EF11E0F80101501040AC
:1009C400309719F0A32F3CDFF8CFE0E0EA93A0E0E2
:1009D40040D30E94850A0C946209AA931A93ED816C
:1009E400EA93AD811FDF1E2FE981E73011F0E83073
:1009F40039F4EB81EA93AA810E94FE08EB8308C0D4
:100A0400E33021F4EB81E095EB8302C0E03021F484
:100A1400EA81E0951E2302C0E23029F4EA81AB8129
:100A2400EA231E2B0EC0E13029F4EA81AB81EA23CC
:100A34001E2707C0E43029F4EA81E095AB81EA2B54
:100A44001E23A12FFDDE188126960895AA932397CD
:100A54000E947C0AA889A43548F4AF85A03330F4F9
:100A6400AE85A03019F0AD85A03009F4CCC1EE8577
:100A7400E887A889BB27EE85F0E0AE0FBF1FA53538
:100A8400E0E0BE0720F0A889E4E5EA1BEE872D85A7
:100A9400AF85BB27ED85F0E0AE0FBF1FD19720F0E7
:100AA400AF85E0E3EA1BED87A985A63009F05BC0BA
:100AB400EC85E13009F4A7C1E33039F4E0913C0559
:100AC400F0913D05309709F49EC10885ED85E695C2
:100AD400E695E6953E2FE22FE77019F4AD852A17C7
:100AE400E9F0A02FBB27E32FF0E00E944F0AAA856C
:100AF400BB850E94BC09269526952695532F5F93A6
:100B04005F5FE22FAF91EA1748F0102FE12F1150E9
:100B1400E03019F00E94C109F9CFF1CFAE850A1770
:100B240011F1EE85AA85BB85F0E00E94BC09ED8534
:100B3400E77009F03F5F20E02F932F5FE32FAF9121
:100B4400AE1788F41E851F931F5FE02FAF91AE1779
:100B540018F40E94C109F7CFEE85AE81BF81F0E0A1
:100B64000E94BC09E9CFEF85E7703E2FED85E030A8
:100B740009F449C1EA85FB85EE83FF8310E0088907
:100B8400303009F063C0AD85A83008F45AC0E98557
:100B9400E03011F0E33009F402C0E73009F402C098
:100BA400E83009F402C0E93009F402C0EA3021F463
:100BB4000A93A88929DE04C0E63011F40E94CE0904
:100BC4001F931F5FEE85AF91AE17A0F5A985A630E0
:100BD40051F40E94D209FA93EA930E94AC09A081CD
:100BE4000E94450926C0E985E93011F450E00EC0A1
:100BF400EA3011F45FEF0AC00E94D2090E94DB09B7
:100C04005E2FE985E73011F0E83021F40E94E10914
:100C14005E2F06C0E33011F4509502C0E03019F4A1
:100C2400A52FD1DD06C00E94E509EFEFEA93AD855B
:100C3400D4DEC6CFEF85E85FEF87ED85E850ED871A
:100C4400D9C05D8520E0E0E0ED877EC0E32FAD856F
:100C5400AE0FA93020F42D85E0E0ED8703C0E8E075
:100C6400E31B2E2F3A93A22F0E94F3084E2FE985FF
:100C7400E63011F50E94CE091F931F5FEE85AF91F8
:100C8400AE17C8F40E94AC09E081E423AE2FE32F31
:100C94000E94470A0E94EB09E32FA42F0E94470AEF
:100CA400E095E1215E2B0E94D209FA93EA93A52FE5
:100CB4000E944509E1CF2CC0E93011F450E003C093
:100CC400EA30A9F45FEF0E94E109AE2FE32F0E94FE
:100CD4003F0A5E2F1F931F5FEE85AF91AE1730F46E
:100CE4000E94E5094A93A0E078DEF4CF11C01F9377
:100CF4001F5FEE85AF91AE1758F40E94F609AE2F30
:100D0400E32F0E943F0AEA934A93AD8566DEEFCF54
:100D1400ED85E03009F477C0AD85A83028F4ED8581
:100D2400E21B5E2FE0E003C0532FED85E850ED8712
:100D340010E0EF85E85FEF87E8E0E31B2E2F0889DA
:100D4400EA85FB85EE83FF83E52FF0E0E059FD4F54
:100D54004491E985E63011F50E94CE091F931F5F87
:100D6400EE85AF91AE17C8F40E94AC09E081E4238C
:100D7400AE2FE22F0E943F0A0E94EB09E22FA42F1C
:100D84000E943F0AE095E1215E2B0E94D209FA936A
:100D9400EA93A52F0E944509E1CF2CC0E93011F454
:100DA40050E003C0EA30A9F45FEF0E94E109AE2FDE
:100DB400E22F0E94470A5E2F1F931F5FEE85AF91BB
:100DC400AE1730F40E94E5094A93A0E006DEF4CFA2
:100DD40011C01F931F5FEE85AF91AE1758F40E94A8
:100DE400F609AE2FE22F0E94470AEA934A93AD8593
:100DF400F4DDEFCFE885AA85BB85F0E0EA0FFB1FA1
:100E0400EA87FB87B3CE0E94830A619608950E9405
:100E1400030A24F0E0E0F0E00C94FC08A881B98116
:100E2400A435E0E0BE0724F0E3E5F0E00C94FC0810
:100E3400E881F9810C94FC080E94030A24F0E0E0A4
:100E4400F0E00C94FC08A881B981D09724F0EFE27B
:100E5400F0E00C94FC08E881F9810C94FC08BA9346
:100E6400AA9323970E940A0A8F01002E012A19F4DB
:100E7400E0E0F0E05FC00E94110A0F820E94110AB4
:100E84000E820E94110A0886EB85A885EA1718F4D9
:100E9400E0E0F0E04FC0F8010F5F1F4F5491A885C8
:100EA400BB27EE27A50FBE1FEB85F0E0EA17FB0773
:100EB40018F0E0E0F0E03EC0EE81E695E695E695B8
:100EC4004E2FEE81E77009F04F5FEF81E030A1F023
:100ED400A985BA85EC93A885EB85EA1BF0E0DF01D0
:100EE400EF81F0E00E944F0ADF01E42FF0E00E945E
:100EF4004F0AE00FF11F1EC09801E52FF0E00E0F1E
:100F04001F1FA885AF5FA887A150EB85AE1760F4BB
:100F1400F9012F5F3F4FA491B0E0E42FF0E00E946D
:100F24004F0A0E0F1F1FEDCFF901E491A985BA8571
:100F3400EC93F8010E94830A2C960895E0E0E09374
:100F44002305A0912405BB270E94160AF0E0AE0FEA
:100F5400BF1FE0912805F0E0AE0FBF1F6DDFE093E7
:100F640024050895AA9321970E940A0A309709F448
:100F740055C0AF81AA3009F44FC0EF81EA93DE0176
:100F840017966DDFAF01309709F44AC0E091270549
:100F9400AE81EA0F3E2FA0912305BB27F0E0EA0FB4
:100FA400FB1F8F010535E0E01E0718F0032F112702
:100FB400C5DFE0912305EA93E0912405EA93E885EF
:100FC400EA930E94160AEA93E1E0EA935A934A9359
:100FD400A7E03CDDE0912305AE81EA0FEA93E091BE
:100FE4002405EA93E0912705EA930E94160A0E94D9
:100FF4001D0AE0912305EA93A09124050E94160A94
:10100400EA0FEA933A93E09128050E941D0AE4E569
:10101400F0E0E017F10711F491DF02C0009323051B
:101024000E94830A28960895BA93AA931A93EC818E
:10103400EA93AC810ED0A981BA81ED91A983BA83D8
:101044001E2FE03019F0A12F8DDFF5CF18810C94FD
:10105400F108AA93A981BB27DADEE0932305A881CE
:10106400BB27EADEE09324050C94FC08AA93E881EC
:10107400E07111F0DB9A01C0DB98E881E07211F0B5
:10108400DC9A01C0DC98E881E07411F0DD9A01C0BB
:10109400DD98E881E07811F0DE9A01C0DE988DE0F9
:1010A4008A95F1F7DA9A8DE08A95F1F7DA988DE06E
:1010B4008A95F1F756C0AA93A881D8DFE881E29512
:1010C400E883A881D3DF85E88A95F1F74AC0AA931B
:1010D400E881F0E0ED59F84FE081A981AE0FEBDF34
:1010E400A980E881E09367070C94FC08A2E00E94C1
:1010F400270AACE0E0DFA1E00E94270AE0E0E093E9
:101104006707AE2E0895AA93D39AD49AD59AD69AFD
:10111400D29AD09AD19ADA98D898D998E881E0935B
:101124006807E058E0936507E881E054E0936607B8
:10113400A4E1B0E00E94350A0E942D0A0E942D0A03
:101144000E942D0AA0E292DF88EC90E00197F1F76B
:10115400A8E2B1DFA4E0AFDFA5E8ADDFA6E0ABDF36
:10116400C5DF21960895BA93AA93A991B991E991FB
:10117400F99130962AF4E095F09531966DE26D93ED
:10118400E89480E197E20DD088EE93E00AD084E6FB
:10119400992707D08AE005D06E2F10D066276C936C
:1011A40008956627E817F90720F06395E81BF90B03
:1011B400C9F7662311F416F008956894605D6D9381
:1011C4000895BA93AA93B981A881109631F0FC814D
:1011D400EB816A8161931197E9F7EB81FC81259694
:1011E4000895AA93E881F0E0E059FD4FA491E981C4
:1011F4000E943F0A22960895AA931A93E981E73040
:1012040011F0EA3019F41091210509C0E93019F4FC
:101214001091220504C0E830A1F410913105E09149
:101224002205E03049F0103019F0EFEF188129C0A1
:10123400EA81E095188125C0103019F4E0E01881A6
:1012440020C0EA8118811DC0BA93AA93EA81E130D3
:1012540021F4E881F981E49114C0E23029F4A881F1
:10126400B9810E945B0A0DC0E33041F4A881B981C1
:10127400E0913A05F0913B05099503C0A881B98135
:10128400EC9123960895AA93EB81E03029F4E88148
:10129400A981BA81EC9314C0E23031F4E881A981C8
:1012A400BA810E94670A0CC0E33051F4E981FA81E3
:1012B400FA93EA93AA81E0913C05F0913D050995E2
:1012C40024960895A6E00A9FF001E25CFA4FDF013C
:1012D400E32FF0E0EE0FFF1FAE0FBF1F0E94570A6F
:1012E4000E94850A0895E881E058E0936200089519
:1012F400E0936200EFEFE2BBEFE7EBBB0895E8E0B9
:10130400F0E0E815F9050895A0E6B5E0A80DB91DCB
:10131400AC910895EFE0F0E03F01A0EDB7E00E944A
:10132400350AEAE0F0E03F010895DA92CA92A0E5B6
:10133400B5E00E94B508E5E0EA93E9E1EA9308958F
:101344000E941608E7E3EA93E9E1EA93A0E5B5E031
:101354000C941608A9E6B5E0ED91FD913196FE9343
:10136400EE933197E559FA4F0895E0936400E091C4
:1013740065000895EA0FFB1FEE83FF830895EC8553
:10138400EA93EF81F8853196EF83F8873197FA93E2
:10139400EA93A0E00C9445090A93A8890C94EF03FE
:1013A400EC85EA93EF81F8853196EF83F8873197DE
:1013B400089566277727DF01CB010C9426095A93F9
:1013C400AA850C94FE080A930395E889EA935A9334
:1013D40008955E2FEC85EA93AF81B8858827992715
:1013E4000E9426091E2E08950A930395E889EA931C
:1013F400EE85EA93E985FA853196E987FA8731978C
:10140400D8CFBA93AA93A881B9810E94780A089583
:101414000E947C0AE0912505F09126050895F801C3
:101424000F5F1F4F04900895E0912505F091260564
:101434003196E4910895EA93E0E0EA93E0E0F0E085
:10144400FA93EA93A9E00C9428050E945D08A3E0AE
:10145400B0E00C94350AA0E30E94380888EC90E0D0
:101464000197F1F70895109639F080ED97E0019710
:10147400F1F7A8951197C9F70895EE230E2EEA2FD8
:1014840019F0EE0F0A94E9F70895EE230E2EEA2FD1
:1014940019F0E6950A94E9F70895FA9FF02DEB9F69
:1014A400F00DEA9FE02DF10D0895ED91FC91119757
:1014B4000895E199FECFFF93FFB7F894AEBBBFBB8D
:1014C400E09AEDB3FFBFFF910895E19B02C0A89598
:1014D400FCCF9FB7F894AEBBBFBBE09A8DB3E817BF
:1014E40019F0EDBBE29AE19A9FBF089500240A1611
:1014F4000B0608955A934A933A932A931A930A939C
:1015040008955D814C813B812A8119810881089568
:00000001FF
