:060000000C9489010C9430
:1000060000000C9400000C9400000C9400000C946A
:1000160000000C9400000C9400000C9400000C945A
:1000260000000C9400000C9400000C9400000C944A
:1000360000000C9400000C9400000C94B9010C9480
:1000460000000C9400000C9400000C9400000C942A
:1000560000000C9400000C9400000C9400000C941A
:1000660000000C9400000C9400000C9400000C940A
:1000760000000C9400000C9400000C9400000C94FA
:1000860000000C940000050720600000000000003E
:10009600005F00000007000700147F147F14242A65
:1000A6007F2A12231308646236495522500005033D
:1000B6000000001C2241000041221C00082A1C2AC4
:1000C6000808083E0808005030000008080808081C
:1000D600003030000020100804023E5149453E0021
:1000E600427F400042615149462141454B31181437
:1000F600127F1027454545393C4A49493001710967
:1001060005033649494936064949291E003636004F
:10011600000056360000000814224114141414146A
:1001260041221408000201510906324979413E7EF6
:100136001111117E7F494949363E414141227F4195
:1001460041221C7F494949417F090901013E41413C
:1001560051327F0808087F00417F41002040413F1F
:10016600017F081422417F404040407F0204027F05
:100176007F0408107F3E4141413E7F090909063E42
:100186004151215E7F0919294646494949310101F4
:100196007F01013F4040403F1F2040201F7F201825
:1001A600207F6314081463030478040361514945EE
:1001B6004300007F4141020408102041417F0000B6
:1001C60004020102044040404040000102040020B5
:1001D600545454787F48444438384444442038447E
:1001E60044487F3854545418087E090102081454B0
:1001F600543C7F0804047800447D40002040443D80
:1002060000007F10284400417F40007C04180478D9
:100216007C0804047838444444387C1414140808D0
:100226001414187C7C080404084854545420043FD1
:100236004440203C4040207C1C2040201C3C403058
:10024600403C44281028440C5050503C4464544CC4
:1002560044000836410000007F00000041360800D7
:1002660002010204027F4141417F000103070F1F83
:100276003F7FFF001027E80364000A00010000101A
:100286000001100001000000000000000000010055
:1002960002000300040005000600070008004E687F
:1002A60061702070617373004E68617020706173B5
:1002B600733F0070617373207361693F00706173EF
:1002C600732064756E67000001002D4E414E004993
:1002D6004E460000060004008C0211005C059202E6
:1002E6000A000005A4020B000A05AE020B00150564
:1002F600AE020B002005AE020A002B05B9020A0069
:100306003505C30201007207CE020000F894EE27FD
:10031600ECBBF1E0F5BFE5BFE0936C008DE0A2E039
:10032600BB27ED938A95E9F780E090E1A0E0B1E084
:10033600ED930197E9F7EAEDF2E085919591009743
:1003460061F0A591B59105901590BF01F00105905A
:100356000D920197E1F7FB01F0CF8BBFEFEFEDBFF9
:10036600E0E1EEBFC0E0D5E00C9402030A92EA9306
:10037600FA93EFB7EA93E6E0E2BFE3E0F0E04E1669
:100386005F06BCF0E0EDF7E0E615F70511F466242C
:100396007724062C072811F49498959AE8EEF3E052
:1003A600E615F70511F49598949AF30131963F01F5
:1003B60002C094989598E991EFBFF991E991099057
:1003C60018950E94670930E03330A0F5303019F4F3
:1003D600EDEFE0936200313019F4E7EFE09362004D
:1003E600323019F4EFEDE093620000E0033000F5DF
:1003F600003041F4E0B1E4701E2F143019F00E9471
:10040600690831C0013041F4E0B1E0711E2F1031AE
:1004160019F00E94690827C0023041F4E0B1E1708A
:100426001E2F113019F00E9469081DC00F5FDECF24
:100436003F5FCACFEFEFFFEF0E946E0914C00E9424
:100446007A08AC81BD810E949807A881B981AF3F27
:10045600EFEFBE0741F0E881F9810E948308AEE61E
:10046600B5E00E949807249608950E947A08AE8106
:10047600BF810E949807AA81BB81AF3FEFEFBE07FD
:1004860041F0E881EA93EEE1EA93AC81BD810E94F6
:1004960098070C94A8040E947A08A885B9850E943A
:1004A6009807AC81BD81AF3FEFEFBE0781F0EC81CD
:1004B600FD810E948308AA81BB810E949807EA8178
:1004C600EA93EEE1EA93AEE6B5E00E9498070C9453
:1004D60096072497ECE6EA83E0E0EB830E94650941
:1004E6000E948D0888249924E885F985E417F50784
:1004F60009F471C02397E0E2E883E983EA83E0E048
:10050600F5E0FA93EA93AFEFBFEF99DFE3E0F0E0AF
:10051600E017F107E9F155DF9F01A8ECB0E00E9472
:100526001909EFEFFFEFE217F30789F10F5F1F4F8E
:10053600AAE0A49FF001A59FF00DE20FF31FAF0103
:10054600EAE0F5E00E949408E5E1F5E0FA93EA9323
:100556003A932A93F80131970E9433097E96E00F69
:10056600F11FFA93EA93DE01169695DFF8013197AB
:10057600DE01AE0FBF1FEAE2EC93A4EFB1E00E94EA
:100586001909E0E2F5E00E9494082FEF3FEFBECF95
:10059600EB85FC85E417F50791F082D1EFE0EA934D
:1005A600E4E1EA93ABE2B5E00E9498070E948D0869
:1005B600A0E2B3E00E941909F40131964F01F2015D
:1005C60031962F01E3E0F0E0E415F50511F4A39A66
:1005D600AB9A239689CF44245524A4EFB1E00E9418
:1005E60019095ED1AB98EFE0EA93E4E1EA93A5E35B
:1005F600B5E00E9498070E946C092A9608952897EC
:1006060000E010E040E050E0ECE8F0E0E883F98339
:10061600EE81EC7FEE83E37EE061EE83EF81E078AE
:10062600E264EF83DE0195D0EAEEE09361008D9AF5
:100636008C9AE0E0E0BFE3E0E3BFE6E0E2BFE0E0A3
:10064600E1BFE1E0E7BFE0E0E0937D00789441DFC1
:10065600ACEDB5E00E941909FFCFFFCF0895AA932C
:100666001A93E0916500EF7EE093650018E0F6DFEF
:10067600E981E07821F0E0916500E26003C0E09155
:100686006500ED7FE0936500E981EE0FE983E6DF23
:10069600E0916500E460E0936500E0DFE0916500CD
:1006A600EB7FE0936500115011F7E0916500E06182
:1006B600E093650018810C940108AA93E091650007
:1006C600EE7FE0936500A881CADFE8C0AA93E091B7
:1006D6006500E160E0936500A881C1DFDFC0AA93F1
:1006E6001A93E981E695E695E6951E2FE4E5E19FE6
:1006F600F001DF01EA81F0E0EA0FFB1FE0937805E5
:10070600F0937905E12F18810C944808AA93E981A2
:10071600E068AE2FD2DFE981EA93A981E0DFE064E9
:10072600AE2FCBDF0C940108AA93E981EA93A98145
:10073600EDDFE0917805F0917905E658FA4FE08112
:100746000C940108AA930E949E08A881A083BEDF8C
:10075600A5C0BA93AA930E946709E0916400E0617C
:100766000E94A908E061E0936500E0916400E460FE
:100776000E94A908EB7FE0936500E0916400E260C7
:10078600E0936400E0916400E160E0936400E0912E
:100796006400E8600E94A908E77FE0936500AAE08C
:1007A600B0E00E941909E0916500E860E0936500F9
:1007B600EC81FD81309721F1E681E3701E2FEC81FB
:1007C600FD81E681E695E695E7700E2FEC81FD81C9
:1007D600E781EF773E2FAC81BD810E944009E0930F
:1007E6004305F093440512960E944009E09358058C
:1007F600F0935905AC81BD8114960E9440090DC045
:1008060010E003E032E3E0E0F0E0E0934305F0932C
:100816004405E0935805F0935905E0935A05F09383
:100826005B05A1E24ADFE12FE460AE2F46DFE02F51
:10083600E061AE2F42DFE32FE068AE2F3EDFA0E29D
:100846003CDFA1E022D0E1E0E0933F05E0E0E09369
:100856004005E1E0E0934505E0934605E093470552
:10086600EFEFE0934805E1E0E0934F05E0E5F5E0C2
:10087600FA93EA93EFEFEA93A8E0B0E00E94E80764
:100886000FD0E1E00E946E0960C0AA93E881E030D3
:1008960011F0ECE001C0E8E0AE2F0FDF21960895DD
:1008A6000E94670930E0E0914005E03009F03FEF33
:1008B600E0E0EA93A0E02ADF08EF11E0F80101503A
:1008C6001040309719F0A32F3DDFF8CFE0E0EA9310
:1008D600A0E040D30E946E090C946708AA931A936D
:1008E600ED81EA93AD8120DF1E2FE981E73011F01B
:1008F600E83039F4EB81EA93AA810E940308EB837E
:1009060008C0E33021F4EB81E095EB8302C0E030D0
:1009160021F4EA81E0951E2302C0E23029F4EA813F
:10092600AB81EA231E2B0EC0E13029F4EA81AB81AC
:10093600EA231E2707C0E43029F4EA81E095AB815B
:10094600EA2B1E23A12FFEDE188126960895AA9370
:1009560023970E946509A889A43548F4AF85A0337A
:1009660030F4AE85A03019F0AD85A03009F4CCC1C5
:10097600EE85E887A889BB27EE85F0E0AE0FBF1F9E
:10098600A535E0E0BE0720F0A889E4E5EA1BEE877E
:100996002D85AF85BB27ED85F0E0AE0FBF1FD19744
:1009A60020F0AF85E0E3EA1BED87A985A63009F0C4
:1009B6005BC0EC85E13009F4A7C1E33039F4E0917E
:1009C6005A05F0915B05309709F49EC10885ED85BF
:1009D600E695E695E6953E2FE22FE77019F4AD858C
:1009E6002A17E9F0A02FBB27E32FF0E00E94380971
:1009F600AA85BB850E94AE08269526952695532F77
:100A06005F935F5FE22FAF91EA1748F0102FE12F57
:100A16001150E03019F00E94B308F9CFF1CFAE853E
:100A26000A1711F1EE85AA85BB85F0E00E94AE0893
:100A3600ED85E77009F03F5F20E02F932F5FE32FEE
:100A4600AF91AE1788F41E851F931F5FE02FAF91FD
:100A5600AE1718F40E94B308F7CFEE85AE81BF81BA
:100A6600F0E00E94AE08E9CFEF85E7703E2FED85F6
:100A7600E03009F449C1EA85FB85EE83FF8310E087
:100A86000889303009F063C0AD85A83008F45AC033
:100A9600E985E03011F0E33009F402C0E73009F4EB
:100AA60002C0E83009F402C0E93009F402C0EA30B5
:100AB60021F40A93A8892ADE04C0E63011F40E94C4
:100AC600C0081F931F5FEE85AF91AE17A0F5A985ED
:100AD600A63051F40E94C408FA93EA930E949E0835
:100AE600A0810E944A0826C0E985E93011F450E049
:100AF6000EC0EA3011F45FEF0AC00E94C4080E94DB
:100B0600CD085E2FE985E73011F0E83021F40E9428
:100B1600D3085E2F06C0E33011F4509502C0E030D2
:100B260019F4A52FD3DD06C00E94D708EFEFEA938C
:100B3600AD85D4DEC6CFEF85E85FEF87ED85E8505B
:100B4600ED87D9C05D8520E0E0E0ED877EC0E32F2C
:100B5600AD85AE0FA93020F42D85E0E0ED8703C00A
:100B6600E8E0E31B2E2F3A93A22F0E94F8074E2FA0
:100B7600E985E63011F50E94C0081F931F5FEE85D8
:100B8600AF91AE17C8F40E949E08E081E423AE2F11
:100B9600E32F0E942B090E94DD08E32FA42F0E9459
:100BA6002B09E095E1215E2B0E94C408FA93EA9393
:100BB600A52F0E944A08E1CF2CC0E93011F450E07D
:100BC60003C0EA30A9F45FEF0E94D308AE2FE32FEB
:100BD6000E9423095E2F1F931F5FEE85AF91AE170C
:100BE60030F40E94D7084A93A0E078DEF4CF11C013
:100BF6001F931F5FEE85AF91AE1758F40E94E80869
:100C0600AE2FE32F0E942309EA934A93AD8566DE51
:100C1600EFCFED85E03009F477C0AD85A83028F434
:100C2600ED85E21B5E2FE0E003C0532FED85E85013
:100C3600ED8710E0EF85E85FEF87E8E0E31B2E2FF6
:100C46000889EA85FB85EE83FF83E52FF0E0E0590E
:100C5600FD4F4491E985E63011F50E94C0081F93C7
:100C66001F5FEE85AF91AE17C8F40E949E08E08123
:100C7600E423AE2FE22F0E9423090E94DD08E22F13
:100C8600A42F0E942309E095E1215E2B0E94C4084F
:100C9600FA93EA93A52F0E944A08E1CF2CC0E930C7
:100CA60011F450E003C0EA30A9F45FEF0E94D308C4
:100CB600AE2FE22F0E942B095E2F1F931F5FEE853A
:100CC600AF91AE1730F40E94D7084A93A0E006DE33
:100CD600F4CF11C01F931F5FEE85AF91AE1758F486
:100CE6000E94E808AE2FE22F0E942B09EA934A934E
:100CF600AD85F4DDEFCFE885AA85BB85F0E0EA0F88
:100D0600FB1FEA87FB87B3CE0E946C0961960895A4
:100D16000E94F50824F0E0E0F0E00C940108A881B8
:100D2600B981A435E0E0BE0724F0E3E5F0E00C94D9
:100D36000108E881F9810C9401080E94F50824F065
:100D4600E0E0F0E00C940108A881B981D09724F086
:100D5600EFE2F0E00C940108E881F9810C940108B7
:100D6600BA93AA9323970E94FC088F01002E012AAA
:100D760019F4E0E0F0E05FC00E9403090F820E94D0
:100D860003090E820E9403090886EB85A885EA17E7
:100D960018F4E0E0F0E04FC0F8010F5F1F4F5491E8
:100DA600A885BB27EE27A50FBE1FEB85F0E0EA1747
:100DB600FB0718F0E0E0F0E03EC0EE81E695E69530
:100DC600E6954E2FEE81E77009F04F5FEF81E03038
:100DD600A1F0A985BA85EC93A885EB85EA1BF0E01E
:100DE600DF01EF81F0E00E943809DF01E42FF0E037
:100DF6000E943809E00FF11F1EC09801E52FF0E0B0
:100E06000E0F1F1FA885AF5FA887A150EB85AE17F1
:100E160060F4F9012F5F3F4FA491B0E0E42FF0E0BA
:100E26000E9438090E0F1F1FEDCFF901E491A98525
:100E3600BA85EC93F8010E946C092C960895E0E0BF
:100E4600E0934105A0914205BB270E940809F0E006
:100E5600AE0FBF1FE0914605F0E0AE0FBF1F6DDF7E
:100E6600E09342050895AA9321970E94FC083097C3
:100E760009F455C0AF81AA3009F44FC0EF81EA9357
:100E8600DE0117966DDFAF01309709F44AC0E09195
:100E96004505AE81EA0F3E2FA0914105BB27F0E044
:100EA600EA0FFB1F8F010535E0E01E0718F0032F40
:100EB6001127C5DFE0914105EA93E0914205EA93E7
:100EC600E885EA930E940809EA93E1E0EA935A93D7
:100ED6004A93A7E03CDDE0914105AE81EA0FEA9333
:100EE600E0914205EA93E0914505EA930E940809DC
:100EF6000E940F09E0914105EA93A09142050E94E4
:100F06000809EA0FEA933A93E09146050E940F0911
:100F1600E4E5F0E0E017F10711F491DF02C0009379
:100F260041050E946C0928960895BA93AA931A93CC
:100F3600EC81EA93AC810ED0A981BA81ED91A983A7
:100F4600BA831E2FE03019F0A12F8DDFF5CF18815F
:100F56000C94F607AA93A981BB27DADEE093410534
:100F6600A881BB27EADEE09342050C940108BA93F8
:100F7600AA93A991B991E991F99130962AF4E0954D
:100F8600F09531966DE26D93E89480E197E20DD08D
:100F960088EE93E00AD084E6992707D08AE005D048
:100FA6006E2F10D066276C9308956627E817F90709
:100FB60020F06395E81BF90BC9F7662311F416F0C8
:100FC60008956894605D6D930895BA93AA93B98164
:100FD600A881109631F0FC81EB816A8161931197AB
:100FE600E9F7EB81FC8125960895AA93E881F0E064
:100FF600E059FD4FA491E9810E94230922960895A4
:10100600AA931A93E981E73011F0EA3019F41091A6
:101016003F0509C0E93019F41091400504C0E830D5
:10102600A1F410914F05E0914005E03049F01030F1
:1010360019F0EFEF188129C0EA81E095188125C0E3
:10104600103019F4E0E0188120C0EA8118811DC033
:10105600BA93AA93EA81E13021F4E881F981E49117
:1010660014C0E23029F4A881B9810E9444090DC058
:10107600E33041F4A881B981E0915805F091590512
:10108600099503C0A881B981EC9123960895AA9386
:10109600EB81E03029F4E881A981BA81EC9314C090
:1010A600E23031F4E881A981BA810E9450090CC06E
:1010B600E33051F4E981FA81FA93EA93AA81E09147
:1010C6005A05F0915B05099524960895A6E00A9FB6
:1010D600F001E45AFA4FDF01E32FF0E0EE0FFF1FB5
:1010E600AE0FBF1F0E9440090E946E090895BA9371
:1010F600AA930E945304EFE0EA93E4E1EA93089589
:10110600FA93EA93AEE6B5E00E94BA07EEE1EA93F7
:10111600EA93089500E010E02FEF3FEF40E050E043
:101126000895FA93EA93FE013296FA93EA93AEE1B2
:10113600B0E00C943802A8E7B5E0ED91FD91319648
:10114600FE93EE933197E658FA4F0895E0936400C4
:10115600E09165000895EA0FFB1FEE83FF83089573
:10116600EC85EA93EF81F8853196EF83F88731971E
:10117600FA93EA93A0E00C944A080A93A8890C947F
:101186007203EC85EA93EF81F8853196EF83F88751
:101196003197089566277727DF01CB010C942B083A
:1011A6005A93AA850C9403080A930395E889EA934F
:1011B6005A9308955E2FEC85EA93AF81B885882708
:1011C60099270E942B081E2E08950A930395E889F5
:1011D600EA93EE85EA93E985FA853196E987FA87F7
:1011E6003197D8CFBA93AA93A881B9810E94610991
:1011F60008950E946509E0914305F091440508951C
:10120600F8010F5F1F4F04900895E0914305F09198
:1012160044053196E4910895EA93E0E0EA93E0E02C
:10122600F0E0FA93EA93A9E00C94AA04109639F038
:1012360080ED97E00197F1F7A8951197C9F7089502
:10124600EE230E2EEA2F19F0EE0F0A94E9F7089511
:10125600EE230E2EEA2F19F0E6950A94E9F7089583
:10126600EE0FFF1FEE0FFF1F0895FA9FF02DEB9F65
:10127600F00DEA9FE02DF10D0895ED91FC91119787
:101286000895E199FECFFF93FFB7F894AEBBBFBBBD
:10129600E09AEDB3FFBFFF910895E19B02C0A895C8
:1012A600FCCF9FB7F894AEBBBFBBE09A8DB3E817EF
:1012B60019F0EDBBE29AE19A9FBF089500240A1641
:1012C6000B0608955A934A933A932A931A930A93CC
:1012D60008955D814C813B812A8119810881089599
:00000001FF
