:060000000C9454000C9466
:1000060000000C9400000C9400000C9400000C946A
:1000160000000C9400000C9400000C9400000C945A
:1000260000000C9400000C9400000C9400000C944A
:1000360000000C9400000C9400000C9484000C94B6
:1000460000000C9400000C9400000C9400000C942A
:1000560000000C9400000C9400000C9400000C941A
:1000660000000C9400000C9400000C9400000C940A
:1000760000000C9400000C9400000C9400000C94FA
:1000860000000C9400001027E80364000A00010039
:10009600001000011000010080C0020006059E004D
:1000A6000000F894EE27ECBBF1E0F5BFE5BFE09366
:1000B6006C008DE0A2E0BB27ED938A95E9F780E01E
:1000C60090E1A0E0B1E0ED930197E9F7E0EAF0E016
:1000D60085919591009761F0A591B5910590159040
:1000E600BF01F00105900D920197E1F7FB01F0CFFA
:1000F6008BBFEFEFEDBFE0E1EEBFC0E0D5E00C94C3
:100106002201EA93FA93EFB7EA93E6E0E2BFF3013E
:1001160031963F01E8EEF3E0E615F70519F4E1E064
:10012600F0E02F01E0EDF7E0E615F70521F466248F
:10013600772444245524E991EFBFF991E991189564
:10014600BA93AA93EA81FB81309731F40E947E022A
:10015600E9EFE2BBEFE7EBBBAA81BB81119721F484
:10016600E881EA570E948302AA81BB81129741F473
:10017600E881EC57E0936200E1EFE2BBEFEFEBBB07
:10018600AA81BB81139751F4E881EC57E093620092
:10019600E5EFE2BBE0E0E3B9EFE7EBBBAA81BB81A9
:1001A600149741F4E881EE57E0936200E7EFE2BB73
:1001B600EFE7EBBBAA81BB81159741F4E881E056D6
:1001C600E0936200E5EFE2BBEFE7EBBBAA81BB8100
:1001D600169741F4E881E056E0936200E1EFE2BB56
:1001E600EFE7EBBBAA81BB81179721F4E881EC57B7
:1001F6000E948302AA81BB81189731F40E947E0275
:10020600E1EFE2BBEFE7EBBBAA81BB81199731F4C3
:100216000E947E02E5EFE2BBEFE7EBBBAA81BB8162
:100226001A9739F4E881EA5DE0936200EFEFE2BBEA
:10023600EBBBA1E0B0E00E94020324960895EFEF25
:10024600E0936100E1BBD79AE0E0E0BFE3E0E3BF03
:10025600E6E0E2BFE0E0E1BFE1E0E7BFE0E0E09337
:100266007D000E94B102A0E1A7D0E3E0EA93E1E0BD
:10027600EA93A0E00E940F02ECE0EA93EDE0EA9335
:10028600AAE00E944B027894E9E0F0E0FA93EA9340
:10029600E8E0F0E0FA93EA93ABE0B0E00E942602D1
:1002A600A92DB0E0EAE0F0E00E9430036F01692D6D
:1002B6007727F6010E948A02A0930005B0930105F4
:1002C600A82DB0E0EAE0F0E00E943003E0930205DA
:1002D600F0930305682D7727E0910205F091030559
:1002E6000E948A02A0930405B0930505DA92CA9289
:1002F600A1E0B0E025DFE0910005F09101050E9444
:100306009202E1E0F0E0E415F50521F4EAE0F0E020
:100316000E949202E0910205F0910305FA93EA9396
:10032600A0E1B0E00DDFE0910405F0910505FA9338
:10033600EA93A0E4B0E004DFA7CFFFCFAA93E88159
:10034600E07111F0DB9A01C0DB98E881E07211F0F0
:10035600DC9A01C0DC98E881E07411F0DD9A01C0F6
:10036600DD98E881E07811F0DE9A01C0DE988DE034
:100376008A95F1F7DA9A8DE08A95F1F7DA988DE0A9
:100386008A95F1F747C0AA93A881D8DFE881E2955C
:10039600E883A881D3DF85E88A95F1F73BC0A2E020
:1003A6000E949802ACE0EFDFA1E00E949802E0E034
:1003B600E0930A05AE2E0895AA93D39AD49AD59AB5
:1003C600D69AD29AD09AD19ADA98D898D998E881BA
:1003D600E0930B05E058E0930805E881E054E093CC
:1003E6000905A4E1B0E00E9402030E949E020E9459
:1003F6009E020E949E02A0E2A1DF88EC90E0019797
:10040600F1F7A8E2C0DFA4E0BEDFA5E8BCDFA6E006
:10041600BADFC5DF21960895AA93EA81E370EA83DD
:10042600E981E03019F0EA81E061EA83E881E030B1
:1004360019F0EA81E068EA830E94A602A7E00E941A
:10044600EA02AA813BC0BA93AA930E94A602A0E040
:100456000E94EA020E94C5020E94B602A1ED0E9415
:10046600EA020E94AB02A881B981EC930E94AB021A
:10047600AA81BB81EC93A0E00E94CF02AE2F0E941E
:100486006702AC81BD81EC930E94C5022696089551
:10049600AA930E94A602A0E00E94EA02A8810E94F6
:1004A6007402AE2F0E94EA02A9810E947402AE2F46
:1004B6000E94EA02AA810E947402AE2F0E94EA02FA
:1004C6000E94C50223960895AA93E881E295EF70EB
:1004D600AE2FAA0FAA0FEA0FEE0FA991AF70EA0F7F
:1004E6000895AA93A991EE27AA5012F0E05FFCCFD7
:1004F600A65FEA0F0895E881E058E0936200089548
:10050600E0936200EFEFE2BBEFE7EBBB0895AAE0F2
:10051600B0E00E941803DB01AE1BBF0B0895FA93EF
:10052600EA93A8E0B0E00C94A3000E94C601A3E001
:10053600B0E00C940203A0E30E94A10188EC90E0D5
:100546000197F1F708950E94B602A0ED0C94EA0215
:10055600A1E00E94CF02AE2F0C9467021E981F984E
:10056600169A179815C017981698EE2700000F9B35
:1005760008950E9B089504D0179A02D0169AE1E0CA
:100586006DE007C0179A169A03D01698F9DF1798E8
:100596006BE16A95F1F7089578E01698F1DF0E9B06
:1005A600FECFEEDF88940F990894169AF1DFEE1FBE
:1005B6007A9599F77A2F772311F4179801C0179A2D
:1005C600DFDF1698E5DF169ADBDF1798D9CF78E0DC
:1005D600AA0F10F4179801C0179ADADF1698D0DF21
:1005E6000E9BFECFCDDF169A7A9591F71798C8DF46
:1005F6001698CEDFE1E00F99EE27169AC1CF109636
:1006060039F080ED97E00197F1F7A8951197C9F7B2
:100616000895F195E195F0400895FA9FF02DEB9F2E
:10062600F00DEA9FE02DF10D08951CD0F6DF0EF4D3
:10063600F0DF08950024112490E1AA0FBB1F001CCF
:10064600111C0E1A1F0A18F40E0E1F1E01C0A160FF
:100656009A9599F7FD01D001089504D0EBDF0EF4C9
:10066600D8DF0895E894F7FF02C0D3DF6894B7FF98
:1006760006C0A095B095119600F8039400FA089567
:00000001FF
