:040000000C946F01EC
:100004000C9400000C9400000C9400000C9400006C
:100014000C9400000C9400000C9400000C9400005C
:100024000C9400000C9400000C9400000C9400004C
:100034000C9400000C949F010C9400000C9400009C
:100044000C9400000C9400000C9400000C9400002C
:100054000C9400000C9400000C9400000C9400001C
:100064000C9400000C9400000C9400000C9400000C
:100074000C9400000C9400000C9400000C940000FC
:100084000C9400000C9400000507206000000000A0
:100094000000005F00000007000700147F147F14B5
:1000A400242A7F2A122313086462364955225000F9
:1000B40005030000001C2241000041221C00082A04
:1000C4001C2A0808083E08080050300000080808E8
:1000D4000808003030000020100804023E51494551
:1000E4003E00427F400042615149462141454B3127
:1000F4001814127F1027454545393C4A49493001B7
:10010400710905033649494936064949291E00360D
:10011400360000005636000000081422411414145E
:10012400141441221408000201510906324979418C
:100134003E7E1111117E7F494949363E414141229B
:100144007F4141221C7F494949417F090901013E00
:10015400414151327F0808087F00417F410020401F
:10016400413F017F081422417F404040407F020408
:10017400027F7F0408107F3E4141413E7F09090907
:10018400063E4151215E7F091929464649494931B4
:1001940001017F01013F4040403F1F2040201F7F5D
:1001A4002018207F63140814630304780403615146
:1001B40049454300007F4141020408102041417F2A
:1001C40000000402010204404040404000010204D7
:1001D4000020545454787F484444383844444420DC
:1001E400384444487F3854545418087E090102089E
:1001F4001454543C7F0804047800447D400020409B
:10020400443D00007F10284400417F40007C0418D6
:1002140004787C0804047838444444387C14141466
:1002240008081414187C7C08040408485454542006
:10023400043F4440203C4040207C1C2040201C3C87
:100244004030403C44281028440C5050503C4464F6
:10025400544C44000836410000007F000000413641
:10026400080002010204027F4141417F00010307AB
:100274000F1F3F7FFF001027E80364000A000100FE
:1002840000100001100001000000000000004461A3
:100294006E67206769617400546F6320646F3A204D
:1002A4002564004D617920676961740080C0010094
:1002B4002D4E414E00494E460000060004008C02BB
:1002C4000A000005920209000A05A70202003A0783
:1002D400B00201003E07B2020000F894EE27ECBB26
:1002E400F1E0F5BFE5BFE0936C008DE0A2E0BB2731
:1002F400ED938A95E9F780E090E1A0E0B1E0ED9319
:100304000197E9F7EEEBF2E085919591009761F0A2
:10031400A591B59105901590BF01F00105900D923E
:100324000197E1F7FB01F0CF8BBFEFEFEDBFE0E109
:10033400EEBFC0E0D5E00C9462020A92EA93FA930D
:10034400EFB7EA93E0EEEDBDE0ECECBD7720B1F061
:10035400E0EDF7E0E815F90511F488249924082C58
:10036400092811F49498959AE8EEF3E0E815F90554
:1003740011F49598949AF40131964F01E991EFBFE5
:10038400F991E99109901895BA93AA93A881EFEF8E
:10039400EA1BE1BF50C1BA93AA931A930A93042C9F
:1003A400052821F4EFE3F0E02F011FC0AA81BB81EF
:1003B400549741F4D201E5E0F0E00E94230BE40DF0
:1003C400F51D09C0AA81BB81A436E0E0BE0721F473
:1003D400F201EE0FFF1F8F010030E1E01E0724F051
:1003E400EFEFF0E02F0101C02801D201CDDF198128
:1003F4000881EDC11A930A930FEF1FEFAA9AA0ED9B
:10040400B7E00E94E10AAA98E3E0F0E0E017F10700
:1004140031F0A4E6B0E0BFDF0E941E0AF5CF442409
:100424005524A0E0B0E0B0DFE1E07E2E46C01A9390
:100434000A930FEF1FEFAB9AA0EDB7E00E94E10A19
:10044400AB98EAE0F0E0E017F107B9F10E94150972
:10045400A2E9B2E00E9442099ED1EAE0EA93EEE109
:10046400EA93A0E0B5E00E941207E0E0EA93A1E07D
:100474000E940809A4E1B0E08EDFE0E3F5E0FA931E
:10048400EA93ECE9F2E0FA93EA93F2010E94030B97
:100494000E943E0B84E00E94A3082896EAE0EA93B7
:1004A400E8E2EA93A0E3B5E00E941207A0E3B5E016
:1004B4000E9436090E941E0AC4CF09911991089519
:1004C4002897ECE8F0E0E883F983EE81EC7FEE8393
:1004D400E37EE061EE83EF81E078E264EF83DE01A6
:1004E400B3D0A0E10E945509BA98C29ABB98C39AA6
:1004F400A39AA29A8D9A8C9ABC9A8F9AE0E0E0BF54
:10050400E4E7E3BFE0E0E2BFAFEFB0E03DDFE0E00F
:10051400EFBDE1E0EEBDE0EEEDBDE0ECECBDE4E00E
:10052400E7BFE0E0E0937D007894EAE0EA93EEE14F
:10053400EA93AAE0B5E00E941207A7EAB2E00E949B
:100544004209B39B74DFB29B55DFAAEFB0E00E946F
:10055400E10AF7CFFFCF0895AA931A93E0916500BB
:10056400EF7EE093650018E0F6DFE981E07821F0A2
:10057400E0916500E26003C0E0916500ED7FE093E7
:100584006500E981EE0FE983E6DFE0916500E46050
:10059400E0936500E0DFE0916500EB7FE0936500A8
:1005A400115011F7E0916500E061E0936500188156
:1005B40042C0AA93E0916500EE7FE0936500A881B4
:1005C400CBDFE7C0AA93E0916500E160E0936500AA
:1005D400A881C2DFDEC0AA931A93E981E695E69565
:1005E400E6951E2FE4E5E19FF001DF01EA81F0E0EA
:1005F400EA0FFB1FE0934005F0934105E12F1881BA
:1006040023960895AA93E981E068AE2FD2DFE981A9
:10061400EA93A981E0DFE064AE2FCBDF0CC0AA939C
:10062400E981EA93A981EEDFE0914005F09141056B
:10063400EE5BFA4FE08122960895AA930E94240A61
:10064400A881A083BFDFA5C0BA93AA930E94660BBA
:10065400E0916400E0610E942F0AE061E09365008C
:10066400E0916400E4600E942F0AEB7FE093650050
:10067400E0916400E260E0936400E0916400E16072
:10068400E0936400E0916400E8600E942F0AE77F31
:10069400E0936500AAE0B0E00E94E10AE091650001
:1006A400E860E0936500EC81FD81309721F1E681FB
:1006B400E3701E2FEC81FD81E681E695E695E770F7
:1006C4000E2FEC81FD81E781EF773E2FAC81BD8158
:1006D4000E94360BE0931705F093180512960E94BA
:1006E400360BE0932C05F0932D05AC81BD81149657
:1006F4000E94360B0DC010E003E032E3E0E0F0E0CE
:10070400E0931705F0931805E0932C05F0932D055D
:10071400E0932E05F0932F05A1E24BDFE12FE46077
:10072400AE2F47DFE02FE061AE2F43DFE32FE06819
:10073400AE2F3FDFA0E23DDFA1E022D0E1E0E09375
:100744001305E0E0E0931405E1E0E0931905E0937C
:100754001A05E0931B05EFEFE0931C05E1E0E0933D
:100764002305E4E2F5E0FA93EA93EFEFEA93A8E0D5
:10077400B0E00E9484090FD0E1E00E946D0B60C0DC
:10078400AA93E881E03011F0ECE001C0E8E0AE2F7C
:1007940010DF219608950E94660B30E0E091140565
:1007A400E03009F03FEFE0E0EA93A0E02BDF08EF50
:1007B40011E0F80101501040309719F0A32F3DDFEC
:1007C400F8CFE0E0EA93A0E03BD30E946D0B2496BF
:1007D4000895AA931A93ED81EA93AD8120DF1E2F29
:1007E400E981E73011F0E83039F4EB81EA93AA812A
:1007F4000E94B809EB8308C0E33021F4EB81E09553
:10080400EB8302C0E03021F4EA81E0951E2302C0AC
:10081400E23029F4EA81AB81EA231E2B0EC0E130D9
:1008240029F4EA81AB81EA231E2707C0E43029F4C6
:10083400EA81E095AB81EA2B1E23A12FFEDE18810D
:1008440026960895AA9323970E94640BA889A43539
:1008540048F4AF85A03330F4AE85A03019F0AD85EF
:10086400A03009F4CCC1EE85E887A889BB27EE85C2
:10087400F0E0AE0FBF1FA535E0E0BE0720F0A88969
:10088400E4E5EA1BEE872D85AF85BB27ED85F0E017
:10089400AE0FBF1FD19720F0AF85E0E3EA1BED87D1
:1008A400A985A63009F05BC0EC85E13009F4A7C145
:1008B400E33039F4E0912E05F0912F05309709F4D7
:1008C4009EC10885ED85E695E695E6953E2FE22FD7
:1008D400E77019F4AD852A17E9F0A02FBB27E32FA1
:1008E400F0E00E94080BAA85BB850E94340A269575
:1008F40026952695532F5F935F5FE22FAF91EA17FA
:1009040048F0102FE12F1150E03019F00E94390AFD
:10091400F9CFF1CFAE850A1711F1EE85AA85BB8513
:10092400F0E00E94340AED85E77009F03F5F20E0B3
:100934002F932F5FE32FAF91AE1788F41E851F937B
:100944001F5FE02FAF91AE1718F40E94390AF7CF5A
:10095400EE85AE81BF81F0E00E94340AE9CFEF85D5
:10096400E7703E2FED85E03009F449C1EA85FB8547
:10097400EE83FF8310E00889303009F063C0AD8551
:10098400A83008F45AC0E985E03011F0E33009F4E6
:1009940002C0E73009F402C0E83009F402C0E930CB
:1009A40009F402C0EA3021F40A93A8892BDE04C0BA
:1009B400E63011F40E94460A1F931F5FEE85AF9143
:1009C400AE17A0F5A985A63051F40E944A0AFA93FD
:1009D400EA930E94240AA0810E94FF0926C0E985A7
:1009E400E93011F450E00EC0EA3011F45FEF0AC0B0
:1009F4000E944A0A0E94530A5E2FE985E73011F0EB
:100A0400E83021F40E94590A5E2F06C0E33011F445
:100A1400509502C0E03019F4A52FD4DD06C00E9421
:100A24005D0AEFEFEA93AD85D4DEC6CFEF85E85FCC
:100A3400EF87ED85E850ED87D9C05D8520E0E0E0E3
:100A4400ED877EC0E32FAD85AE0FA93020F42D8550
:100A5400E0E0ED8703C0E8E0E31B2E2F3A93A22FDA
:100A64000E94AD094E2FE985E63011F50E94460A31
:100A74001F931F5FEE85AF91AE17C8F40E94240A3E
:100A8400E081E423AE2FE32F0E94FB0A0E94630A55
:100A9400E32FA42F0E94FB0AE095E1215E2B0E9424
:100AA4004A0AFA93EA93A52F0E94FF09E1CF2CC0CA
:100AB400E93011F450E003C0EA30A9F45FEF0E947A
:100AC400590AAE2FE32F0E94F30A5E2F1F931F5F74
:100AD400EE85AF91AE1730F40E945D0A4A93A0E010
:100AE40078DEF4CF11C01F931F5FEE85AF91AE1770
:100AF40058F40E946E0AAE2FE32F0E94F30AEA9381
:100B04004A93AD8566DEEFCFED85E03009F477C01A
:100B1400AD85A83028F4ED85E21B5E2FE0E003C02C
:100B2400532FED85E850ED8710E0EF85E85FEF8700
:100B3400E8E0E31B2E2F0889EA85FB85EE83FF831B
:100B4400E52FF0E0E059FD4F4491E985E63011F5D9
:100B54000E94460A1F931F5FEE85AF91AE17C8F43B
:100B64000E94240AE081E423AE2FE22F0E94F30ABC
:100B74000E94630AE22FA42F0E94F30AE095E12168
:100B84005E2B0E944A0AFA93EA93A52F0E94FF095A
:100B9400E1CF2CC0E93011F450E003C0EA30A9F4ED
:100BA4005FEF0E94590AAE2FE22F0E94FB0A5E2FCC
:100BB4001F931F5FEE85AF91AE1730F40E945D0A5C
:100BC4004A93A0E006DEF4CF11C01F931F5FEE85A9
:100BD400AF91AE1758F40E946E0AAE2FE22F0E9416
:100BE400FB0AEA934A93AD85F4DDEFCFE885AA8545
:100BF400BB85F0E0EA0FFB1FEA87FB87B3CE0E94B8
:100C04006B0B619608950E947B0A24F0E0E0F0E00B
:100C14000C94B609A881B981A435E0E0BE0724F09C
:100C2400E3E5F0E00C94B609E881F9810C94B60987
:100C34000E947B0A24F0E0E0F0E00C94B609A8815D
:100C4400B981D09724F0EFE2F0E00C94B609E88182
:100C5400F9810C94B609BA93AA9323970E94820A45
:100C64008F01002E012A19F4E0E0F0E05FC00E9439
:100C7400890A0F820E94890A0E820E94890A0886C4
:100C8400EB85A885EA1718F4E0E0F0E04FC0F8011E
:100C94000F5F1F4F5491A885BB27EE27A50FBE1FDA
:100CA400EB85F0E0EA17FB0718F0E0E0F0E03EC067
:100CB400EE81E695E695E6954E2FEE81E77009F014
:100CC4004F5FEF81E030A1F0A985BA85EC93A88548
:100CD400EB85EA1BF0E0DF01EF81F0E00E94080BF6
:100CE400DF01E42FF0E00E94080BE00FF11F1EC0AB
:100CF4009801E52FF0E00E0F1F1FA885AF5FA887AE
:100D0400A150EB85AE1760F4F9012F5F3F4FA4911A
:100D1400B0E0E42FF0E00E94080B0E0F1F1FEDCF90
:100D2400F901E491A985BA85EC93F8010E946B0B53
:100D34002C960895E0E0E0931505A0911605BB27D5
:100D44000E948E0AF0E0AE0FBF1FE0911A05F0E09A
:100D5400AE0FBF1F6DDFE09316050895AA93219788
:100D64000E94820A309709F455C0AF81AA3009F471
:100D74004FC0EF81EA93DE0117966DDFAF01309724
:100D840009F44AC0E0911905AE81EA0F3E2FA09103
:100D94001505BB27F0E0EA0FFB1F8F010535E0E0E6
:100DA4001E0718F0032F1127C5DFE0911505EA93FC
:100DB400E0911605EA93E885EA930E948E0AEA9385
:100DC400E1E0EA935A934A93A7E03CDDE0911505EC
:100DD400AE81EA0FEA93E0911605EA93E0911905D2
:100DE400EA930E948E0A0E94950AE0911505EA93FF
:100DF400A09116050E948E0AEA0FEA933A93E091B5
:100E04001A050E94950AE4E5F0E0E017F10711F4F1
:100E140091DF02C0009315050E946B0B289608957C
:100E2400BA93AA931A93EC81EA93AC8109D00E94F5
:100E34009F0A19F0A12F92DFFACF18810C9492091E
:100E4400AA93A981BB27DFDEE0931505A881BB2700
:100E5400EFDEE09316050C94B609BA93AA931A939D
:100E64000A93AA81BB8112960E94360B309759F1DE
:100E7400AA81BB8114960E94360B8F01309761F0D2
:100E84000230E0E01E0798F0F80131978F01AA8143
:100E9400BB811496ED93FC93AA81BB811296ED91CC
:100EA400FD913196FE93EE933197AC81A083AA8194
:100EB400BB810E94360BFF232AF0ED91FD91319600
:100EC400FE93EE9306C0AA81BB81EFEFFFEFED9393
:100ED400FC93198108810C949209BA93AA932697DA
:100EE4000E94640B10E0AC85BD85E0E0F0E0ED937A
:100EF400FC93EA89FB893196EA8BFB8B3197E49169
:100F04002E2FE03009F415C1E12FE03039F42532F9
:100F140011F411E002C00E94A70A0AC1E130A9F449
:100F2400253219F40E94A70A02C112E040E000E051
:100F34002D3211F401E0FCC02B3211F44BE2F8C065
:100F4400203211F440E2F4C002C0E23039F450E03F
:100F540013E0203311F40068EBC003C0E33009F060
:100F6400E7C0203310F02A3308F007C0AAE05A9FE4
:100F7400502DE22FE0535E0FDBC0E22FE33649F43D
:100F84000E94AE0AE889F989A481AA930E94B40A4E
:100F9400CEC0E33741F40E94AE0A0E94BA0A0E940E
:100FA40094091E2F0AC0E03761F40E94AE0A0E9421
:100FB400BA0A0E94A0091E2F086002600F7730E071
:100FC40034C0E43611F0E93611F4046002C0E537A8
:100FD40031F4EAE7F2E0EE83FF8315E00CC0E83574
:100FE40011F4086003C0E83709F0A1C0E4E8F2E0B6
:100FF400EE83FF8314E002FF14C00E94AE0A0E9435
:10100400C40AAB85AA233AF4EA85FB850E94EF0A59
:10101400EA87FB874DE2403011F01F5F01C00B7F70
:1010240004C00E94AE0A0E94C40A00FD11C0151734
:1010340078F407FF08C002FF04C00B7F242F11506F
:1010440001C020E301C020E20E94A70A5150EFCF63
:10105400312F01FF17C03030A1F003FF06C0EE812D
:10106400FF812591EE83FF8305C0AE81BF812D9161
:10107400AE83BF830E94A70A503009F0515031500B
:10108400EACF4BC020E3EE81FF810E943A0BE88750
:10109400F987EE81FF813296EE83FF83E885F98537
:1010A400AA85BB85AE17BF0750F02F5FA885B98509
:1010B400EA85FB85EA1BFB0BEA87FB87EFCF2A3324
:1010C40028F003FF02C0295F01C0295D04FD1AC096
:1010D400213320F4A885B985119709F409C0531761
:1010E40010F000FF01C013C020E207FF0BC020E393
:1010F400006102FF07C00B7F4A930E94B40A50307C
:1011040009F051500E94A70A503009F05150315053
:10111400A885B985129708F0B5CF00FF08C05030F4
:1011240031F05150E0E2EA930E94B40AF8CF10E0A3
:10113400E0CEAC85BD850E94360B0E946B0B649695
:101144000895FF92F82E26970E94660B0E94CC0AFF
:10115400309719F4EFEFFFEF23C0DE0116960E94DB
:10116400EB0A8D010E94CC0AEE83FF83E0E0E8875E
:10117400E987DE011A960E94EB0A0E94360BFA9365
:10118400EA931A930A93EFE2F7E0FA93EA93DE0103
:101194001A96A3DE9F01AE81BF81E0E0EC93F901D2
:1011A4000E946D0B2A96FF900895AA93E881E0713E
:1011B40011F0DB9A01C0DB98E881E07211F0DC9A4F
:1011C40001C0DC98E881E07411F0DD9A01C0DD987B
:1011D400E881E07811F0DE9A01C0DE988DE08A950E
:1011E400F1F7DA9A8DE08A95F1F7DA988DE08A952D
:1011F400F1F786C0AA93A881D8DFE881E295E88355
:10120400A881D3DF85E88A95F1F77AC0AA93E881AB
:10121400F0E0E65CF84FE081A981AE0FEBDF698076
:10122400B8800C94B609A2E00E94D30AACE0E2DFD5
:10123400A1E00E94D30AE0E0BE2E6E2E0895AA9388
:10124400A881AA3011F06A1448F0E0E0EA93B3945C
:10125400AB2DDCDFA881AA3009F452C06394D89A7C
:10126400A881C8DFD8984CC0BA93AA931A930E9455
:101274009F0A19F0A12FE3DFFACF18810C94FD091E
:10128400BA93AA931A93E981FA813196E983FA838E
:101294003197E4911E2FE03019F0A12FD0DFF3CF66
:1012A40018810C94FD09AA93D39AD49AD59AD69A04
:1012B400D29AD09AD19ADA98D898D998A880E88105
:1012C400E058E0933C07E881E054E0933D07A4E153
:1012D400B0E00E94E10A0E94D90A0E94D90A0E9441
:1012E400D90AA0E262DF88EC90E00197F1F7A8E266
:1012F40081DFA4E07FDFA5E87DDFA6E07BDF93DF6D
:1013040021960895BA93AA93B981A881109631F0D1
:10131400FC81EB816A8161931197E9F7EB81FC8190
:1013240025960895BA93AA93A991B991EE27FF2718
:101334006D91662311F03196FBCF0895BA93AA9369
:10134400AA27BB27E991F9910590002011F0119685
:10135400FBCFFD010895AA93E881F0E0E059FD4F29
:10136400A491E9810E94F30A22960895AA931A93FC
:10137400E981E73011F0EA3019F41091130509C03E
:10138400E93019F41091140504C0E830A1F4109167
:101394002305E0911405E03049F0103019F0EFEF27
:1013A400188129C0EA81E095188125C0103019F40C
:1013B400E0E0188120C0EA8118811DC0BA93AA9385
:1013C400EA81E13021F4E881F981E49114C0E2304A
:1013D40029F4A881B9810E94430B0DC0E33041F484
:1013E400A881B981E0912C05F0912D05099503C0E0
:1013F400A881B981EC9123960895AA93EB81E030FA
:1014040029F4E881A981BA81EC9314C0E23031F463
:10141400E881A981BA810E944F0B0CC0E33051F4DA
:10142400E981FA81FA93EA93AA81E0912E05F09179
:101434002F050995249608950F5F1F4FA8EEB3E07A
:101444000C94E10AA0E4B5E0ED91FD913196FE9390
:10145400EE933197EE5BFA4F0895E0936400E091C8
:1014640065000895EA0FFB1FEE83FF830895EC8562
:10147400EA93EF81F8853196EF83F8873197FA93F1
:10148400EA93A0E00C94FF090A93A8890C94ED0256
:10149400EC85EA93EF81F8853196EF83F8873197ED
:1014A400089566277727DF01CB010C94E0095A934E
:1014B400AA850C94B8090A930395E889EA935A9388
:1014C40008955E2FEC85EA93AF81B8858827992724
:1014D4000E94E0091E2E08950A930395E889EA9371
:1014E400EE85EA93E985FA853196E987FA8731979B
:1014F400D8CFBA93AA93A881B9810E94600B0895AA
:101504000E94640BE0911705F09118050895F80105
:101514000F5F1F4F04900895E0911705F09118058F
:101524003196E4910895EA93E0E0EA93E0E0F0E094
:10153400FA93EA93A9E00C942404A981BA81ED9169
:10154400A983BA831E2FE03008952A93AD85BE8502
:10155400EF85F88909950895E889F9893497E88B26
:10156400F98B0895AD85BE85EF85F88909950895B1
:10157400A889B98914960E94360BEE83FF83AE8145
:10158400BF810895A889B98914960E94360BEA8709
:10159400FB870895DE011C960E94EB0A0E94360B1D
:1015A40008950E94FC08A3E0B0E00C94E10AA0E3D3
:1015B4000E94D70888EC90E00197F1F708951096FF
:1015C40039F080ED97E00197F1F7A8951197C9F7E5
:1015D40008950024AF0DB01D0895F195E195F040F4
:1015E4000895EE230E2EEA2F19F0EE0F0A94E9F770
:1015F4000895EE230E2EEA2F19F0E6950A94E9F7E2
:1016040008956F2F660F660B762F0895FA9FF02DBD
:10161400EB9FF00DEA9FE02DF10D089500241124B5
:1016240090E1AA0FBB1F001C111C0E1A1F0A18F40C
:101634000E0E1F1E01C0A1609A9599F7FD01D001FD
:10164400089504D0EBDF0EF4C8DF0895E894F7FFA3
:1016540002C0C3DF6894B7FF06C0A095B095119689
:1016640000F8039400FA0895ED91FC911197089500
:101674000590F491E02D08957A936A93FA93EA938E
:101684000895E199FECFFF93FFB7F894AEBBBFBBBB
:10169400E09AEDB3FFBFFF910895E19B02C0A895C6
:1016A400FCCF9FB7F894AEBBBFBBE09A8DB3E817ED
:1016B40019F0EDBBE29AE19A9FBF089500240A163F
:1016C4000B0608955A934A933A932A931A930A93CA
:1016D40008955D814C813B812A8119810881089597
:00000001FF
