:060000000C949B010C941E
:1000060000000C9400000C9400000C9400000C946A
:1000160000000C9400000C9400000C9400000C945A
:1000260000000C9400000C9400000C9400000C944A
:1000360000000C94F0020C9400000C9400000C9448
:1000460000000C9400000C9400000C9400000C942A
:1000560000000C9400000C9400000C9400000C941A
:1000660000000C9400000C9400000C9400000C940A
:1000760000000C9400000C9400000C9400000C94FA
:1000860000000C940000050720600000000000003E
:10009600005F00000007000700147F147F14242A65
:1000A6007F2A12231308646236495522500005033D
:1000B6000000001C2241000041221C00082A1C2AC4
:1000C6000808083E0808005030000008080808081C
:1000D600003030000020100804023E5149453E0021
:1000E600427F400042615149462141454B31181437
:1000F600127F1027454545393C4A49493001710967
:1001060005033649494936064949291E003636004F
:10011600000056360000000814224114141414146A
:1001260041221408000201510906324979413E7EF6
:100136001111117E7F494949363E414141227F4195
:1001460041221C7F494949417F090901013E41413C
:1001560051327F0808087F00417F41002040413F1F
:10016600017F081422417F404040407F0204027F05
:100176007F0408107F3E4141413E7F090909063E42
:100186004151215E7F0919294646494949310101F4
:100196007F01013F4040403F1F2040201F7F201825
:1001A600207F6314081463030478040361514945EE
:1001B6004300007F4141020408102041417F0000B6
:1001C60004020102044040404040000102040020B5
:1001D600545454787F48444438384444442038447E
:1001E60044487F3854545418087E090102081454B0
:1001F600543C7F0804047800447D40002040443D80
:1002060000007F10284400417F40007C04180478D9
:100216007C0804047838444444387C1414140808D0
:100226001414187C7C080404084854545420043FD1
:100236004440203C4040207C1C2040201C3C403058
:10024600403C44281028440C5050503C4464544CC4
:1002560044000836410000007F00000041360800D7
:1002660002010204027F4141417F000103070F1F83
:100276003F7FFF001027E80364000A00010000101A
:100286000001100001000000000000000000E7006F
:100296000000000000000000000001000200030052
:1002A6000400050006000700080009002564004E4A
:1002B6004841502054454D503A0048554D493A0062
:1002C6004E4841502054454D503A20425431004842
:1002D60049454E205448493A20425432000080C0D5
:1002E60001002D4E414E00494E4600000A00040012
:1002F6008C0211006205A0020B000005B5020B007E
:100306000B05B50206001605BA0206001C05C0025A
:1003160006002205BA020F002805C6020E003705A0
:10032600D50202008B07E40201009207E6020000F4
:10033600F894EE27ECBBF1E0F5BFE5BFE0936C0067
:100346008DE0A2E0BB27ED938A95E9F780E090E186
:10035600A0E0B1E0ED930197E9F7E2EFF2E08591D5
:100366009591009761F0A591B59105901590BF0103
:10037600F00105900D920197E1F7FB01F0CF8BBFDD
:10038600EFEFEDBFE0E1EEBFC0E0D5E00C949003E7
:10039600BA93AA932A978AE0A0E0B0E0E6E9F2E0F1
:1003A6000E94740D0E94680DBF9AC79A80EA8A95CA
:1003B600F1F7C798A9E1B0E00E94CC0CBF98C79AA4
:1003C60080EA8A95F1F7B79B02C0E0E05CC0B79B74
:1003D600FECF80EA8A95F1F7B79902C0E0E053C0F4
:1003E600B799FECF00E010E00530E0E01E0764F5A7
:1003F60020E030E02830E0E03E071CF5B79BFECF5A
:1004060085E88A95F1F7B79B19C0F801DE011496C5
:10041600EE0FFF1FEA0FFB1FCF0160817181E7E03E
:10042600F0E0E21BF30BA1E0B0E00E94EE0CE62B3D
:10043600F72BDC01ED93FC93B799FECF2F5F3F4F6F
:10044600D9CF0F5F1F4FD0CFEE81FF81AC81BD8129
:10045600EA0FFB1FA885B985EA0FFB1FAA85BB8596
:10046600EA0FFB1F2F01EC85FD85E415F50511F05C
:10047600E0E009C0E885A889B989EC93EC81AE85EE
:10048600BF85EC93E1E00E946F0D629608950E948D
:10049600660D40E050E04330E0E05E070CF04CC0F3
:1004A600042E052A19F4EDEFE0936200E1E0F0E096
:1004B600E417F50719F4E7EFE0936200E2E0F0E0F5
:1004C600E417F50719F4EFEDE093620020E030E061
:1004D6002330E0E03E076CF5022E032A39F4E0B142
:1004E600E4701E2F143011F00E94C90BE1E0F0E019
:1004F600E217F30759F4A2E3B0E00E94CC0CE0B196
:10050600E0711E2F103111F00E94C90BE2E0F0E0FD
:10051600E217F30759F4A2E3B0E00E94CC0CE0B175
:10052600E1701E2F113011F00E94C90B2F5F3F4F53
:10053600CFCF4F5F5F4FAFCF0E946D0D0C9461051B
:10054600A4E7B5E0A60DB71DE0E0EC93A4E7B5E09F
:100556000E94E40A4F01E4E8F5E00E94E20BF40190
:100566000E94F70C0E94E90B0E94C508A5EBB2E0B9
:100576000E94FF08A4E7B5E00E94F3084AD2E0E033
:10058600EA93EAE0EA93A0E0B5E00E945A08A4E7FD
:10059600B5E0C0C0EFEFE1BBE6EBE2BBA0E10E9435
:1005A6001209EAEEE0936100E5E1E0936200BA9891
:1005B600C09A0E94C508ABE0B5E00E94F30867DF69
:1005C600BFDFE2E0F0E06E167F0614F4B09904C0D7
:1005D60066247724E82D0895F2CFAA93BA93EA9376
:1005E600FA93EFB7EA93E0EEEDBDE0ECECBDE091F7
:1005F6008A05E03019F1A0918B05B0918C05A03DDC
:10060600E7E0BE0729F4E0E0E0938B05E0938C0574
:10061600E0918B05F0918C05309711F49498959A9A
:10062600A0918B05B0918C05A83EE3E0BE0711F4BE
:100636009598949AABE8B5E00E94F00BE991EFBF6C
:10064600F991E991B991A9911895BA93AA93A881BC
:10065600EFEFEA1BE1BF29C1EAE0F0E0FA93EA9383
:10066600ADE0B0E095DEBE2EE1E0EB15D9F50E94D7
:10067600C508E0E0EA93A0E00E94F60BAA2D0E94CE
:10068600FC0BAA2D0E94050CE0E0EA93A1E00E9473
:10069600B408A0ECB2E00E94FF08AD2D0E94FC0B4E
:1006A600AD2D0E94050CB5D1A6E1B5E00E940E0C59
:1006B600EA2D0E94130CADE8B5E00E940E0CED2D5C
:1006C6000E94130CE0E0EA93EFE0EA93ACE1B5E0B8
:1006D6000E945A08EEE1EA93EFE0EA93ADE8B5E04E
:1006E6000E945A08089556DFCE2EE0E0EA93A1E074
:1006F6000E94F60BAC2D0E94FC0BAC2D0E94050C43
:1007060088D1A2E2B5E00E940E0CEC2D0E94130CDB
:10071600ADE8B5E00E946A0808952897ECE8F0E095
:10072600E883F983EE81EC7FEE83E37EE061EE837E
:10073600EF81E078E264EF83DE01C4D0A0E10E949D
:100746001209BC9A8F9A8C9A8D9AE0E0E0BFE4E792
:10075600E3BFE0E0E2BFA0E0B0E077DFE0E0EFBDBE
:10076600E1E0EEBDE0EEEDBDE0ECECBDE4E0E7BFC0
:10077600E0E0E0937D00BA98C29ABB98C39A789459
:10078600A6ECB2E00E94FF08E0E0EA93A1E00E9436
:10079600B408A5EDB2E00E94FF08E0E0EA93EAE0C3
:1007A600EA93A8E2B5E00E945A08E0E0EA93E4E1A1
:1007B600EA93A7E3B5E00E945A08B29B94DFB39B85
:1007C6004BDFFBCFFFCF0895AA931A93E091650004
:1007D600EF7EE093650018E0F6DFE981E07821F02E
:1007E600E0916500E26003C0E0916500ED7FE09373
:1007F6006500E981EE0FE983E6DFE0916500E460DC
:10080600E0936500E0DFE0916500EB7FE093650033
:10081600115011F7E0916500E061E09365001881E1
:1008260044C0AA93E0916500EE7FE0936500A8813D
:10083600CBDF0C944009AA93E0916500E160E09358
:100846006500A881C1DF0C944009AA931A93E98137
:10085600E695E695E6951E2FE4E5E19FF001DF01BA
:10086600EA81F0E0EA0FFB1FE0939105F093920511
:10087600E12F188123960895AA93E981E068AE2FA7
:10088600D0DFE981EA93A981E0DFE064AE2FC9DF1A
:100896000CC0AA93E981EA93A981EEDFE091910564
:1008A600F0919205ED56FA4FE08122960895AA93AB
:1008B6000E94170C3197ED56FA4FA881A083BBDF33
:1008C6000C944009BA93AA930E94680DE0916400C3
:1008D600E0610E941A0CE061E0936500E09164001B
:1008E600E4600E941A0CEB7FE0936500E0916400DF
:1008F600E260E0936400E0916400E160E0936400EC
:10090600E0916400E8600E941A0CE77FE0936500BE
:10091600AAE0B0E00E94CC0CE0916500E860E093AC
:100926006500EC81FD81309721F1E681E3701E2F91
:10093600EC81FD81E681E695E695E7700E2FEC8168
:10094600FD81E781EF773E2FAC81BD810E94380D96
:10095600E0934905F0934A0512960E94380DE093FC
:100966005E05F0935F05AC81BD8114960E94380D3B
:100976000DC010E003E032E3E0E0F0E0E09349056B
:10098600F0934A05E0935E05F0935F05E0936005FA
:10099600F0936105A1E245DFE12FE460AE2F41DF70
:1009A600E02FE061AE2F3DDFE32FE068AE2F39DFA9
:1009B600A0E237DFA1E022D0E1E0E0934505E0E0E8
:1009C600E0934605E1E0E0934B05E0934C05E093A8
:1009D6004D05EFEFE0934E05E1E0E0935505E6E5C2
:1009E600F5E0FA93EA93EFEFEA93A8E0B0E00E940D
:1009F6001B0B0FD0E1E00E946F0D60C0AA93E88147
:100A0600E03011F0ECE001C0E8E0AE2F0ADF0C9414
:100A160040090E94680D30E0E0914605E03009F09B
:100A26003FEFE0E0EA93A0E027DF08EF11E0F801EE
:100A360001501040309719F0A32F39DFF8CFE0E0CE
:100A4600EA93A0E050D30E946F0D24960895AA93CE
:100A56001A93ED81EA93AD811CDF1E2FE981E73001
:100A660011F0E83039F4EB81EA93AA810E944F0B2A
:100A7600EB8308C0E33021F4EB81E095EB8302C001
:100A8600E03021F4EA81E0951E2302C0E23029F429
:100A9600EA81AB81EA231E2B0EC0E13029F4EA81FC
:100AA600AB81EA231E2707C0E43029F4EA81E095EA
:100AB600AB81EA2B1E23A12FFADE18812696089514
:100AC600AA9323970E94660DA889A43548F4AF859A
:100AD600A03330F4AE85A03019F0AD85A03009F40E
:100AE600D5C1EE85E887A889BB27EE85F0E0AE0F75
:100AF600BF1FA535E0E0BE0720F0A889E4E5EA1BA4
:100B0600EE872D85AF85BB27ED85F0E0AE0FBF1FC5
:100B1600D19720F0AF85E0E3EA1BED87A985A630E3
:100B260009F05BC0EC85E13009F4B0C1E33039F47B
:100B3600E0916005F0916105309709F4A7C1088539
:100B4600ED85E695E695E6953E2FE22FE77019F4DA
:100B5600AD852A17E9F0A02FBB27E32FF0E00E940E
:100B6600FC0CAA85BB850E941F0C2695269526950A
:100B7600532F5F935F5FE22FAF91EA1748F0102F74
:100B8600E12F1150E03019F00E94240CF9CFF1CF7B
:100B9600AE850A1711F1EE85AA85BB85F0E00E94A5
:100BA6001F0CED85E77009F03F5F20E02F932F5F64
:100BB600E32FAF91AE1788F41E851F931F5FE02FBA
:100BC600AF91AE1718F40E94240CF7CFEE85AE81D4
:100BD600BF81F0E00E941F0CE9CFEF85E7703E2F42
:100BE600ED85E03009F452C1EA85FB85EE83FF838B
:100BF60010E00889303009F066C0AD85A83008F4E9
:100C06005DC0E985E03011F0E33009F402C0E73059
:100C160009F402C0E83009F402C0E93009F402C060
:100C2600EA3021F40A93A88927DE04C0E63011F4DD
:100C36000E94310C1F931F5FEE85AF91AE17B8F57A
:100C4600A985A63069F40E94350CFA93EA930E94AE
:100C5600170C3197ED56FA4FA0810E94960B26C0CD
:100C6600E985E93011F450E00EC0EA3011F45FEF87
:100C76000AC00E94350C0E943E0C5E2FE985E730C3
:100C860011F0E83021F40E94440C5E2F06C0E330D8
:100C960011F4509502C0E03019F4A52FCCDD06C042
:100CA6000E94480CEFEFEA93AD85D1DEC3CFEF8506
:100CB600E85FEF87ED85E850ED87DFC05D8520E0D2
:100CC600E0E0ED8781C0E32FAD85AE0FA93020F4BB
:100CD6002D85E0E0ED8703C0E8E0E31B2E2F3A9375
:100CE600A22F0E94440B4E2FE985E63029F50E947B
:100CF600310C1F931F5FEE85AF91AE17E0F40E9493
:100D0600170C3197ED56FA4FE081E423AE2FE32F0F
:100D16000E94E60C0E944E0CE32FA42F0E94E60CC4
:100D2600E095E1215E2B0E94350CFA93EA93A52FFC
:100D36000E94960BDECF2CC0E93011F450E003C0C0
:100D4600EA30A9F45FEF0E94440CAE2FE32F0E9415
:100D5600DE0C5E2F1F931F5FEE85AF91AE1730F44A
:100D66000E94480C4A93A0E072DEF4CF11C01F9394
:100D76001F5FEE85AF91AE1758F40E94590CAE2F47
:100D8600E32F0E94DE0CEA934A93AD8560DEEFCF37
:100D9600ED85E03009F47AC0AD85A83028F4ED85FC
:100DA600E21B5E2FE0E003C0532FED85E850ED8790
:100DB60010E0EF85E85FEF87E8E0E31B2E2F088958
:100DC600EA85FB85EE83FF83E52FF0E0E059FD4FD2
:100DD6004491E985E63029F50E94310C1F931F5F87
:100DE600EE85AF91AE17E0F40E94170C3197ED56E1
:100DF600FA4FE081E423AE2FE22F0E94DE0C0E9420
:100E06004E0CE22FA42F0E94DE0CE095E1215E2B12
:100E16000E94350CFA93EA93A52F0E94960BDECF1B
:100E26002CC0E93011F450E003C0EA30A9F45FEFBA
:100E36000E94440CAE2FE22F0E94E60C5E2F1F93F9
:100E46001F5FEE85AF91AE1730F40E94480C4A93AF
:100E5600A0E0FDDDF4CF11C01F931F5FEE85AF91BB
:100E6600AE1758F40E94590CAE2FE22F0E94E60CE2
:100E7600EA934A93AD85EBDDEFCFE885AA85BB857E
:100E8600F0E0EA0FFB1FEA87FB87AACE0E946D0DF2
:100E9600619608950E94660C24F0E0E0F0E00C9460
:100EA6004D0BA881B981A435E0E0BE0724F0E3E547
:100EB600F0E00C944D0BE881F9810C944D0B0E94E7
:100EC600660C24F0E0E0F0E00C944D0BA881B981AB
:100ED600D09724F0EFE2F0E00C944D0BE881F98115
:100EE6000C944D0BBA93AA9323970E946D0C8F0115
:100EF600002E012A19F4E0E0F0E05FC00E94740CB5
:100F06000F820E94740C0E820E94740C0886EB8578
:100F1600A885EA1718F4E0E0F0E04FC0F8010F5F8B
:100F26001F4F5491A885BB27EE27A50FBE1FEB8543
:100F3600F0E0EA17FB0718F0E0E0F0E03EC0EE81D3
:100F4600E695E695E6954E2FEE81E77009F04F5F40
:100F5600EF81E030A1F0A985BA85EC93A885EB85F1
:100F6600EA1BF0E0DF01EF81F0E00E94FC0CDF01FC
:100F7600E42FF0E00E94FC0CE00FF11F1EC0980168
:100F8600E52FF0E00E0F1F1FA885AF5FA887A150C1
:100F9600EB85AE1760F4F9012F5F3F4FA491B0E0E7
:100FA600E42FF0E00E94FC0C0E0F1F1FEDCFF9019D
:100FB600E491A985BA85EC93F8010E946D0D2C96F3
:100FC6000895E0E0E0934705A0914805BB270E94FD
:100FD600790CF0E0AE0FBF1FE0914C05F0E0AE0FCC
:100FE600BF1F6DDFE09348050895AA9321970E94DD
:100FF6006D0C309709F455C0AF81AA3009F44FC083
:10100600EF81EA93DE0117966DDFAF01309709F4A1
:101016004AC0E0914B05AE81EA0F3E2FA0914705ED
:10102600BB27F0E0EA0FFB1F8F010535E0E01E0746
:1010360018F0032F1127C5DFE0914705EA93E091E9
:101046004805EA93E885EA930E94790CEA93E1E081
:10105600EA935A934A93A7E033DDE0914705AE81C0
:10106600EA0FEA93E0914805EA93E0914B05EA938B
:101076000E94790C0E94800CE0914705EA93A091AA
:1010860048050E94790CEA0FEA933A93E0914C05E1
:101096000E94800CE4E5F0E0E017F10711F491DF1F
:1010A60002C0009347050E946D0D28960895BA93D5
:1010B600AA931A93EC81EA93AC8115D00E948A0C0C
:1010C60019F0A12F92DFFACF18810C94290BBA934D
:1010D600AA931A930E948A0C19F0A12F86DFFACFE1
:1010E60018810C94940BAA93A981BB27D3DEE093B5
:1010F6004705A881BB27E3DEE09348050C944D0B1A
:10110600AA93E881E07111F0DB9A01C0DB98E881CF
:10111600E07211F0DC9A01C0DC98E881E07411F00D
:10112600DD9A01C0DD98E881E07811F0DE9A01C011
:10113600DE988DE08A95F1F7DA9A8DE08A95F1F7D7
:10114600DA988DE08A95F1F798C0AA93A881D8DF3E
:10115600E881E295E883A881D3DF85E88A95F1F7EF
:101166008CC0AA93E881F0E0E557F84FE081A981A9
:10117600AE0FEBDFE981E0938F07E881E0939007FC
:101186000C944D0BA2E00E94920CACE0DEDFA1E0D5
:101196000E94920CE0E0E0939007E0938F07089599
:1011A600AA93A881AA3031F0E0919107A0918F0708
:1011B600AE1760F0E0E0EA93A0919007AF5FA093CE
:1011C6009007CFDFA881AA3009F457C0E0918F07B6
:1011D600EF5FE0938F07D89AA881B7DFD8984DC004
:1011E600BA93AA931A930E948A0C19F0A12FD8DFFA
:1011F600FACF18810C94940BBA93AA931A93E981A7
:10120600FA813196E983FA833197E4911E2FE03013
:1012160019F0A12FC5DFF3CF18810C94940BAA9374
:10122600D39AD49AD59AD69AD29AD09AD19ADA984B
:10123600D898D998E881E0939107E058E0938D0714
:10124600E881E054E0938E07A4E1B0E00E94CC0C64
:101256000E94980C0E94980C0E94980CA0E250DF05
:1012660088EC90E00197F1F7A8E26FDFA4E06DDF6C
:10127600A5E86BDFA6E069DF85DF21960895BA93BE
:10128600AA931A930A93AA81BB8112960E94380DDB
:10129600309729F1AA81BB8114960E94380D8F01DF
:1012A600309761F00230E0E01E0780F0F8013197D8
:1012B6008F01AA81BB811496ED93FC93AA81BB8111
:1012C60012960E94F00B3197AC81A083AA81BB8154
:1012D6000E94380DFF2312F00E94F00B06C0AA816F
:1012E600BB81EFEFFFEFED93FC93198108810C941E
:1012F600290BBA93AA9326970E94660D10E0AC8537
:10130600BD85E0E0F0E0ED93FC93EA89FB89319638
:10131600EA8BFB8B3197E4912E2FE03009F415C14F
:10132600E12FE03039F4253211F411E002C00E94B9
:10133600A00C0AC1E130A9F4253219F40E94A00CD0
:1013460002C112E040E000E02D3211F401E0FCC0E1
:101356002B3211F44BE2F8C0203211F440E2F4C013
:1013660002C0E23039F450E013E0203311F4006893
:10137600EBC003C0E33009F0E7C0203310F02A3396
:1013860008F007C0AAE05A9F502DE22FE0535E0FE7
:10139600DBC0E22FE33649F40E94A70CE889F989FD
:1013A600A481AA930E94AD0CCEC0E33741F40E94FB
:1013B600A70C0E94B30C0E942B0B1E2F0AC0E0370D
:1013C60061F40E94A70C0E94B30C0E94370B1E2FDB
:1013D600086002600F7730E034C0E43611F0E93679
:1013E60011F4046002C0E53731F4EAE7F2E0EE8377
:1013F600FF8315E00CC0E83511F4086003C0E83738
:1014060009F0A1C0E4E8F2E0EE83FF8314E002FFF6
:1014160014C00E94A70C0E94BD0CAB85AA233AF407
:10142600EA85FB850E94DA0CEA87FB874DE24030AD
:1014360011F01F5F01C00B7F04C00E94A70C0E9421
:10144600BD0C00FD11C0151778F407FF08C002FF98
:1014560004C00B7F242F115001C020E301C020E2FD
:101466000E94A00C5150EFCF312F01FF17C0303032
:10147600A1F003FF06C0EE81FF812591EE83FF8375
:1014860005C0AE81BF812D91AE83BF830E94A00CA3
:10149600503009F051503150EACF4BC020E3EE8175
:1014A600FF810E943C0DE887F987EE81FF81329625
:1014B600EE83FF83E885F985AA85BB85AE17BF074E
:1014C60050F02F5FA885B985EA85FB85EA1BFB0BE3
:1014D600EA87FB87EFCF2A3328F003FF02C0295F94
:1014E60001C0295D04FD1AC0213320F4A885B98501
:1014F600119709F409C0531710F000FF01C013C07B
:1015060020E207FF0BC020E3006102FF07C00B7F4C
:101516004A930E94AD0C503009F051500E94A00C25
:10152600503009F051503150A885B985129708F00E
:10153600B5CF00FF08C0503031F05150E0E2EA93D9
:101546000E94AD0CF8CF10E0E0CEAC85BD850E94C0
:10155600380D0E946D0D64960895FF92F82E269719
:101566000E94680D0E94C50C309719F4EFEFFFEF4B
:1015760023C0DE0116960E94D60C8D010E94C50C72
:10158600EE83FF83E0E0E887E987DE011A960E9492
:10159600D60C0E94380DFA93EA931A930A93E2E462
:1015A600F9E0FA93EA93DE011A96A3DE9F01AE8173
:1015B600BF81E0E0EC93F9010E946F0D2A96FF903F
:1015C6000895BA93AA93B981A881EC918A2FAE2F78
:1015D6000E94BE0BA82FEE2311F01196F6CFE894C9
:1015E600EC91ED3211F4689402C0EB3209F41196D5
:1015F60066277727EC918A2FAE2F0E94B50BA82F6E
:10160600EE2379F0FB01660F771F660F771F6E0FCB
:101616007F1F660F771FED91FF27E0536E0F7F1F29
:10162600E9CFFB011EF4E095F095319622960895D8
:10163600BA93AA93B981A881109631F0FC81EB8107
:101646006A8161931197E9F7EB81FC8125960895EC
:10165600BA93AA93A991B991EE27FF276D916623B4
:1016660011F03196FBCF0895BA93AA93AA27BB2708
:10167600E991F9910590002011F01196FBCFFD013B
:101686000895AA93E881F0E0E059FD4FA491E9811D
:101696000E94DE0C22960895AA931A93E981E730F8
:1016A60011F0EA3019F41091450509C0E93019F432
:1016B6001091460504C0E830A1F410915505E0915B
:1016C6004605E03049F0103019F0EFEF188129C0D7
:1016D600EA81E095188125C0103019F4E0E0188100
:1016E60020C0EA8118811DC0BA93AA93EA81E1302D
:1016F60021F4E881F981E49114C0E23029F4A8814B
:10170600B9810E94450D0DC0E33041F4A881B9812D
:10171600E0915E05F0915F05099503C0A881B98146
:10172600EC9123960895AA93EB81E03029F4E881A1
:10173600A981BA81EC9314C0E23031F4E881A98121
:10174600BA810E94510D0CC0E33051F4E981FA814F
:10175600FA93EA93AA81E0916005F09161050995F3
:1017660024960895AA93E1E0F991F03310F0FA3344
:1017760008F0EE270895AA93E1E0F991F03229F0F6
:10178600F93010F0FE3008F0EE270895F301319697
:101796003F013197EC58FA4FBF01A6E0A49FF00134
:1017A600A59FF00DEE59FA4FDF01F901EE0FFF1F6D
:1017B600AE0FBF1FEC91E05DDB01EC930895FA9349
:1017C600EA93E2EBF2E0FA93EA9308950E94400D61
:1017D60084E00E94B00A28960895ED91FD91319615
:1017E600FE93EE9308950E94B408AAEBB2E00C941F
:1017F600FF08B0E0EAE0F0E00E94170DE05DAE2FD2
:101806000C94D308BB27EAE0F0E00E941C0DE05DD3
:10181600AE2F0C94D3080E946A08EDE8F5E0CFCF0E
:10182600FF2766277727D2CFA1E9B5E0D6CFE09389
:101836006400E09165000895EA0FFB1FEE83FF83C5
:101846000895EC85EA93EF81F8853196EF83F88762
:101856003197FA93EA93A0E00C94960B0A93A88921
:101866000C942804EC85EA93EF81F8853196EF8392
:10187600F8873197089566277727DF01CB010C9407
:10188600770B5A93AA850C944F0B0A930395E88914
:10189600EA935A9308955E2FEC85EA93AF81B88553
:1018A600882799270E94770B1E2E08950A93039581
:1018B600E889EA93EE85EA93E985FA853196E98720
:1018C600FA873197D8CFBA93AA93A881B9810E9493
:1018D600620D08950E94660DE0914905F0914A0552
:1018E6000895F8010F5F1F4F04900895E091490590
:1018F600F0914A053196E4910895EA93E0E0EA937F
:10190600E0E0F0E0FA93EA93A9E00C946305A9817C
:10191600BA81ED91A983BA831E2FE03008950E9403
:10192600A808A3E0B0E00C94CC0CA0E30E948308C6
:1019360088EC90E00197F1F708952A93AD85BE856E
:10194600EF85F88909950895E889F9893497E88B30
:10195600F98B0895AD85BE85EF85F88909950895BB
:10196600A889B98914960E94380DEE83FF83AE814B
:10197600BF810895A889B98914960E94380DEA870F
:10198600FB870895DE011C960E94D60C0E94380D36
:101996000895109639F080ED97E00197F1F7A89534
:1019A6001197C9F708950024AF0DB01D0895F1955C
:1019B600E195F0400895EE230E2EEA2F19F0EE0F72
:1019C6000A94E9F70895EE230E2EEA2F19F0E6950C
:1019D6000A94E9F70895EE230E2EFD0121F0EE0F8D
:1019E600FF1F0A94E1F708956F2F660F660B762F97
:1019F6000895FA9FF02DEB9FF00DEA9FE02DF10D73
:101A060008950024112490E1AA0FBB1F001C111C8D
:101A16000E1A1F0A18F40E0E1F1E01C0A1609A9519
:101A260099F7FD01D001089512D0EBDF0EF4BFDF68
:101A36000895E894B7FF04C0A095B09511966894F0
:101A4600F7FDB5DFDEDFFD010EF4B1DF0895E894A2
:101A5600F7FF02C0ACDF6894B7FF06C0A095B0954B
:101A6600119600F8039400FA0895ED91FC911197F0
:101A760008950590F491E02D08957A936A93FA9368
:101A8600EA930895E199FECFFF93FFB7F894AEBBB2
:101A9600BFBBE09AEDB3FFBFFF910895E19B02C083
:101AA600A895FCCF9FB7F894AEBBBFBBE09A8DB3A9
:101AB600E81719F0EDBBE29AE19A9FBF089500245A
:101AC6000A160B0608955A934A933A932A931A9341
:101AD6000A9308955D814C813B812A811981088191
:101AE6000895AC0FBD1F05900D928A95E1F70895F4
:00000001FF
