:0C0000000C9479010C9400000C9400009A
:10000C000C9400000C9400000C9400000C94000064
:10001C000C9400000C9400000C9400000C94000054
:10002C000C9400000C9400000C9400000C94FD0146
:10003C000C9400000C9400000C9400000C94000034
:10004C000C9400000C9400000C9400000C94000024
:10005C000C9400000C9400000C9400000C94000014
:10006C000C9400000C9400000C9400000C94000004
:10007C000C9400000C9400000C9400000C940000F4
:10008C0005072060000000000000005F0000000772
:10009C00000700147F147F14242A7F2A12231308CC
:1000AC00646236495522500005030000001C2241B1
:1000BC00000041221C00082A1C2A0808083E0808D7
:1000CC0000503000000808080808003030000020FC
:1000DC00100804023E5149453E00427F40004261F7
:1000EC005149462141454B311814127F1027454583
:1000FC0045393C4A4949300171090503364949499A
:10010C0036064949291E00363600000056360000D6
:10011C00000814224114141414144122140800026F
:10012C0001510906324979413E7E1111117E7F49F8
:10013C004949363E414141227F4141221C7F494978
:10014C0049417F090901013E414151327F080808AC
:10015C007F00417F41002040413F017F0814224134
:10016C007F404040407F0204027F7F0408107F3EA6
:10017C004141413E7F090909063E4151215E7F09FB
:10018C00192946464949493101017F01013F404047
:10019C00403F1F2040201F7F2018207F631408142D
:1001AC00630304780403615149454300007F4141D6
:1001BC00020408102041417F0000040201020440A7
:1001CC0040404040000102040020545454787F48C1
:1001DC004444383844444420384444487F385454C8
:1001EC005418087E090102081454543C7F08040476
:1001FC007800447D40002040443D00007F1028449E
:10020C0000417F40007C041804787C080404783892
:10021C00444444387C14141408081414187C7C08C6
:10022C000404084854545420043F4440203C4040AB
:10023C00207C1C2040201C3C4030403C4428102892
:10024C00440C5050503C4464544C4400083641001B
:10025C0000007F0000004136080002010204027F0A
:10026C004141417F000103070F1F3F7FFF00FFFF4C
:10027C000000000000000000010002000300040068
:10028C000500060007000800090054616D20647524
:10029C006E670044616E672063686F20616E202E6C
:1002AC002E2E0044616E672063686F20616E2E2EC7
:1002BC002E0080C001002D4E414E00494E460000DC
:1002CC000A0004007A0211003505840209000005B9
:1002DC0096020F000905AF0202004107BE020100A1
:1002EC004707C0020000F894EE27ECBBF1E0F5BF25
:1002FC00E5BFE0936C008DE0A2E0BB27ED938A95FF
:10030C00E9F780E090E1A0E0B1E0ED930197E9F727
:10031C00ECECF2E085919591009761F0A591B59187
:10032C0005901590BF01F00105900D920197E1F732
:10033C00FB01F0CF8BBFEFEFEDBFE0E1EEBFC0E014
:10034C00D5E00C941A02EAEEE09361008C9A8D9A37
:10035C008F9ABC9AC29AC39A979AA79A0895BA93FD
:10036C00AA932897ECE8F0E0E883F983EE81EC7F20
:10037C00EE83EA85E770EE0FEE0F0E2EEE81E37E34
:10038C00E029EE83E885EF770E2EEF81E078E02907
:10039C00EF83DE011ED10C946306A0E10E94750769
:1003AC000E943C070895BA93AA93A881EFEFEA1B29
:1003BC00E1BF22960895AFEFB0E0F5DF0895E0E0DD
:1003CC00E0BFE4E7E3BFE0E0E2BFA0E0B0E0EBDFDA
:1003DC00E0E0EFBDE1E0EEBDECEFEDBDE0EEECBD3D
:1003EC00E4E0E7BFE0E0E0937D0078940895EA93C1
:1003FC00FA93EFB7EA93ECEFEDBDE0EEECBDF20152
:10040C0031962F01E8ECF0E04E165F0614F0442410
:10041C0055244614570414F4AF9A01C0AF98E991CF
:10042C00EFBFF991E9911895E4E0F0E0FA93EA93C3
:10043C00A2E4B0E094DFB1DF86DFC1DFA0E10E946F
:10044C0075070E94F808E0E0EA93EA93A0E00E94A6
:10045C00A507EBE0EA93EAE0EA93AEE10E94C3075A
:10046C007894AF98B39914C00E943C07E1E0AE2E8B
:10047C00DD24A1DF66247724A6E9B2E00E9463089C
:10048C00A0E0B5E00E94DB06A4EFB1E00E944909B0
:10049C00B29902C0AA2009F014C0E1E0DE2EE4E615
:1004AC00F0E03F01AFE9B2E00E946308A9E0B5E0DB
:1004BC000E94DB06A0EDB7E00E9449096624772470
:1004CC00DD24AA2011F4DD2009F003C00E943C07B2
:1004DC0027D1C8CFFFCF0895AA931A93E091650056
:1004EC00EF7EE093650018E0F6DFE981E07821F01B
:1004FC00E0916500E26003C0E0916500ED7FE09360
:10050C006500E981EE0FE983E6DFE0916500E460C8
:10051C00E0936500E0DFE0916500EB7FE093650020
:10052C00115011F7E0916500E061E09365001881CE
:10053C000C94F107AA93E0916500EE7FE0936500BF
:10054C00A881CADF0C94A307AA93E0916500E1602F
:10055C00E0936500A881C0DF0C94A307AA931A93BB
:10056C00E981E695E695E6951E2FE4E5E19FF0011D
:10057C00DF01EA81F0E0EA0FFB1FE0934705F093FF
:10058C004805E12F18810C943808AA93E981E0689A
:10059C00AE2FD0DFE981EA93A981E0DFE064AE2FD2
:1005AC00C9DF0C94F107AA93E981EA93A981EDDFE5
:1005BC00E0914705F0914805E75BFA4FE0810C9418
:1005CC00F107AA930E946A08A881A083BDDF0C944E
:1005DC00A307BA93AA930E949209E0916400E06188
:1005EC000E947508E061E0936500E0916400E460AE
:1005FC000E947508EB7FE0936500E0916400E26077
:10060C00E0936400E0916400E160E0936400E091A9
:10061C006400E8600E947508E77FE0936500AAE03B
:10062C00B0E00E944909E0916500E860E093650044
:10063C00EC81FD81309721F1E681E3701E2FEC8176
:10064C00FD81E681E695E695E7700E2FEC81FD8144
:10065C00E781EF773E2FAC81BD810E946B09E0935F
:10066C001C05F0931D0512960E946B09E093310551
:10067C00F0933205AC81BD8114960E946B090DC0BC
:10068C0010E003E032E3E0E0F0E0E0931C05F093CF
:10069C001D05E0933105F0933205E0933305F0939B
:1006AC003405A1E247DFE12FE460AE2F43DFE02FFA
:1006BC00E061AE2F3FDFE32FE068AE2F3BDFA0E21F
:1006CC0039DFA1E022D0E1E0E0931805E0E0E0930F
:1006DC001905E1E0E0931E05E0931F05E09320056A
:1006EC00EFEFE0932105E1E0E0932805E9E2F5E086
:1006FC00FA93EA93EFEFEA93A8E0B0E00E94D807F0
:10070C000FD0E1E00E94990960C0AA93E881E03023
:10071C0011F0ECE001C0E8E0AE2F0CDF0C94A30765
:10072C000E94920930E0E0911905E03009F03FEFAA
:10073C00E0E0EA93A0E029DF08EF11E0F8010150B6
:10074C001040309719F0A32F3CDFF8CFE0E0EA938C
:10075C00A0E040D30E9499090C945708AA931A93CD
:10076C00ED81EA93AD811FDF1E2FE981E73011F097
:10077C00E83039F4EB81EA93AA810E94F307EB830A
:10078C0008C0E33021F4EB81E095EB8302C0E0304C
:10079C0021F4EA81E0951E2302C0E23029F4EA81BB
:1007AC00AB81EA231E2B0EC0E13029F4EA81AB8128
:1007BC00EA231E2707C0E43029F4EA81E095AB81D7
:1007CC00EA2B1E23A12FFDDE188126960895AA93ED
:1007DC0023970E949009A889A43548F4AF85A033CB
:1007EC0030F4AE85A03019F0AD85A03009F4CCC141
:1007FC00EE85E887A889BB27EE85F0E0AE0FBF1F1A
:10080C00A535E0E0BE0720F0A889E4E5EA1BEE87F9
:10081C002D85AF85BB27ED85F0E0AE0FBF1FD197BF
:10082C0020F0AF85E0E3EA1BED87A985A63009F03F
:10083C005BC0EC85E13009F4A7C1E33039F4E091F9
:10084C003305F0913405309709F49EC10885ED8588
:10085C00E695E695E6953E2FE22FE77019F4AD8507
:10086C002A17E9F0A02FBB27E32FF0E00E946309C1
:10087C00AA85BB850E947A08269526952695532F26
:10088C005F935F5FE22FAF91EA1748F0102FE12FD3
:10089C001150E03019F00E947F08F9CFF1CFAE85EE
:1008AC000A1711F1EE85AA85BB85F0E00E947A0843
:1008BC00ED85E77009F03F5F20E02F932F5FE32F6A
:1008CC00AF91AE1788F41E851F931F5FE02FAF9179
:1008DC00AE1718F40E947F08F7CFEE85AE81BF816A
:1008EC00F0E00E947A08E9CFEF85E7703E2FED85A6
:1008FC00E03009F449C1EA85FB85EE83FF8310E003
:10090C000889303009F063C0AD85A83008F45AC0AE
:10091C00E985E03011F0E33009F402C0E73009F466
:10092C0002C0E83009F402C0E93009F402C0EA3030
:10093C0021F40A93A88929DE04C0E63011F40E9440
:10094C008C081F931F5FEE85AF91AE17A0F5A9859C
:10095C00A63051F40E949008FA93EA930E946A0818
:10096C00A0810E943A0826C0E985E93011F450E0D4
:10097C000EC0EA3011F45FEF0AC00E9490080E948A
:10098C0099085E2FE985E73011F0E83021F40E94D8
:10099C009F085E2F06C0E33011F4509502C0E03082
:1009AC0019F4A52FD1DD06C00E94A308EFEFEA933E
:1009BC00AD85D4DEC6CFEF85E85FEF87ED85E850D7
:1009CC00ED87D9C05D8520E0E0E0ED877EC0E32FA8
:1009DC00AD85AE0FA93020F42D85E0E0ED8703C086
:1009EC00E8E0E31B2E2F3A93A22F0E94E8074E2F2C
:1009FC00E985E63011F50E948C081F931F5FEE8588
:100A0C00AF91AE17C8F40E946A08E081E423AE2FC0
:100A1C00E32F0E945B090E94A908E32FA42F0E94D8
:100A2C005B09E095E1215E2B0E949008FA93EA9312
:100A3C00A52F0E943A08E1CF2CC0E93011F450E008
:100A4C0003C0EA30A9F45FEF0E949F08AE2FE32F9A
:100A5C000E9453095E2F1F931F5FEE85AF91AE1757
:100A6C0030F40E94A3084A93A0E078DEF4CF11C0C2
:100A7C001F931F5FEE85AF91AE1758F40E94B40818
:100A8C00AE2FE32F0E945309EA934A93AD8566DE9D
:100A9C00EFCFED85E03009F477C0AD85A83028F4B0
:100AAC00ED85E21B5E2FE0E003C0532FED85E8508F
:100ABC00ED8710E0EF85E85FEF87E8E0E31B2E2F72
:100ACC000889EA85FB85EE83FF83E52FF0E0E0598A
:100ADC00FD4F4491E985E63011F50E948C081F9377
:100AEC001F5FEE85AF91AE17C8F40E946A08E081D3
:100AFC00E423AE2FE22F0E9453090E94A908E22F93
:100B0C00A42F0E945309E095E1215E2B0E949008CE
:100B1C00FA93EA93A52F0E943A08E1CF2CC0E93052
:100B2C0011F450E003C0EA30A9F45FEF0E949F0873
:100B3C00AE2FE22F0E945B095E2F1F931F5FEE8585
:100B4C00AF91AE1730F40E94A3084A93A0E006DEE2
:100B5C00F4CF11C01F931F5FEE85AF91AE1758F401
:100B6C000E94B408AE2FE22F0E945B09EA934A93CD
:100B7C00AD85F4DDEFCFE885AA85BB85F0E0EA0F03
:100B8C00FB1FEA87FB87B3CE0E94970961960895F5
:100B9C000E94C10824F0E0E0F0E00C94F107A88179
:100BAC00B981A435E0E0BE0724F0E3E5F0E00C9455
:100BBC00F107E881F9810C94F1070E94C10824F037
:100BCC00E0E0F0E00C94F107A881B981D09724F013
:100BDC00EFE2F0E00C94F107E881F9810C94F10755
:100BEC00BA93AA9323970E94C8088F01002E012A5A
:100BFC0019F4E0E0F0E05FC00E94CF080F820E9481
:100C0C00CF080E820E94CF080886EB85A885EA17CC
:100C1C0018F4E0E0F0E04FC0F8010F5F1F4F549163
:100C2C00A885BB27EE27A50FBE1FEB85F0E0EA17C2
:100C3C00FB0718F0E0E0F0E03EC0EE81E695E695AB
:100C4C00E6954E2FEE81E77009F04F5FEF81E030B3
:100C5C00A1F0A985BA85EC93A885EB85EA1BF0E099
:100C6C00DF01EF81F0E00E946309DF01E42FF0E087
:100C7C000E946309E00FF11F1EC09801E52FF0E000
:100C8C000E0F1F1FA885AF5FA887A150EB85AE176D
:100C9C0060F4F9012F5F3F4FA491B0E0E42FF0E036
:100CAC000E9463090E0F1F1FEDCFF901E491A98576
:100CBC00BA85EC93F8010E9497092C960895E0E010
:100CCC00E0931A05A0911B05BB270E94D408F0E005
:100CDC00AE0FBF1FE0911F05F0E0AE0FBF1F6DDF21
:100CEC00E0931B050895AA9321970E94C80830979A
:100CFC0009F455C0AF81AA3009F44FC0EF81EA93D3
:100D0C00DE0117966DDFAF01309709F44AC0E09110
:100D1C001E05AE81EA0F3E2FA0911A05BB27F0E00D
:100D2C00EA0FFB1F8F010535E0E01E0718F0032FBB
:100D3C001127C5DFE0911A05EA93E0911B05EA93B0
:100D4C00E885EA930E94D408EA93E1E0EA935A9387
:100D5C004A93A7E03CDDE0911A05AE81EA0FEA93D5
:100D6C00E0911B05EA93E0911E05EA930E94D408DA
:100D7C000E94DB08E0911A05EA93A0911B050E94E2
:100D8C00D408EA0FEA933A93E0911F050E94DB081E
:100D9C00E4E5F0E0E017F10711F491DF02C00093F5
:100DAC001A050E94970928960895BA93AA931A9344
:100DBC00EC81EA93AC810ED0A981BA81ED91A98323
:100DCC00BA831E2FE03019F0A12F8DDFF5CF1881DB
:100DDC000C94E607AA93A981BB27DADEE0931A05E7
:100DEC00A881BB27EADEE0931B050C94F107AA93BC
:100DFC00E881E07111F0DB9A01C0DB98E881E072C8
:100E0C0011F0DC9A01C0DC98E881E07411F0DD9AF5
:100E1C0001C0DD98E881E07811F0DE9A01C0DE981F
:100E2C008DE08A95F1F7DA9A8DE08A95F1F7DA98E8
:100E3C008DE08A95F1F781C0AA93A881D8DFE8816B
:100E4C00E295E883A881D3DF85E88A95F1F775C030
:100E5C00AA93E881F0E0EF5BF84FE081A981AE0F37
:100E6C00EBDFC980E881E0934507B5C0A2E00E94A2
:100E7C00E508ACE0E1DFA1E00E94E508E0E0E093EA
:100E8C004507CE2E0895AA93A881AA3021F0E091AF
:100E9C004607CE1660F0E0E0EA93A0914507AF5FFD
:100EAC00A0934507D5DFA881AA3009F446C0C394A6
:100EBC00D89AA881C1DFD89840C0BA93AA931A9344
:100ECC00E981FA813196E983FA833197E4911E2FF7
:100EDC00E03019F0A12FD7DFF3CF1881C3C0AA934C
:100EEC00D39AD49AD59AD69AD29AD09AD19ADA9889
:100EFC00D898D998E881E0934607E058E0934307E7
:100F0C00E881E054E0934407A4E1B0E00E94490971
:100F1C000E94EB080E94EB080E94EB08A0E267DF3E
:100F2C0088EC90E00197F1F7A8E286DFA4E084DF7B
:100F3C00A5E882DFA6E080DF99DF21960895AA93C9
:100F4C00EA81E370EA83E981E03019F0EA81E0613B
:100F5C00EA83E881E03019F0EA81E068EA830E94D4
:100F6C00FD08A0ED0E943109A7E00E943109AA8179
:100F7C000E9431090E940C0975C0AA930E94FD08B9
:100F8C00A0ED0E943109A0E00E943109A8810E94C5
:100F9C00F308A9810E94F308AA810E94F3080E9419
:100FAC000C0960C0BA93AA93B981A881109631F04C
:100FBC00FC81EB816A8161931197E9F7EB81FC81EC
:100FCC0025960895AA93E881F0E0E059FD4FA4918D
:100FDC00E9810E94530922960895AA931A93E981F4
:100FEC00E73011F0EA3019F41091180509C0E93016
:100FFC0019F41091190504C0E830A1F410912805DA
:10100C00E0911905E03049F0103019F0EFEF18813C
:10101C0029C0EA81E095188125C0103019F4E0E070
:10102C00188120C0EA8118811DC0BA93AA93EA8165
:10103C00E13021F4E881F981E49114C0E23029F423
:10104C00A881B9810E946F090DC0E33041F4A881D9
:10105C00B981E0913105F0913205099503C0A88161
:10106C00B981EC9123960895AA93EB81E03029F491
:10107C00E881A981BA81EC9314C0E23031F4E881A3
:10108C00A981BA810E947B090CC0E33051F4E9813B
:10109C00FA81FA93EA93AA81E0913305F091340531
:1010AC00099524960895AA93A991EE27AA5012F0B7
:1010BC00E05FFCCFA65FEA0F08950E946307EEE1A4
:1010CC00EA93E9E1EA930895A7E4B5E0ED91FD9187
:1010DC003196FE93EE933197E75BFA4F0895E093C8
:1010EC006400E09165000895EA0FFB1FEE83FF8317
:1010FC000895EC85EA93EF81F8853196EF83F887B4
:10110C003197FA93EA93A0E00C943A080A93A889D1
:10111C000C94B402EC85EA93EF81F8853196EF8359
:10112C00F8873197089566277727DF01CB010C9458
:10113C001B085A93AA850C94F3070A930395E88924
:10114C00EA935A9308955E2FEC85EA93AF81B885A4
:10115C00882799270E941B081E2E08950A93039531
:10116C00E889EA93EE85EA93E985FA853196E98771
:10117C00FA873197D8CFBA93AA93A881B9810E94E4
:10118C008C0908950E949009E0911C05F0911D05B1
:10119C000895F8010F5F1F4F04900895E0911C050E
:1011AC00F0911D053196E4910895EA93E0E0EA93FD
:1011BC00E0E0F0E0FA93EA93A9E00C94ED030E94CE
:1011CC002207A3E0B0E00C944909A0E30E94FD06BD
:1011DC0088EC90E00197F1F708950E945908AE2F22
:1011EC000C9431091E981F98169A179815C01798C9
:1011FC001698EE2700000F9B08950E9B089504D0BF
:10120C00179A02D0169AE1E06DE007C0179A169A69
:10121C0003D01698F9DF17986BE16A95F1F70895EA
:10122C0078E01698F1DF0E9BFECFEEDF88940F99D5
:10123C000894169AF1DFEE1F7A9599F77A2F772397
:10124C0011F4179801C0179ADFDF1698E5DF169A8C
:10125C00DBDF1798D9CF78E0AA0F10F4179801C0EC
:10126C00179ADADF1698D0DF0E9BFECFCDDF169AD9
:10127C007A9591F71798C8DF1698CEDFE1E00F99B1
:10128C00EE27169AC1CF109639F080ED97E00197B2
:10129C00F1F7A8951197C9F70895EE230E2EEA2FB2
:1012AC0019F0EE0F0A94E9F70895EE230E2EEA2FAB
:1012BC0019F0E6950A94E9F70895FA9FF02DEB9F43
:1012CC00F00DEA9FE02DF10D0895ED91FC91119731
:1012DC000895E199FECFFF93FFB7F894AEBBBFBB67
:1012EC00E09AEDB3FFBFFF910895E19B02C0A89572
:1012FC00FCCF9FB7F894AEBBBFBBE09A8DB3E81799
:10130C0019F0EDBBE29AE19A9FBF089500240A16EA
:10131C000B0608955A934A933A932A931A930A9375
:10132C0008955D814C813B812A8119810881089542
:00000001FF
