:020000000C945E
:100002006D010C9400000C9400000C9400000C9400
:1000120000000C9400000C9400000C9400000C945E
:1000220000000C9400000C9400000C9400000C944E
:1000320000000C9400000C9400000C9400000C943E
:10004200C2010C9400000C9400000C9400000C946B
:1000520000000C9400000C9400000C9400000C941E
:1000620000000C9400000C9400000C9400000C940E
:1000720000000C9400000C9400000C9400000C94FE
:1000820000000C9400000C940000050720600000A2
:1000920000000000005F00000007000700147F144A
:1000A2007F14242A7F2A12231308646236495522B8
:1000B200500005030000001C2241000041221C00E8
:1000C200082A1C2A0808083E0808005030000008C8
:1000D20008080808003030000020100804023E51D1
:1000E20049453E00427F4000426151494621414517
:1000F2004B311814127F1027454545393C4A49496E
:100102003001710905033649494936064949291E14
:100112000036360000005636000000081422411452
:100122001414141441221408000201510906324920
:1001320079413E7E1111117E7F494949363E414146
:1001420041227F4141221C7F494949417F090901DE
:10015200013E414151327F0808087F00417F410042
:100162002040413F017F081422417F404040407FB0
:100172000204027F7F0408107F3E4141413E7F0915
:100182000909063E4151215E7F091929464649491E
:10019200493101017F01013F4040403F1F20402083
:1001A2001F7F2018207F631408146303047804035C
:1001B200615149454300007F41410204081020413A
:1001C200417F00000402010204404040404000011F
:1001D20002040020545454787F484444383844443C
:1001E2004420384444487F3854545418087E090146
:1001F20002081454543C7F0804047800447D4000F3
:100202002040443D00007F10284400417F40007C94
:10021200041804787C0804047838444444387C1474
:10022200141408081414187C7C0804040848545454
:100232005420043F4440203C4040207C1C2040206D
:100242001C3C4030403C44281028440C5050503C48
:100252004464544C44000836410000007F00000012
:100262004136080002010204027F4141417F10270A
:10027200E80364000A000100001000011000010000
:10028200000103070F1F3F7FFF000009000001006C
:100292000200030004000500060007000800090030
:1002A20043686F20616E00436875616E2062690069
:1002B20080C001002D4E414E00494E460000030011
:1002C20007008C0211001D05900202004D05B202CA
:1002D20001004E07B4020000F894EE27ECBBF1E0F7
:1002E200F5BFE5BFE0936C008DE0A2E0BB27ED9384
:1002F2008A95E9F780E090E1A0E0B1E0ED93019703
:10030200E9F7E0ECF2E085919591009761F0A59113
:10031200B59105901590BF01F00105900D920197DE
:10032200E1F7FB01F0CF8BBFEFEFEDBFE0E1EEBFF6
:10033200C0E0D5E00C94CE02BA93AA932897ECE8D9
:10034200F0E0E883F983EE81EC7FEE83EA85E770E3
:10035200EE0FEE0F0E2EEE81E37EE029EE83E885AE
:10036200EF770E2EEF81E078E029EF83DE010E9425
:10037200DD042C960895A0E10E94EC030E94A903DB
:1003820008950A921A92FA926A937A938A939A93A6
:10039200AA93BA93EA93FA93EFB7EA93E6E0E2BF3D
:1003A200F50131965F01E8EEF3E0EA15FB0519F479
:1003B200E1E0F0E02F01E0EDF7E0EA15FB0521F4C2
:1003C200AA24BB2444245524772029F1F60131962E
:1003D2006F01082C092849F40E94A9037724CC2430
:1003E200DD24A2EAB2E00E94D903E8EEF3E0EC15C4
:1003F200FD0589F4CC24DD24A82DA05D0E94B7035D
:10040200F40131974F010E94A3090E94A903A9EAAE
:10041200B2E00E94D903E991EFBFF991E991B99154
:10042200A9919991899179916991F990199009907D
:100432001895BA93AA93EA81FB81309731F40E940E
:10044200A909E9EFE2BBEFE7EBBBAA81BB811197F8
:1004520021F4E881EA570E94AE09AA81BB81129772
:1004620041F4E881EC57E0936200E1EFE2BBEFEF89
:10047200EBBBAA81BB81139751F4E881EC57E0935F
:100482006200E5EFE2BBE0E0E3B9EFE7EBBBAA8194
:10049200BB81149741F4E881EE57E0936200E7EFE5
:1004A200E2BBEFE7EBBBAA81BB81159741F4E88180
:1004B200E056E0936200E5EFE2BBEFE7EBBBAA8117
:1004C200BB81169741F4E881E056E0936200E1EFC8
:1004D200E2BBEFE7EBBBAA81BB81179721F4E8816E
:1004E200EC570E94AE09AA81BB81189731F40E9491
:1004F200A909E1EFE2BBEFE7EBBBAA81BB81199748
:1005020031F40E94A909E5EFE2BBEFE7EBBBAA8158
:10051200BB811A9739F4E881EA5DE0936200EFEF5C
:10052200E2BBEBBBA1E0B0E00E94CF0A34C0BA93B9
:10053200AA93E0E0EA93A0E0FAD0AA81BB810E94EC
:10054200B509AA81BB810E94BD09AAE30FD1A88186
:10055200B9810E94B509A881B9810E94BD091BC059
:10056200BA93AA930E9484050E94C5090E94CA09EF
:10057200E0913305F09134050E94CA09AAE30E9472
:1005820067080E94D4090E94CA09E0913705F091D8
:1005920038050E94CA0924960895BA98C29AEFEFC4
:1005A200E0936100E1BBD79AE0E0E0BFE3E0E3BFA4
:1005B200E6E0E2BFE0E0E1BFE1E0E7BFE0E0E093D8
:1005C2007D000E947E0AD7DEE3E0EA93E1E0EA934F
:1005D200A0E00E941C04E4E0F0E0FA93EA93A2E4B3
:1005E200B0E0AADE7894B29908C00E94A309E1E0C3
:1005F2007E2EAAEFB0E00E94CF0A772009F062C0F7
:10060200E6E0F0E0FA93EA93EFE2F5E0FA93EA9398
:10061200A0E3B5E00E943B04A62DB0E0EAE0F0E0E2
:100622000E940D0BE0933105F0933205662D77277A
:100632000E94C5090E94D909A0933305B0933405DD
:10064200A0912F05B0E0EAE0F0E00E940D0BE093EC
:100652003505F093360560912F0577270E94D4095E
:100662000E94D909A0933705B09338050E94E10989
:100672005EDF0E94E10974DF0E94C509FA93EA93E2
:10068200A1E0B0E0D6DEE0913305F09134050E949E
:10069200E909E1E0F0E0E415F50521F4EAE0F0E033
:1006A2000E94E9090E94D409FA93EA93A0E1B0E01A
:1006B200C0DEE0913705F0913805FA93EA93A0E4A1
:1006C200B0E0B7DE90CFFFCFAA93E881E07111F0DE
:1006D200DB9A01C0DB98E881E07211F0DC9A01C07C
:1006E200DC98E881E07411F0DD9A01C0DD98E881C0
:1006F200E07811F0DE9A01C0DE988DE08A95F1F77C
:10070200DA9A8DE08A95F1F7DA988DE08A95F1F719
:100712000C948205AA93A881D7DFE881E295E88349
:10072200A881D2DF85E88A95F1F70C948205AA9315
:10073200E881F0E0E35BFA4FE081A981AE0FEADFE6
:10074200E981E0935105E881E09352050C943B095D
:10075200A2E00E94EF09ACE0DDDFA1E00E94EF0918
:10076200E0E0E0935205E09351050895AA93A88131
:10077200AA3031F0E0915305A0915105AE1768F00F
:10078200E0E0EA93A0915205AF5FA0935205CFDF5C
:10079200A881AA3011F40C948205E0915105EF5F13
:1007A200E0935105D89AA881B5DFD8980C948205B8
:1007B200BA93AA931A93E981FA813196E983FA836B
:1007C2003197E4911E2FE03019F0A12FCFDFF3CF44
:1007D20018810C948209AA93D39AD49AD59AD69A5C
:1007E200D29AD09AD19ADA98D898D998E881E09397
:1007F2005305E058E0934F05E881E054E09350053B
:10080200A4E1B0E00E94CF0A0E94F5090E94F50916
:100812000E94F509A0E258DF88EC90E00197F1F719
:10082200A8E278DFA4E076DFA5E874DFA6E072DF55
:100832008FDF0C948205AA93EA81E370EA83E9814F
:10084200E03019F0EA81E061EA83E881E03019F0F2
:10085200EA81E068EA830E94830AA0ED0E94B70A57
:10086200A7E00E94B70AAA810E94B70A0E94920AD0
:100872000C948209BA93AA930E94830AA0ED0E9463
:10088200B70AA0E00E94B70A0E94920A0E94830A55
:10089200A1ED0E94B70A0E94FD09A881B981EC93DB
:1008A2000E94FD09AA81BB81EC93A0E00E949C0AF0
:1008B200AE2F0E942509AC81BD81EC930E94920A61
:1008C20077C10895AA931A93E0916500EF7EE093B1
:1008D200650018E0F6DFE981E07821F0E09165003B
:1008E200E26003C0E0916500ED7FE0936500E9817D
:1008F200EE0FE983E6DFE0916500E460E0936500D6
:10090200E0DFE0916500EB7FE0936500115011F7A5
:10091200E0916500E061E093650018810C943B0969
:10092200AA93E0916500EE7FE0936500A881CADF9B
:10093200E8C0AA93E0916500E160E0936500A881B8
:10094200C1DFDFC0AA931A93E981E695E695E695A1
:100952001E2FE4E5E19FF001DF01EA81F0E0EA0FFA
:10096200FB1FE0935405F0935505E12F18810C9479
:100972008209AA93E981E068AE2FD2DFE981EA9386
:10098200A981E0DFE064AE2FCBDF0C943B09AA9390
:10099200E981EA93A981EDDFE0915405F0915505D3
:1009A200EA5AFA4FE0810C943B09AA930E94030A87
:1009B200A881A083BEDFA5C0BA93AA930E94550B5B
:1009C200E0916400E0610E940E0AE061E09365003C
:1009D200E0916400E4600E940E0AEB7FE093650000
:1009E200E0916400E260E0936400E0916400E16001
:1009F200E0936400E0916400E8600E940E0AE77FE1
:100A0200E0936500AAE0B0E00E94CF0AE0916500A1
:100A1200E860E0936500EC81FD81309721F1E68189
:100A2200E3701E2FEC81FD81E681E695E695E77085
:100A32000E2FEC81FD81E781EF773E2FAC81BD81E6
:100A42000E942E0BE0930405F093050512960E9476
:100A52002E0BE0931905F0931A05AC81BD81149613
:100A62000E942E0B0DC010E003E032E3E0E0F0E064
:100A7200E0930405F0930505E0931905F0931A0538
:100A8200E0931B05F0931C05A1E24ADFE12FE4602D
:100A9200AE2F46DFE02FE061AE2F42DFE32FE068AA
:100AA200AE2F3EDFA0E23CDFA1E022D0E1E0E09306
:100AB2000005E0E0E0930105E1E0E0930605E09344
:100AC2000705E0930805EFEFE0930905E1E0E09305
:100AD2001005E1E1F5E0FA93EA93EFEFEA93A8E07B
:100AE200B0E00E9415090FD0E1E00E945C0B60C0EB
:100AF200AA93E881E03011F0ECE001C0E8E0AE2F0B
:100B02000FDF219608950E94550B30E0E091010518
:100B1200E03009F03FEFE0E0EA93A0E02ADF08EFDF
:100B220011E0F80101501040309719F0A32F3DDF7A
:100B3200F8CFE0E0EA93A0E03CD30E945C0B0C9477
:100B4200A109AA931A93ED81EA93AD8120DF1E2FAA
:100B5200E981E73011F0E83039F4EB81EA93AA81B8
:100B62000E943D09EB8308C0E33021F4EB81E0955C
:100B7200EB8302C0E03021F4EA81E0951E2302C03B
:100B8200E23029F4EA81AB81EA231E2B0EC0E13068
:100B920029F4EA81AB81EA231E2707C0E43029F455
:100BA200EA81E095AB81EA2B1E23A12FFEDE18819C
:100BB20026960895AA9323970E94530BA889A435D9
:100BC20048F4AF85A03330F4AE85A03019F0AD857E
:100BD200A03009F4CCC1EE85E887A889BB27EE8551
:100BE200F0E0AE0FBF1FA535E0E0BE0720F0A889F8
:100BF200E4E5EA1BEE872D85AF85BB27ED85F0E0A6
:100C0200AE0FBF1FD19720F0AF85E0E3EA1BED875F
:100C1200A985A63009F05BC0EC85E13009F4A7C1D3
:100C2200E33039F4E0911B05F0911C05309709F48B
:100C32009EC10885ED85E695E695E6953E2FE22F65
:100C4200E77019F4AD852A17E9F0A02FBB27E32F2F
:100C5200F0E00E94ED0AAA85BB850E94130A269540
:100C620026952695532F5F935F5FE22FAF91EA1788
:100C720048F0102FE12F1150E03019F00E94180AAD
:100C8200F9CFF1CFAE850A1711F1EE85AA85BB85A2
:100C9200F0E00E94130AED85E77009F03F5F20E063
:100CA2002F932F5FE32FAF91AE1788F41E851F930A
:100CB2001F5FE02FAF91AE1718F40E94180AF7CF0A
:100CC200EE85AE81BF81F0E00E94130AE9CFEF8585
:100CD200E7703E2FED85E03009F449C1EA85FB85D6
:100CE200EE83FF8310E00889303009F063C0AD85E0
:100CF200A83008F45AC0E985E03011F0E33009F475
:100D020002C0E73009F402C0E83009F402C0E93059
:100D120009F402C0EA3021F40A93A8892ADE04C049
:100D2200E63011F40E94250A1F931F5FEE85AF91F2
:100D3200AE17A0F5A985A63051F40E94290AFA93AC
:100D4200EA930E94030AA0810E94840926C0E985D1
:100D5200E93011F450E00EC0EA3011F45FEF0AC03E
:100D62000E94290A0E94320A5E2FE985E73011F0BB
:100D7200E83021F40E94380A5E2F06C0E33011F4F5
:100D8200509502C0E03019F4A52FD3DD06C00E94B1
:100D92003C0AEFEFEA93AD85D4DEC6CFEF85E85F7C
:100DA200EF87ED85E850ED87D9C05D8520E0E0E072
:100DB200ED877EC0E32FAD85AE0FA93020F42D85DF
:100DC200E0E0ED8703C0E8E0E31B2E2F3A93A22F69
:100DD2000E9432094E2FE985E63011F50E94250A5C
:100DE2001F931F5FEE85AF91AE17C8F40E94030AEE
:100DF200E081E423AE2FE32F0E94E50A0E94420A1B
:100E0200E32FA42F0E94E50AE095E1215E2B0E94C8
:100E1200290AFA93EA93A52F0E948409E1CF2CC0F4
:100E2200E93011F450E003C0EA30A9F45FEF0E9408
:100E3200380AAE2FE32F0E94DD0A5E2F1F931F5F39
:100E4200EE85AF91AE1730F40E943C0A4A93A0E0BF
:100E520078DEF4CF11C01F931F5FEE85AF91AE17FE
:100E620058F40E944D0AAE2FE32F0E94DD0AEA9346
:100E72004A93AD8566DEEFCFED85E03009F477C0A9
:100E8200AD85A83028F4ED85E21B5E2FE0E003C0BB
:100E9200532FED85E850ED8710E0EF85E85FEF878F
:100EA200E8E0E31B2E2F0889EA85FB85EE83FF83AA
:100EB200E52FF0E0EE57FD4F4491E985E63011F55C
:100EC2000E94250A1F931F5FEE85AF91AE17C8F4EB
:100ED2000E94030AE081E423AE2FE22F0E94DD0A82
:100EE2000E94420AE22FA42F0E94DD0AE095E1212E
:100EF2005E2B0E94290AFA93EA93A52F0E94840985
:100F0200E1CF2CC0E93011F450E003C0EA30A9F47B
:100F12005FEF0E94380AAE2FE22F0E94E50A5E2F91
:100F22001F931F5FEE85AF91AE1730F40E943C0A0B
:100F32004A93A0E006DEF4CF11C01F931F5FEE8537
:100F4200AF91AE1758F40E944D0AAE2FE22F0E94C5
:100F5200E50AEA934A93AD85F4DDEFCFE885AA85E9
:100F6200BB85F0E0EA0FFB1FEA87FB87B3CE0E9446
:100F72005A0B619608950E945A0A24F0E0E0F0E0CC
:100F82000C943B09A881B981A435E0E0BE0724F0A6
:100F9200E3E5F0E00C943B09E881F9810C943B090C
:100FA2000E945A0A24F0E0E0F0E00C943B09A88188
:100FB200B981D09724F0EFE2F0E00C943B09E8818C
:100FC200F9810C943B09BA93AA9323970E94610A70
:100FD2008F01002E012A19F4E0E0F0E05FC00E94C8
:100FE200680A0F820E94680A0E820E94680A0886B6
:100FF200EB85A885EA1718F4E0E0F0E04FC0F801AD
:101002000F5F1F4F5491A885BB27EE27A50FBE1F68
:10101200EB85F0E0EA17FB0718F0E0E0F0E03EC0F5
:10102200EE81E695E695E6954E2FEE81E77009F0A2
:101032004F5FEF81E030A1F0A985BA85EC93A885D6
:10104200EB85EA1BF0E0DF01EF81F0E00E94ED0AA0
:10105200DF01E42FF0E00E94ED0AE00FF11F1EC055
:101062009801E52FF0E00E0F1F1FA885AF5FA8873C
:10107200A150EB85AE1760F4F9012F5F3F4FA491A9
:10108200B0E0E42FF0E00E94ED0A0E0F1F1FEDCF3B
:10109200F901E491A985BA85EC93F8010E945A0BF3
:1010A2002C960895E0E0E0930205A0910305BB278A
:1010B2000E946D0AF0E0AE0FBF1FE0910705F0E05D
:1010C200AE0FBF1F6DDFE09303050895AA9321972A
:1010D2000E94610A309709F455C0AF81AA3009F421
:1010E2004FC0EF81EA93DE0117966DDFAF013097B3
:1010F20009F44AC0E0910605AE81EA0F3E2FA091A5
:101102000205BB27F0E0EA0FFB1F8F010535E0E087
:101112001E0718F0032F1127C5DFE0910205EA939D
:10112200E0910305EA93E885EA930E946D0AEA9347
:10113200E1E0EA935A934A93A7E03CDDE09102058D
:10114200AE81EA0FEA93E0910305EA93E091060586
:10115200EA930E946D0A0E94740AE0910205EA93E2
:10116200A09103050E946D0AEA0FEA933A93E09177
:1011720007050E94740AE4E5F0E0E017F10711F4B4
:1011820091DF02C0009302050E945A0B289608952F
:10119200BA93AA931A93A981BA81ED91A983BA83CA
:1011A2001E2FE03019F0A12F91DFF5CF18810C949A
:1011B2008209AA93A981BB27DEDEE0930205A881FA
:1011C200BB27EEDEE09303050C943B09BA93AA9386
:1011D200A991B991E991F99130962AF4E095F095A7
:1011E20031966DE26D93E89480E197E20DD088EE3E
:1011F20093E00AD084E6992707D08AE005D06E2FC3
:1012020010D066276C9308956627E817F90720F037
:101212006395E81BF90BC9F7662311F416F00895DC
:101222006894605D6D930895BA93AA93B981A88179
:10123200109631F0FC81EB816A8161931197E9F795
:10124200EB81FC8125960895AA93E881E295EF70DF
:10125200AE2FAA0FAA0FEA0FEE0FA991AF70EA0FF5
:101262000895AA93E881F0E0EE57FD4FA491E98139
:101272000E94DD0A22960895AA931A93E981E73023
:1012820011F0EA3019F41091000509C0E93019F49F
:101292001091010504C0E830A1F410911005E0910D
:1012A2000105E03049F0103019F0EFEF188129C044
:1012B200EA81E095188125C0103019F4E0E0188128
:1012C20020C0EA8118811DC0BA93AA93EA81E13055
:1012D20021F4E881F981E49114C0E23029F4A88173
:1012E200B9810E94320B0DC0E33041F4A881B9816B
:1012F200E0911905F0911A05099503C0A881B981F9
:10130200EC9123960895AA93EB81E03029F4E881C9
:10131200A981BA81EC9314C0E23031F4E881A98149
:10132200BA810E943E0B0CC0E33051F4E981FA818C
:10133200FA93EA93AA81E0911B05F0911C050995A5
:10134200249608959A928A92A0E4B0E00C941A022C
:10135200E881E058E09362000895E0936200EFEFC5
:10136200E2BBEFE7EBBB0895EAE0F0E00E940D0B71
:10137200E05DAE2F0C94B703EAE0F0E00E94120B9E
:10138200E05DAE2F0C94B703E0913105F091320588
:101392000895FA93EA93A9E3B5E00E94E708A9E366
:1013A200B5E00C94C908E0913505F0913605089531
:1013B200AAE0B0E00E94F50ADB01AE1BBF0B089564
:1013C200E62DF0E0FA93EA93A0912F05BB2708954A
:1013D200FA93EA93A8E0B0E00C941A020E948B03FD
:1013E200A3E0B0E00C94CF0AA0E30E94650388EC6E
:1013F20090E00197F1F70895A1E00E949C0AAE2FB8
:101402000C942509A4E5B5E0ED91FD913196FE938A
:10141200EE933197EA5AFA4F0895E0936400E0910F
:1014220065000895EA0FFB1FEE83FF830895EC85A4
:10143200EA93EF81F8853196EF83F8873197FA9333
:10144200EA93A0E00C9484090A93A8890C94A3045B
:10145200EC85EA93EF81F8853196EF83F88731972F
:10146200089566277727DF01CB010C9465095A930B
:10147200AA850C943D090A930395E889EA935A9345
:1014820008955E2FEC85EA93AF81B8858827992766
:101492000E9465091E2E08950A930395E889EA932E
:1014A200EE85EA93E985FA853196E987FA873197DD
:1014B200D8CFBA93AA93A881B9810E944F0B0895FD
:1014C2000E94530BE0910405F09105050895F8017F
:1014D2000F5F1F4F04900895E0910405F0910505F8
:1014E2003196E4910895EA93E0E0EA93E0E0F0E0D7
:1014F200FA93EA93A9E00C94DB051E981F98169ABA
:10150200179815C017981698EE2700000F9B08959C
:101512000E9B089504D0179A02D0169AE1E06DE06E
:1015220007C0179A169A03D01698F9DF17986BE13D
:101532006A95F1F7089578E01698F1DF0E9BFECFD9
:10154200EEDF88940F990894169AF1DFEE1F7A95D0
:1015520099F77A2F772311F4179801C0179ADFDFD2
:101562001698E5DF169ADBDF1798D9CF78E0AA0F35
:1015720010F4179801C0179ADADF1698D0DF0E9B85
:10158200FECFCDDF169A7A9591F71798C8DF169895
:10159200CEDFE1E00F99EE27169AC1CF109639F00F
:1015A20080ED97E00197F1F7A8951197C9F7089593
:1015B200F195E195F0400895EE230E2EEA2F19F0F1
:1015C200EE0F0A94E9F70895EE230E2EEA2F19F092
:1015D200E6950A94E9F70895FA9FF02DEB9FF00D36
:1015E200EA9FE02DF10D08952AD0F6DF0EF4E0DF38
:1015F20008950024112490E1AA0FBB1F001C111CA6
:101602000E1A1F0A18F40E0E1F1E01C0A1609A9531
:1016120099F7FD01D001089512D0EBDF0EF4C8DF77
:101622000895E894B7FF04C0A095B0951196689408
:10163200F7FDBEDFDEDFFD010EF4BADF0895E894A8
:10164200F7FF02C0B5DF6894B7FF06C0A095B0955A
:10165200119600F8039400FA0895ED91FC91119708
:101662000895E199FECFFF93FFB7F894AEBBBFBBDD
:10167200E09AEDB3FFBFFF910895E19B02C0A895E8
:10168200FCCF9FB7F894AEBBBFBBE09A8DB3E8170F
:1016920019F0EDBBE29AE19A9FBF089500240A1661
:1016A2000B0608955A934A933A932A931A930A93EC
:1016B20008955D814C813B812A81198108810895B9
:00000001FF
