:080000000C9490010C94000027
:100008000C9400000C9400000C9400000C94000068
:100018000C9400000C9400000C9400000C94000058
:100028000C9400000C9400000C9400000C94000048
:100038000C9400000C9400000C94C0010C94000077
:100048000C9400000C9400000C9400000C94000028
:100058000C9400000C9400000C9400000C94000018
:100068000C9400000C9400000C9400000C94000008
:100078000C9400000C9400000C9400000C940000F8
:100088000C94000005072060000000000000005FDD
:1000980000000007000700147F147F14242A7F2A19
:1000A80012231308646236495522500005030000E4
:1000B800001C2241000041221C00082A1C2A0808B2
:1000C800083E0808005030000008080808080030FA
:1000D80030000020100804023E5149453E00427F8E
:1000E800400042615149462141454B311814127F65
:1000F8001027454545393C4A4949300171090503EE
:100108003649494936064949291E00363600000055
:100118005636000000081422411414141414412205
:100128001408000201510906324979413E7E111135
:10013800117E7F494949363E414141227F41412252
:100148001C7F494949417F090901013E414151321A
:100158007F0808087F00417F41002040413F017F20
:10016800081422417F404040407F0204027F7F0400
:1001780008107F3E4141413E7F090909063E415131
:10018800215E7F09192946464949493101017F0104
:10019800013F4040403F1F2040201F7F2018207F04
:1001A8006314081463030478040361514945430048
:1001B800007F4141020408102041417F00000402F1
:1001C8000102044040404040000102040020545411
:1001D80054787F4844443838444444203844444898
:1001E8007F3854545418087E090102081454543CAA
:1001F8007F0804047800447D40002040443D00000E
:100208007F10284400417F40007C041804787C0853
:1002180004047838444444387C141414080814142A
:10022800187C7C080404084854545420043F444073
:10023800203C4040207C1C2040201C3C4030403C5E
:1002480044281028440C5050503C4464544C4400FA
:100258000836410000007F00000041360800020116
:100268000204027F4141417F000103070F1F3F7FC6
:10027800FF001027E80364000A00010000100001D5
:10028800100001000000000000000100020003004F
:1002980004000500060007000800090050415353F8
:1002A800574F52443F004E4F3F005041535345442F
:1002B800004E455720504153533F00534156454443
:1002C800000001002D4E414E00494E460000060038
:1002D80004008C0211006A0592020A000005A402BB
:1002E8000A000A05A4020A001405A4020A001E0551
:1002F800A40204002805AE0207002C05B2020A0079
:100308003305B9020A003D05B90206004705C302D4
:1003180001008007CA020000F894EE27ECBBF1E068
:10032800F5BFE5BFE0936C008DE0A2E0BB27ED933D
:100338008A95E9F780E090E1A0E0B1E0ED930197BC
:10034800E9F7E6EDF2E085919591009761F0A591C6
:10035800B59105901590BF01F00105900D92019798
:10036800E1F7FB01F0CF8BBFEFEFEDBFE0E1EEBFB0
:10037800C0E0D5E00C9413030A92EA93FA93EFB71E
:10038800EA93E6E0E2BFE3E0F0E04E165F06BCF079
:10039800E0EDF7E0E615F70511F466247724062C5E
:1003A800072811F49498959AE8EEF3E0E615F70516
:1003B80011F49598949AF30131963F0102C09498EC
:1003C8009598E991EFBFF991E991099018950E94E4
:1003D800C80930E03330A0F5303019F4EDEFE09380
:1003E8006200313019F4E7EFE0936200323019F41B
:1003F800EFEDE093620000E0033000F5003041F4D7
:10040800E0B1E4701E2F143019F00E94AC0831C01E
:10041800013041F4E0B1E0711E2F103119F00E9453
:10042800AC0827C0023041F4E0B1E1701E2F113052
:1004380019F00E94AC081DC00F5FDECF3F5FCACF26
:10044800EFEFFFEF0E94CF0914C00E94BD08AC81F6
:10045800BD810E94DB07A881B981AF3FEFEFBE07DE
:1004680041F0E881F9810E94C608ACE7B5E00E9436
:10047800DB07249608950E94BD08AE81BF810E94C3
:10048800DB07AA81BB81AF3FEFEFBE0741F0E881F0
:10049800EA93EEE1EA93AC81BD810E94DB070C94FC
:1004A800EB040E94BD08A885B9850E94DB07AC81D2
:1004B800BD81AF3FEFEFBE0781F0EC81FD810E9467
:1004C800C608AA81BB810E94DB07EA81EA93EEE1B4
:1004D800EA93ACE7B5E00E94DB070C94D9072497B0
:1004E800E6E7EA83E0E0EB830E94C6090E94D008B1
:1004F800A0E0B0E00E949909EE83FF83AE81BF813E
:10050800A436E0E0BE0720F0A83EE3E0BE0708F00E
:1005180004C0EE81FF81E887F98788249924E8855B
:10052800F985E417F50709F466C02397E0E2E88344
:10053800E983EA83E0E0F5E00E94D708E3E0F0E031
:10054800E017F107A9F10E94DD0889F10F5F1F4F3D
:10055800AAE0A49FF001A59FF00DE20FF31FAF01E1
:10056800EAE0F5E00E94E908E4E1F5E0FA93EA93AD
:100578003A932A93F80131970E9488097E96E00FF2
:10058800F11FFA93EA93DE0116968BDFF801319793
:10059800DE01AE0FBF1FEAE2EC93A4EFB1E00E94C8
:1005A8006E09EEE1F5E00E94E9082FEF3FEFC6CFB4
:1005B800EB85FC85E417F50791F0B4D1EFE0EA93F9
:1005C800E4E1EA93A8E2B5E00E94DB070E94D008C4
:1005D800A0E2B3E00E946E09F40131964F01F201E6
:1005E80031962F01E3E0F0E0E415F50511F4A39A44
:1005F800AB9A239694CF44245524A4EFB1E00E94EB
:100608006E0990D1AB98EFE0EA93E4E1EA93ACE2AB
:10061800B5E00E94DB070E94CD092A960895289725
:1006280000E010E040E050E0ECE8F0E0E883F98317
:10063800EE81EC7FEE83E37EE061EE83EF81E0788C
:10064800E264EF83DE01C7D0EAEEE09361008D9AA1
:100658008C9AE0E0E0BFE3E0E3BFE6E0E2BFE0E081
:10066800E1BFE1E0E7BFE0E0E0937D007894A0E03F
:10067800B0E0EBE7F0E00E94A90931DFACEDB5E0AE
:100688000E946E09E3E3F5E00E94D708E3E0F0E09A
:10069800E417F507B1F00E94DD0891F04F5F5F4F56
:1006A800AAE0A09FF001A19FF00DE20FF31F8F01B8
:1006B800EDE3F5E0FA93EA93D801C7DE2FEF3FEFB9
:1006C800E5CFF801A0E0B0E00E94A909A0E2B3E0FC
:1006D8000E946E09E7E4F5E00E94D708FFCFFFCF3C
:1006E8000895AA931A93E0916500EF7EE093650060
:1006F80018E0F6DFE981E07821F0E0916500E2603A
:1007080003C0E0916500ED7FE0936500E981EE0F9D
:10071800E983E6DFE0916500E460E0936500E0DFEF
:10072800E0916500EB7FE0936500115011F7E091CF
:100738006500E061E093650018810C944408AA9371
:10074800E0916500EE7FE0936500A881CADFE8C00C
:10075800AA93E0916500E160E0936500A881C1DF9C
:10076800DFC0AA931A93E981E695E695E6951E2FD0
:10077800E4E5E19FF001DF01EA81F0E0EA0FFB1F09
:10078800E0938605F0938705E12F18810C948B0878
:10079800AA93E981E068AE2FD2DFE981EA93A981C3
:1007A800E0DFE064AE2FCBDF0C944408AA93E98124
:1007B800EA93A981EDDFE0918605F0918705E85776
:1007C800FA4FE0810C944408AA930E94F308A88188
:1007D800A083BEDFA5C0BA93AA930E94C809E0917E
:1007E8006400E0610E94FE08E061E0936500E0912A
:1007F8006400E4600E94FE08EB7FE0936500E091EE
:100808006400E260E0936400E0916400E160E093DA
:100818006400E0916400E8600E94FE08E77FE093CE
:100828006500AAE0B0E00E946E09E0916500E8600A
:10083800E0936500EC81FD81309721F1E681E3705A
:100848001E2FEC81FD81E681E695E695E7700E2F77
:10085800EC81FD81E781EF773E2FAC81BD810E945D
:100868009509E0935105F093520512960E94950957
:10087800E0936605F0936705AC81BD8114960E94EC
:1008880095090DC010E003E032E3E0E0F0E0E0930A
:100898005105F0935205E0936605F0936705E093E0
:1008A8006805F0936905A1E24ADFE12FE460AE2F05
:1008B80046DFE02FE061AE2F42DFE32FE068AE2F86
:1008C8003EDFA0E23CDFA1E022D0E1E0E0934D056D
:1008D800E0E0E0934E05E1E0E0935305E093540532
:1008E800E0935505EFEFE0935605E1E0E0935D05F1
:1008F800EEE5F5E0FA93EA93EFEFEA93A8E0B0E0CB
:100908000E942B080FD0E1E00E94CF0960C0AA9393
:10091800E881E03011F0ECE001C0E8E0AE2F0FDF35
:10092800219608950E94C80930E0E0914E05E03014
:1009380009F03FEFE0E0EA93A0E02ADF08EF11E0DA
:10094800F80101501040309719F0A32F3DDFF8CF80
:10095800E0E0EA93A0E040D30E94CF090C94AA08F3
:10096800AA931A93ED81EA93AD8120DF1E2FE981C6
:10097800E73011F0E83039F4EB81EA93AA810E945C
:100988004608EB8308C0E33021F4EB81E095EB8364
:1009980002C0E03021F4EA81E0951E2302C0E23073
:1009A80029F4EA81AB81EA231E2B0EC0E13029F439
:1009B800EA81AB81EA231E2707C0E43029F4EA81E3
:1009C800E095AB81EA2B1E23A12FFEDE1881269627
:1009D8000895AA9323970E94C609A889A43548F4C4
:1009E800AF85A03330F4AE85A03019F0AD85A030C6
:1009F80009F4CCC1EE85E887A889BB27EE85F0E02D
:100A0800AE0FBF1FA535E0E0BE0720F0A889E4E5DA
:100A1800EA1BEE872D85AF85BB27ED85F0E0AE0F8D
:100A2800BF1FD19720F0AF85E0E3EA1BED87A985CA
:100A3800A63009F05BC0EC85E13009F4A7C1E330CA
:100A480039F4E0916805F0916905309709F49EC181
:100A58000885ED85E695E695E6953E2FE22FE77049
:100A680019F4AD852A17E9F0A02FBB27E32FF0E092
:100A78000E948D09AA85BB850E94030926952695A3
:100A88002695532F5F935F5FE22FAF91EA1748F0E7
:100A9800102FE12F1150E03019F00E940809F9CF0A
:100AA800F1CFAE850A1711F1EE85AA85BB85F0E076
:100AB8000E940309ED85E77009F03F5F20E02F935E
:100AC8002F5FE32FAF91AE1788F41E851F931F5F2A
:100AD800E02FAF91AE1718F40E940809F7CFEE8502
:100AE800AE81BF81F0E00E940309E9CFEF85E7708E
:100AF8003E2FED85E03009F449C1EA85FB85EE8398
:100B0800FF8310E00889303009F063C0AD85A83054
:100B180008F45AC0E985E03011F0E33009F402C066
:100B2800E73009F402C0E83009F402C0E93009F4FA
:100B380002C0EA3021F40A93A8892ADE04C0E6300C
:100B480011F40E9415091F931F5FEE85AF91AE1730
:100B5800A0F5A985A63051F40E941909FA93EA93E1
:100B68000E94F308A0810E948D0826C0E985E9301B
:100B780011F450E00EC0EA3011F45FEF0AC00E9491
:100B880019090E9422095E2FE985E73011F0E83043
:100B980021F40E9428095E2F06C0E33011F4509515
:100BA80002C0E03019F4A52FD3DD06C00E942C093D
:100BB800EFEFEA93AD85D4DEC6CFEF85E85FEF8728
:100BC800ED85E850ED87D9C05D8520E0E0E0ED8750
:100BD8007EC0E32FAD85AE0FA93020F42D85E0E06F
:100BE800ED8703C0E8E0E31B2E2F3A93A22F0E9463
:100BF8003B084E2FE985E63011F50E9415091F9331
:100C08001F5FEE85AF91AE17C8F40E94F308E0812C
:100C1800E423AE2FE32F0E9480090E943209E32FBC
:100C2800A42F0E948009E095E1215E2B0E941909FA
:100C3800FA93EA93A52F0E948D08E1CF2CC0E930E2
:100C480011F450E003C0EA30A9F45FEF0E942809CC
:100C5800AE2FE32F0E9478095E2F1F931F5FEE854A
:100C6800AF91AE1730F40E942C094A93A0E078DEC9
:100C7800F4CF11C01F931F5FEE85AF91AE1758F4E4
:100C88000E943D09AE2FE32F0E947809EA934A9308
:100C9800AD8566DEEFCFED85E03009F477C0AD8530
:100CA800A83028F4ED85E21B5E2FE0E003C0532F47
:100CB800ED85E850ED8710E0EF85E85FEF87E8E025
:100CC800E31B2E2F0889EA85FB85EE83FF83E52F3A
:100CD800F0E0E059FD4F4491E985E63011F50E94B6
:100CE80015091F931F5FEE85AF91AE17C8F40E94D8
:100CF800F308E081E423AE2FE22F0E9478090E94D6
:100D08003209E22FA42F0E947809E095E1215E2B99
:100D18000E941909FA93EA93A52F0E948D08E1CF42
:100D28002CC0E93011F450E003C0EA30A9F45FEFB9
:100D38000E942809AE2FE22F0E9480095E2F1F9380
:100D48001F5FEE85AF91AE1730F40E942C094A93CD
:100D5800A0E006DEF4CF11C01F931F5FEE85AF91B0
:100D6800AE1758F40E943D09AE2FE22F0E94800969
:100D7800EA934A93AD85F4DDEFCFE885AA85BB8574
:100D8800F0E0EA0FFB1FEA87FB87B3CE0E94CD098C
:100D9800619608950E944A0924F0E0E0F0E00C947E
:100DA8004408A881B981A435E0E0BE0724F0E3E552
:100DB800F0E00C944408E881F9810C9444080E94FE
:100DC8004A0924F0E0E0F0E00C944408A881B981D5
:100DD800D09724F0EFE2F0E00C944408E881F98120
:100DE8000C944408BA93AA9323970E9451098F013F
:100DF800002E012A19F4E0E0F0E05FC00E945809D3
:100E08000F820E9458090E820E9458090886EB85B5
:100E1800A885EA1718F4E0E0F0E04FC0F8010F5F8A
:100E28001F4F5491A885BB27EE27A50FBE1FEB8542
:100E3800F0E0EA17FB0718F0E0E0F0E03EC0EE81D2
:100E4800E695E695E6954E2FEE81E77009F04F5F3F
:100E5800EF81E030A1F0A985BA85EC93A885EB85F0
:100E6800EA1BF0E0DF01EF81F0E00E948D09DF016D
:100E7800E42FF0E00E948D09E00FF11F1EC09801D9
:100E8800E52FF0E00E0F1F1FA885AF5FA887A150C0
:100E9800EB85AE1760F4F9012F5F3F4FA491B0E0E6
:100EA800E42FF0E00E948D090E0F1F1FEDCFF9010E
:100EB800E491A985BA85EC93F8010E94CD092C9696
:100EC8000895E0E0E0934F05A0915005BB270E94EC
:100ED8005D09F0E0AE0FBF1FE0915405F0E0AE0FE2
:100EE800BF1F6DDFE09350050895AA9321970E94D4
:100EF8005109309709F455C0AF81AA3009F44FC0A1
:100F0800EF81EA93DE0117966DDFAF01309709F4A0
:100F18004AC0E0915305AE81EA0F3E2FA0914F05DC
:100F2800BB27F0E0EA0FFB1F8F010535E0E01E0745
:100F380018F0032F1127C5DFE0914F05EA93E091E0
:100F48005005EA93E885EA930E945D09EA93E1E097
:100F5800EA935A934A93A7E03CDDE0914F05AE81AE
:100F6800EA0FEA93E0915005EA93E0915305EA937A
:100F78000E945D090E946409E0914F05EA93A091DF
:100F880050050E945D09EA0FEA933A93E0915405EF
:100F98000E946409E4E5F0E0E017F10711F491DF3D
:100FA80002C000934F050E94CD0928960895BA9370
:100FB800AA931A93EC81EA93AC810ED0A981BA81E5
:100FC800ED91A983BA831E2FE03019F0A12F8DDF90
:100FD800F5CF18810C943908AA93A981BB27DADECA
:100FE800E0934F05A881BB27EADEE09350050C94F7
:100FF8004408BA93AA93A991B991E991F9913096C5
:101008002AF4E095F09531966DE26D93E89480E1CD
:1010180097E20DD088EE93E00AD084E6992707D0AE
:101028008AE005D06E2F10D066276C930895662746
:10103800E817F90720F06395E81BF90BC9F7662351
:1010480011F416F008956894605D6D930895BA934D
:10105800AA93B981A881109631F0FC81EB816A814D
:1010680061931197E9F7EB81FC8125960895AA937E
:10107800E881F0E0E059FD4FA491E9810E947809E8
:1010880022960895AA931A93E981E73011F0EA307D
:1010980019F410914D0509C0E93019F410914E0565
:1010A80004C0E830A1F410915D05E0914E05E030F0
:1010B80049F0103019F0EFEF188129C0EA81E09566
:1010C800188125C0103019F4E0E0188120C0EA81A9
:1010D80018811DC0BA93AA93EA81E13021F4E8810E
:1010E800F981E49114C0E23029F4A881B9810E9401
:1010F8009D090DC0E33041F4A881B981E0916605EE
:10110800F0916705099503C0A881B981EC912396F0
:101118000895AA93EB81E03029F4E881A981BA8186
:10112800EC9314C0E23031F4E881A981BA810E94BD
:10113800B1090CC0E33051F4E981FA81FA93EA93DA
:10114800AA81E0916805F0916905099524960895AA
:10115800A6E00A9FF001E659FA4FDF01E32FF0E01D
:10116800EE0FFF1FAE0FBF1F0E9495090E94CF0907
:101178000895BA93AA930E949604EFE0EA93E4E1F3
:10118800EA930895FA93EA93ACE7B5E00E94FD0765
:10119800EEE1EA93EA93089500E010E02FEF3FEFC5
:1011A80040E050E00895FA93EA93AFEFBFEF0C9454
:1011B80029020E94EB019F01A8ECB0E00E946E0991
:1011C800EFEFFFEFE217F3070895FA93EA93FE01B2
:1011D8003296FA93EA93AEE1B0E00C943F02A6E8A7
:1011E800B5E0ED91FD913196FE93EE933197E85776
:1011F800FA4F0895E0936400E09165000895EA0FBE
:10120800FB1FEE83FF830895EC85EA93EF81F88551
:101218003196EF83F8873197FA93EA93A0E00C941C
:101228008D080A93A8890C94B503EC85EA93EF819D
:10123800F8853196EF83F8873197089566277727E1
:10124800DF01CB010C946E085A93AA850C944608CA
:101258000A930395E889EA935A9308955E2FEC85DB
:10126800EA93AF81B885882799270E946E081E2EB9
:1012780008950A930395E889EA93EE85EA93E98548
:10128800FA853196E987FA873197D8CFBA93AA9326
:10129800A881B9810E94C20908950E94C609E091F7
:1012A8005105F09152050895F8010F5F1F4F049002
:1012B8000895E0915105F09152053196E491089511
:1012C800EA93E0E0EA93E0E0F0E0FA93EA93A9E039
:1012D8000C94ED04109639F080ED97E00197F1F742
:1012E800A8951197C9F70895EE230E2EEA2F19F045
:1012F800EE0F0A94E9F70895EE230E2EEA2F19F05F
:10130800E6950A94E9F70895EE0FFF1FEE0FFF1F09
:101318000895FA9FF02DEB9FF00DEA9FE02DF10D57
:101328000895ED91FC9111970895119602D0FE2F22
:101338001197E199FECFFF93FFB7F894AEBBBFBBFF
:10134800E09AEDB3FFBFFF91089507D01196EF9390
:10135800EF2F03D0EF9111970895E19B02C0A89554
:10136800FCCF9FB7F894AEBBBFBBE09A8DB3E8172C
:1013780019F0EDBBE29AE19A9FBF089500240A167E
:101388000B0608955A934A933A932A931A930A9309
:1013980008955D814C813B812A81198108810895D6
:00000001FF
