:020000000C945E
:100002008A010C9400000C9400000C9400000C94E3
:1000120000000C9400000C9400000C9400000C945E
:1000220000000C9400000C9400000C9400000C944E
:1000320000000C9400000C9400000C9400000C943E
:10004200BA010C9400000C9400000C9400000C9473
:1000520000000C9400000C9400000C9400000C941E
:1000620000000C9400000C9400000C9400000C940E
:1000720000000C9400000C9400000C9400000C94FE
:1000820000000C9400000C940000050720600000A2
:1000920000000000005F00000007000700147F144A
:1000A2007F14242A7F2A12231308646236495522B8
:1000B200500005030000001C2241000041221C00E8
:1000C200082A1C2A0808083E0808005030000008C8
:1000D20008080808003030000020100804023E51D1
:1000E20049453E00427F4000426151494621414517
:1000F2004B311814127F1027454545393C4A49496E
:100102003001710905033649494936064949291E14
:100112000036360000005636000000081422411452
:100122001414141441221408000201510906324920
:1001320079413E7E1111117E7F494949363E414146
:1001420041227F4141221C7F494949417F090901DE
:10015200013E414151327F0808087F00417F410042
:100162002040413F017F081422417F404040407FB0
:100172000204027F7F0408107F3E4141413E7F0915
:100182000909063E4151215E7F091929464649491E
:10019200493101017F01013F4040403F1F20402083
:1001A2001F7F2018207F631408146303047804035C
:1001B200615149454300007F41410204081020413A
:1001C200417F00000402010204404040404000011F
:1001D20002040020545454787F484444383844443C
:1001E2004420384444487F3854545418087E090146
:1001F20002081454543C7F0804047800447D4000F3
:100202002040443D00007F10284400417F40007C94
:10021200041804787C0804047838444444387C1474
:10022200141408081414187C7C0804040848545454
:100232005420043F4440203C4040207C1C2040206D
:100242001C3C4030403C44281028440C5050503C48
:100252004464544C44000836410000007F00000012
:100262004136080002010204027F4141417F000140
:1002720003070F1F3F7FFF001027E80364000A00F7
:100282000100001000011000010000000000000049
:100292000400000001000200030004000500060043
:1002A2000700080050415353574F52443F004E4FEE
:1002B2003F006B686F612074686965742062690031
:1002C200504153534544000001002D4E414E004918
:1002D2004E460000080004008C0211005E059402E4
:1002E2000A000005A6020A000A05A6020A00140571
:1002F200A6020A001E05A60204002805B0020E008E
:100302002C05B40207003A05C20201007E07CA02A8
:100312000000F894EE27ECBBF1E0F5BFE5BFE093F7
:100322006C008DE0A2E0BB27ED938A95E9F780E0AF
:1003320090E1A0E0B1E0ED930197E9F7E6EDF2E09C
:1003420085919591009761F0A591B59105901590D1
:10035200BF01F00105900D920197E1F7FB01F0CF8B
:100362008BBFEFEFEDBFE0E1EEBFC0E0D5E00C9454
:1003720023030A92EA93FA93EFB7EA93E6E0E2BF25
:100382008A149B04BCF0E0EDF7E0E615F70511F4E2
:1003920066247724062C072811F49498959AE8EE9F
:1003A200F3E0E615F70511F49598949AF301319666
:1003B2003F0102C094989598E991EFBFF991E991B4
:1003C200099018950E94AD0930E03330A0F5303025
:1003D20019F4EDEFE0936200313019F4E7EFE093A6
:1003E2006200323019F4EFEDE093620000E0033076
:1003F20000F5003041F4E0B1E4701E2F143019F022
:100402000E9490081AC0013041F4E0B1E0711E2F41
:10041200103119F00E94900810C0023041F4E0B18E
:10042200E1701E2F113019F00E94900806C00F5F74
:10043200DECF3F5FCACFEFEFFFEF0E94B4092496F1
:1004420008950E949F08AE81BF810E94BF07AA81C2
:10045200BB81AF3FEFEFBE0741F0EA81FB810E9413
:10046200B808A0E7B5E00E94BF070C94CF040E9431
:100472009F08A885B9850E94BF07AC81BD81AF3FA7
:10048200EFEFBE0741F0EA81EA93EEE1EA93AE8133
:10049200BF810E94BF070C94BD070E949F08AA85D6
:1004A200BB850E94BF07AE81BF81AF3FEFEFBE07A2
:1004B20081F0EE81FF810E94B808AC81BD810E946B
:1004C200BF07EC81EA93EEE1EA93A0E7B5E00E9470
:1004D200BF07B6C02497E6E7EA83E0E0EB830E9419
:1004E200AB090E94C208A0E0B0E00E947E09EE8340
:1004F200FF83AE81BF81A436E0E0BE0720F0A83EB4
:10050200E3E0BE0708F004C0EE81FF81E887F987C7
:1005120088249924E885F985E417F50709F47EC053
:100522002397E0E2E883E983EA83E0E0F5E0FA93E7
:10053200EA93EFEFFFEF0E94C90883DFE3E0F0E008
:10054200E017F10709F441C03DDF9F01A8ECB0E0DC
:100552000E945309EFEFFFEFE217F307A9F10F5FD4
:100562001F4FAAE0A49FF001A59FF00DE20FF31F19
:10057200AF01EAE0F5E00E94CF0879DFE4E1F5E0BF
:10058200FA93EA933A932A93F80131970E946D09FC
:100592007E96E00FF11FFA93EA93FE0136960E94CF
:1005A200C9087BDFF8013197DE01AE0FBF1FEAE217
:1005B200EC93A4EFB1E00E945309EEE1F5E00E9452
:1005C200CF0855DF2FEF3FEFB9CFEB85FC85E4175E
:1005D200F50791F08ED1EFE0EA93E4E1EA93A8E225
:1005E200B5E00E94BF070E94C208A0E2B3E00E94E9
:1005F2005309F40131964F01A814B90469F4A39A7E
:10060200AB9A77D1EFE0EA93E5E0EA93ACE2B5E0AA
:100612000E94BF07239612C023967CCF4424552400
:10062200A4EFB1E00E94530964D1AB98EFE0EA93E2
:10063200E4E1EA93AAE3B5E00E94BF070E94B2098F
:100642002A960895289700E010E040E050E0ECE898
:10065200F0E0E883F983EE81EC7FEE83E37EE061F4
:10066200EE83EF81E078E264EF83DE019BD0EAEE75
:10067200E09361008D9A8C9AE0E0E0BFE3E0E3BF93
:10068200E6E0E2BFE0E0E1BFE1E0E7BFE0E0E09307
:100692007D007894A0E0B0E0E6E7F0E00E948E09E9
:1006A20019DFACEDB5E00E945309FFCFFFCF0895EB
:1006B200AA931A93E0916500EF7EE093650018E03B
:1006C200F6DFE981E07821F0E0916500E26003C0A5
:1006D200E0916500ED7FE0936500E981EE0FE9832B
:1006E200E6DFE0916500E460E0936500E0DFE09121
:1006F2006500EB7FE0936500115011F7E091650012
:10070200E061E093650018810C942808AA93E091B7
:100712006500EE7FE0936500A881CADFE8C0AA9376
:10072200E0916500E160E0936500A881C1DFDFC070
:10073200AA931A93E981E695E695E6951E2FE4E5DC
:10074200E19FF001DF01EA81F0E0EA0FFB1FE09395
:100752008405F0938505E12F18810C946F08AA9304
:10076200E981E068AE2FD2DFE981EA93A981E0DF77
:10077200E064AE2FCBDF0C942808AA93E981EA93B8
:10078200A981EDDFE0918405F0918505EA57FA4FE2
:10079200E0810C942808AA930E94D808A881A0831B
:1007A200BEDFA5C0BA93AA930E94AD09E09164008E
:1007B200E0610E94E308E061E0936500E09164007B
:1007C200E4600E94E308EB7FE0936500E09164003F
:1007D200E260E0936400E0916400E160E093640011
:1007E200E0916400E8600E94E308E77FE09365001F
:1007F200AAE0B0E00E945309E0916500E860E0934E
:100802006500EC81FD81309721F1E681E3701E2FB6
:10081200EC81FD81E681E695E695E7700E2FEC818D
:10082200FD81E781EF773E2FAC81BD810E947A097D
:10083200E0934505F093460512960E947A09E093EB
:100842005A05F0935B05AC81BD8114960E947A092A
:100852000DC010E003E032E3E0E0F0E0E093450594
:10086200F0934605E0935A05F0935B05E0935C052F
:10087200F0935D05A1E24ADFE12FE460AE2F46DF8F
:10088200E02FE061AE2F42DFE32FE068AE2F3EDFC4
:10089200A0E23CDFA1E022D0E1E0E0934105E0E00C
:1008A200E0934205E1E0E0934705E0934805E093D9
:1008B2004905EFEFE0934A05E1E0E0935105E2E5F7
:1008C200F5E0FA93EA93EFEFEA93A8E0B0E00E9432
:1008D2000F080FD0E1E00E94B40960C0AA93E8813A
:1008E200E03011F0ECE001C0E8E0AE2F0FDF21961E
:1008F20008950E94AD0930E0E0914205E03009F030
:100902003FEFE0E0EA93A0E02ADF08EF11E0F80110
:1009120001501040309719F0A32F3DDFF8CFE0E0EF
:10092200EA93A0E040D30E94B4090C948E08AA93E3
:100932001A93ED81EA93AD8120DF1E2FE981E73022
:1009420011F0E83039F4EB81EA93AA810E942A0877
:10095200EB8308C0E33021F4EB81E095EB8302C026
:10096200E03021F4EA81E0951E2302C0E23029F44E
:10097200EA81AB81EA231E2B0EC0E13029F4EA8121
:10098200AB81EA231E2707C0E43029F4EA81E0950F
:10099200AB81EA2B1E23A12FFEDE18812696089535
:1009A200AA9323970E94AB09A889A43548F4AF857E
:1009B200A03330F4AE85A03019F0AD85A03009F433
:1009C200CCC1EE85E887A889BB27EE85F0E0AE0FA3
:1009D200BF1FA535E0E0BE0720F0A889E4E5EA1BC9
:1009E200EE872D85AF85BB27ED85F0E0AE0FBF1FEB
:1009F200D19720F0AF85E0E3EA1BED87A985A63009
:100A020009F05BC0EC85E13009F4A7C1E33039F4A9
:100A1200E0915C05F0915D05309709F49EC108856F
:100A2200ED85E695E695E6953E2FE22FE77019F4FF
:100A3200AD852A17E9F0A02FBB27E32FF0E00E9433
:100A42007209AA85BB850E94E808269526952695F7
:100A5200532F5F935F5FE22FAF91EA1748F0102F99
:100A6200E12F1150E03019F00E94ED08F9CFF1CFDB
:100A7200AE850A1711F1EE85AA85BB85F0E00E94CA
:100A8200E808ED85E77009F03F5F20E02F932F5FC4
:100A9200E32FAF91AE1788F41E851F931F5FE02FDF
:100AA200AF91AE1718F40E94ED08F7CFEE85AE8134
:100AB200BF81F0E00E94E808E9CFEF85E7703E2FA2
:100AC200ED85E03009F449C1EA85FB85EE83FF83B9
:100AD20010E00889303009F063C0AD85A83008F411
:100AE2005AC0E985E03011F0E33009F402C0E73082
:100AF20009F402C0E83009F402C0E93009F402C086
:100B0200EA3021F40A93A8892ADE04C0E63011F4FF
:100B12000E94FA081F931F5FEE85AF91AE17A0F5F2
:100B2200A985A63051F40E94FE08FA93EA930E9426
:100B3200D808A0810E94710826C0E985E93011F425
:100B420050E00EC0EA3011F45FEF0AC00E94FE08C6
:100B52000E9407095E2FE985E73011F0E83021F4A1
:100B62000E940D095E2F06C0E33011F4509502C0B9
:100B7200E03019F4A52FD3DD06C00E941109EFEF72
:100B8200EA93AD85D4DEC6CFEF85E85FEF87ED85CA
:100B9200E850ED87D9C05D8520E0E0E0ED877EC0BA
:100BA200E32FAD85AE0FA93020F42D85E0E0ED876F
:100BB20003C0E8E0E31B2E2F3A93A22F0E941F08E6
:100BC2004E2FE985E63011F50E94FA081F931F5F48
:100BD200EE85AF91AE17C8F40E94D808E081E423F5
:100BE200AE2FE32F0E9465090E941709E32FA42F5D
:100BF2000E946509E095E1215E2B0E94FE08FA93AE
:100C0200EA93A52F0E947108E1CF2CC0E93011F4BC
:100C120050E003C0EA30A9F45FEF0E940D09AE2F45
:100C2200E32F0E945D095E2F1F931F5FEE85AF9138
:100C3200AE1730F40E9411094A93A0E078DEF4CF97
:100C420011C01F931F5FEE85AF91AE1758F40E943B
:100C52002209AE2FE32F0E945D09EA934A93AD85E4
:100C620066DEEFCFED85E03009F477C0AD85A830C0
:100C720028F4ED85E21B5E2FE0E003C0532FED85E3
:100C8200E850ED8710E0EF85E85FEF87E8E0E31BCF
:100C92002E2F0889EA85FB85EE83FF83E52FF0E09E
:100CA200E059FD4F4491E985E63011F50E94FA08BA
:100CB2001F931F5FEE85AF91AE17C8F40E94D8084C
:100CC200E081E423AE2FE22F0E945D090E94170902
:100CD200E22FA42F0E945D09E095E1215E2B0E9484
:100CE200FE08FA93EA93A52F0E947108E1CF2CC067
:100CF200E93011F450E003C0EA30A9F45FEF0E943A
:100D02000D09AE2FE22F0E9465095E2F1F931F5F10
:100D1200EE85AF91AE1730F40E9411094A93A0E01C
:100D220006DEF4CF11C01F931F5FEE85AF91AE17A1
:100D320058F40E942209AE2FE22F0E946509EA931D
:100D42004A93AD85F4DDEFCFE885AA85BB85F0E057
:100D5200EA0FFB1FEA87FB87B3CE0E94B2096196B6
:100D620008950E942F0924F0E0E0F0E00C94280896
:100D7200A881B981A435E0E0BE0724F0E3E5F0E004
:100D82000C942808E881F9810C9428080E942F0904
:100D920024F0E0E0F0E00C942808A881B981D09713
:100DA20024F0EFE2F0E00C942808E881F9810C9439
:100DB2002808BA93AA9323970E9436098F01002E1E
:100DC200012A19F4E0E0F0E05FC00E943D090F82C1
:100DD2000E943D090E820E943D090886EB85A88586
:100DE200EA1718F4E0E0F0E04FC0F8010F5F1F4F80
:100DF2005491A885BB27EE27A50FBE1FEB85F0E017
:100E0200EA17FB0718F0E0E0F0E03EC0EE81E6955D
:100E1200E695E6954E2FEE81E77009F04F5FEF8180
:100E2200E030A1F0A985BA85EC93A885EB85EA1B91
:100E3200F0E0DF01EF81F0E00E947209DF01E42FB0
:100E4200F0E00E947209E00FF11F1EC09801E52F29
:100E5200F0E00E0F1F1FA885AF5FA887A150EB859A
:100E6200AE1760F4F9012F5F3F4FA491B0E0E42F79
:100E7200F0E00E9472090E0F1F1FEDCFF901E491FD
:100E8200A985BA85EC93F8010E94B2092C960895BF
:100E9200E0E0E0934305A0914405BB270E9442098C
:100EA200F0E0AE0FBF1FE0914805F0E0AE0FBF1FAC
:100EB2006DDFE09344050895AA9321970E943609B5
:100EC200309709F455C0AF81AA3009F44FC0EF81C1
:100ED200EA93DE0117966DDFAF01309709F44AC03D
:100EE200E0914705AE81EA0F3E2FA0914305BB2753
:100EF200F0E0EA0FFB1F8F010535E0E01E0718F056
:100F0200032F1127C5DFE0914305EA93E0914405E1
:100F1200EA93E885EA930E944209EA93E1E0EA93C0
:100F22005A934A93A7E03CDDE0914305AE81EA0F74
:100F3200EA93E0914405EA93E0914705EA930E941F
:100F420042090E944909E0914305EA93A0914405B0
:100F52000E944209EA0FEA933A93E09148050E94FF
:100F62004909E4E5F0E0E017F10711F491DF02C06E
:100F7200009343050E94B20928960895BA93AA9352
:100F82001A93EC81EA93AC810ED0A981BA81ED91DA
:100F9200A983BA831E2FE03019F0A12F8DDFF5CF80
:100FA20018810C941D08AA93A981BB27DADEE0936D
:100FB2004305A881BB27EADEE09344050C94280888
:100FC200BA93AA93A991B991E991F99130962AF429
:100FD200E095F09531966DE26D93E89480E197E2A9
:100FE2000DD088EE93E00AD084E6992707D08AE0F4
:100FF20005D06E2F10D066276C9308956627E817E8
:10100200F90720F06395E81BF90BC9F7662311F481
:1010120016F008956894605D6D930895BA93AA934B
:10102200B981A881109631F0FC81EB816A816193CC
:101032001197E9F7EB81FC8125960895AA93E8813F
:10104200F0E0E059FD4FA491E9810E945D092296EA
:101052000895AA931A93E981E73011F0EA3019F45E
:101062001091410509C0E93019F41091420504C0FC
:10107200E830A1F410915105E0914205E03049F0C9
:10108200103019F0EFEF188129C0EA81E09518813C
:1010920025C0103019F4E0E0188120C0EA811881DF
:1010A2001DC0BA93AA93EA81E13021F4E881F98163
:1010B200E49114C0E23029F4A881B9810E94820926
:1010C2000DC0E33041F4A881B981E0915A05F09155
:1010D2005B05099503C0A881B981EC912396089517
:1010E200AA93EB81E03029F4E881A981BA81EC93DB
:1010F20014C0E23031F4E881A981BA810E949609D4
:101102000CC0E33051F4E981FA81FA93EA93AA819F
:10111200E0915C05F0915D05099524960895A6E09D
:101122000A9FF001E25AFA4FDF01E32FF0E0EE0FDF
:10113200FF1FAE0FBF1F0E947A090895BA93AA93A8
:101142000E947A04E881F981FA93EA93AAE7B5E06A
:101152000E94E107E5E0EA93EAE0EA93AAE7B5E054
:101162000E94BF07EFE0EA93E4E1EA930895FA935D
:10117200EA93A0E7B5E00E94E107EEE1EA93EA9381
:10118200089500E010E02FEF3FEF40E050E00895B7
:10119200FA93EA93D501A819B9090895FA93EA9343
:1011A200FE013296FA93EA93EEE1F0E0F1CFA4E881
:1011B200B5E0ED91FD913196FE93EE933197EA57AA
:1011C200FA4F0895E0936400E09165000895EA0FF4
:1011D200FB1FEE83FF830895EC85EA93EF81F88588
:1011E2003196EF83F8873197FA93EA93A0E00C9453
:1011F20071080A93A8890C949903EC85EA93EF810C
:10120200F8853196EF83F887319708956627772717
:10121200DF01CB010C9452085A93AA850C942A0838
:101222000A930395E889EA935A9308955E2FEC8511
:10123200EA93AF81B885882799270E9452081E2E0B
:1012420008950A930395E889EA93EE85EA93E9857E
:10125200FA853196E987FA873197D8CFBA93AA935C
:10126200A881B9810E94A70908950E94AB09E09163
:101272004505F09146050895F8010F5F1F4F049050
:101282000895E0914505F09146053196E49108955F
:10129200EA93E0E0EA93E0E0F0E0FA93EA93A9E06F
:1012A2000C94D104109639F080ED97E00197F1F794
:1012B200A8951197C9F70895EE230E2EEA2F19F07B
:1012C200EE0F0A94E9F70895EE230E2EEA2F19F095
:1012D200E6950A94E9F70895EE0FFF1FEE0FFF1F40
:1012E2000895FA9FF02DEB9FF00DEA9FE02DF10D8E
:1012F2000895ED91FC9111970895119602D0FE2F59
:101302001197E199FECFFF93FFB7F894AEBBBFBB35
:10131200E09AEDB3FFBFFF91089507D01196EF93C6
:10132200EF2F03D0EF9111970895E19B02C0A8958A
:10133200FCCF9FB7F894AEBBBFBBE09A8DB3E81762
:1013420019F0EDBBE29AE19A9FBF089500240A16B4
:101352000B0608955A934A933A932A931A930A933F
:1013620008955D814C813B812A811981088108950C
:00000001FF
