:040000000C948701D4
:100004000C9400000C9400000C9400000C9400006C
:100014000C9400000C9400000C9400000C9400005C
:100024000C9400000C9400000C9400000C9400004C
:100034000C9400000C944E020C9400000C940000EC
:100044000C9400000C9400000C9400000C9400002C
:100054000C9400000C9400000C9400000C9400001C
:100064000C9400000C9400000C9400000C9400000C
:100074000C9400000C9400000C9400000C940000FC
:100084000C9400000C9400000507206000000000A0
:100094000000005F00000007000700147F147F14B5
:1000A400242A7F2A122313086462364955225000F9
:1000B40005030000001C2241000041221C00082A04
:1000C4001C2A0808083E08080050300000080808E8
:1000D4000808003030000020100804023E51494551
:1000E4003E00427F400042615149462141454B3127
:1000F4001814127F1027454545393C4A49493001B7
:10010400710905033649494936064949291E00360D
:10011400360000005636000000081422411414145E
:10012400141441221408000201510906324979418C
:100134003E7E1111117E7F494949363E414141229B
:100144007F4141221C7F494949417F090901013E00
:10015400414151327F0808087F00417F410020401F
:10016400413F017F081422417F404040407F020408
:10017400027F7F0408107F3E4141413E7F09090907
:10018400063E4151215E7F091929464649494931B4
:1001940001017F01013F4040403F1F2040201F7F5D
:1001A4002018207F63140814630304780403615146
:1001B40049454300007F4141020408102041417F2A
:1001C40000000402010204404040404000010204D7
:1001D4000020545454787F484444383844444420DC
:1001E400384444487F3854545418087E090102089E
:1001F4001454543C7F0804047800447D400020409B
:10020400443D00007F10284400417F40007C0418D6
:1002140004787C0804047838444444387C14141466
:1002240008081414187C7C08040408485454542006
:10023400043F4440203C4040207C1C2040201C3C87
:100244004030403C44281028440C5050503C4464F6
:10025400544C44000836410000007F000000413641
:10026400080002010204027F4141417F00010307AB
:100274000F1F3F7FFF0000000A0000000000000184
:10028400000001000200030004000500060007004E
:1002940008004E6578743A004E6578743A2000433D
:1002A400757272656E743A0043757272656E743A53
:1002B400200080C001002D4E414E00494E460000F2
:1002C4000A0004007A0211005D058402060000059C
:1002D4009602070006059C0209000D05A3020A0008
:1002E4001605AC0209002005A302060029059602A2
:1002F4000A002F05AC02070039059C02020084079E
:10030400B60201008A07B8020000F894EE27ECBB9D
:10031400F1E0F5BFE5BFE0936C008DE0A2E0BB2700
:10032400ED938A95E9F780E090E1A0E0B1E0ED93E8
:100334000197E9F7E4ECF2E085919591009761F07B
:10034400A591B59105901590BF01F00105900D920E
:100354000197E1F7FB01F0CF8BBFEFEFEDBFE0E1D9
:10036400EEBFC0E0D5E00C94C803EAEEE093610070
:10037400BC9AA79ABD9AE3E8E6B908950E94160BC1
:1003840030E03330A0F5303019F4EDEFE093620043
:10039400313019F4E7EFE0936200323019F4EFEDF5
:1003A400E093620000E0033000F5003041F4E0B176
:1003B400E4701E2F143019F00E94CA091AC00130CB
:1003C40041F4E0B1E0711E2F103119F00E94CA0906
:1003D40010C0023041F4E0B1E1701E2F113019F069
:1003E4000E94CA0906C00F5FDECF3F5FCACFEFEF9E
:1003F400FFEF0E941D0B24960895BA93AA932897A1
:10040400ECE8F0E0E883F983EE81EC7FEE83EA85A3
:10041400E770EE0FEE0F0E2EEE81E37EE029EE8301
:10042400E885EF770E2EEF81E078E029EF83DE0197
:100434004BD22C960895A0E10E94EB080E94B808C4
:100444000895BA93AA93A881EFEFEA1BE1BF22961D
:100454000895C59A0895A8E7B0E0F3DF0895A0E0F1
:10046400B0E0EFDFC5980895E0E0E0BFE4E7E3BF64
:10047400E0E0E2BFA0E0B0E0E4DFE0E0EFBDE1E017
:10048400EEBDECEFEDBDE0EEECBDE4E0E7BFE0E097
:10049400E0937D00789408950A921A92FA926A93EE
:1004A4007A938A939A93AA93BA93EA93FA93EFB7B7
:1004B400EA931A930A93ECEFEDBDE0EEECBDF20182
:1004C40031962F01E8ECF0E04E165F0614F0442458
:1004D40055244614570414F4AF9A01C0AF98E7ECBE
:1004E400F0E0E415F50569F449DF8F01EFEFFFEF64
:1004F400E017F10731F0AFE7B5E0A00FB11FE1E07D
:10050400EC9309911991E991EFBFF991E991B991AE
:10051400A9919991899179916991F990199009908A
:100524001895882499240E94D90964F00E94DE0950
:10053400A13041F00E94D90909F40895F4013196DB
:100544004F01F1CFDD20B9F00E94E4090E94D909DE
:1005540094F00E94D90921F40E94DE09A03009F028
:1005640002C0DD2404C00E94DE09A13021F0F401A0
:1005740031964F01EBCFDD20D1F40E94E409002431
:1005840080149004A4F000240814090421F40E94A7
:10059400DE09A03009F003C0E1E0DE2E08950E94D8
:1005A400DE09A13021F0F40131974F01E8CF0E9418
:1005B400E909DD2011F04FDF01C04BDF0E94F4098F
:1005C400E158FA4FE081E03009F072C0AA24BB245C
:1005D40022D2E5E0EA93E9E1EA93A0E0B5E00E94E3
:1005E4005B080E94B808E0E0EA93A1E00E94A90831
:1005F400A6E0B5E00E94DF08DD2011F1A8E8B5E02F
:100604000E94F9090E94E4090E94D9094CF00E9451
:10061400FF0911F00E94060AF40131964F01F4CF4C
:100624000E941F0A0024801490044CF00E94FF09C9
:1006340011F00E94060AF40131974F01F3CF24C050
:10064400A8E8B5E0ED91FD913197FE93EE930E94F9
:10065400E4090024801490044CF00E94FF0911F076
:100664000E94060AF40131974F01F3CF0E94230A36
:100674000E94D9094CF00E94FF0911F00E94060A59
:10068400F40131964F01F4CF0E94270AADE0B5E0A2
:100694000E94330AE0E0EA93A0E00E94A908A6E1E0
:1006A400B5E00E943D0AA8EEB3E00E94CD0A86CFD1
:1006B400B2D10E94270AA0E2B5E00E94330AE5E025
:1006C400EA93E9E1EA93A9E2B5E00E945B08AA246F
:1006D400BB240E94B808E0E0EA93A0E00E94A908C5
:1006E400AFE2B5E00E943D0AE0E0EA93A1E00E9497
:1006F400A908A9E3B5E00E94DF08DD20F1F00E941B
:10070400230A0E94D9094CF00E94FF0911F00E94AB
:10071400060AF40131964F01F4CF0E941F0A002407
:10072400801490044CF00E94FF0911F00E94060A04
:10073400F40131974F01F3CF1DC00E941F0A00241A
:10074400801490044CF00E94FF0911F00E94060AE4
:10075400F40131974F01F3CF0E94230A0E94D90973
:100764004CF00E94FF0911F00E94060AF401319630
:100774004F01F4CFA0918805B0918905A158BA4FD3
:10078400E0E0EC936CDE0E94E9090895E4E0F0E017
:10079400FA93EA93A2E4B0E030DE4DDEE6DD64DEF7
:1007A4000E94F409FA93EA93AFE6B5E00E941B09AC
:1007B400EEE1EA93E4E1EA93AFE6B5E00E945B0878
:1007C400B0DEFECFFFCF0895AA931A93E09165009F
:1007D400EF7EE093650018E0F6DFE981E07821F030
:1007E400E0916500E26003C0E0916500ED7FE09375
:1007F4006500E981EE0FE983E6DFE0916500E460DE
:10080400E0936500E0DFE0916500EB7FE093650035
:10081400115011F7E0916500E061E09365001881E3
:100824000C946209AA93E0916500EE7FE093650061
:10083400A881CADF0C941909AA93E0916500E160CC
:10084400E0936500A881C0DF0C941909AA931A9358
:10085400E981E695E695E6951E2FE4E5E19FF00132
:10086400DF01EA81F0E0EA0FFB1FE0938A05F093D1
:100874008B05E12F18810C94A909AA93E981E068FA
:10088400AE2FD0DFE981EA93A981E0DFE064AE2FE7
:10089400C9DF0C946209AA93E981EA93A981EDDF87
:1008A400E0918A05F0918B05E457FA4FE0810C94AE
:1008B4006209AA930E94440A3197E457FA4FA88127
:1008C400A083BADF0C941909BA93AA930E94160B59
:1008D400E0916400E0610E94470AE061E0936500F2
:1008E400E0916400E4600E94470AEB7FE0936500B6
:1008F400E0916400E260E0936400E0916400E160F0
:10090400E0936400E0916400E8600E94470AE77F96
:10091400E0936500AAE0B0E00E94CD0AE091650092
:10092400E860E0936500EC81FD81309721F1E68178
:10093400E3701E2FEC81FD81E681E695E695E77074
:100944000E2FEC81FD81E781EF773E2FAC81BD81D5
:100954000E94EF0AE0934405F093450512960E9425
:10096400EF0AE0935905F0935A05AC81BD811496C2
:100974000E94EF0A0DC010E003E032E3E0E0F0E093
:10098400E0934405F0934505E0935905F0935A0527
:10099400E0935B05F0935C05A1E244DFE12FE460A2
:1009A400AE2F40DFE02FE061AE2F3CDFE32FE068A5
:1009B400AE2F38DFA0E236DFA1E022D0E1E0E09301
:1009C4004005E0E0E0934105E1E0E0934605E09373
:1009D4004705E0934805EFEFE0934905E1E0E09334
:1009E4005005E1E5F5E0FA93EA93EFEFEA93A8E026
:1009F400B0E00E9449090FD0E1E00E941D0B60C0E5
:100A0400AA93E881E03011F0ECE001C0E8E0AE2FF9
:100A140009DF0C9419090E94160B30E0E09141059E
:100A2400E03009F03FEFE0E0EA93A0E026DF08EFD2
:100A340011E0F80101501040309719F0A32F39DF6D
:100A4400F8CFE0E0EA93A0E044D30E941D0B0C949D
:100A5400C809AA931A93ED81EA93AD811CDF1E2F76
:100A6400E981E73011F0E83039F4EB81EA93AA81A7
:100A74000E946409EB8308C0E33021F4EB81E09524
:100A8400EB8302C0E03021F4EA81E0951E2302C02A
:100A9400E23029F4EA81AB81EA231E2B0EC0E13057
:100AA40029F4EA81AB81EA231E2707C0E43029F444
:100AB400EA81E095AB81EA2B1E23A12FFADE18818F
:100AC40026960895AA9323970E94140BA889A43507
:100AD40048F4AF85A03330F4AE85A03019F0AD856D
:100AE400A03009F4D5C1EE85E887A889BB27EE8537
:100AF400F0E0AE0FBF1FA535E0E0BE0720F0A889E7
:100B0400E4E5EA1BEE872D85AF85BB27ED85F0E094
:100B1400AE0FBF1FD19720F0AF85E0E3EA1BED874E
:100B2400A985A63009F05BC0EC85E13009F4B0C1B9
:100B3400E33039F4E0915B05F0915C05309709F4FA
:100B4400A7C10885ED85E695E695E6953E2FE22F4B
:100B5400E77019F4AD852A17E9F0A02FBB27E32F1E
:100B6400F0E00E94E70AAA85BB850E944C0A2695FC
:100B740026952695532F5F935F5FE22FAF91EA1777
:100B840048F0102FE12F1150E03019F00E94510A63
:100B9400F9CFF1CFAE850A1711F1EE85AA85BB8591
:100BA400F0E00E944C0AED85E77009F03F5F20E019
:100BB4002F932F5FE32FAF91AE1788F41E851F93F9
:100BC4001F5FE02FAF91AE1718F40E94510AF7CFC0
:100BD400EE85AE81BF81F0E00E944C0AE9CFEF853B
:100BE400E7703E2FED85E03009F452C1EA85FB85BC
:100BF400EE83FF8310E00889303009F066C0AD85CC
:100C0400A83008F45DC0E985E03011F0E33009F460
:100C140002C0E73009F402C0E83009F402C0E93048
:100C240009F402C0EA3021F40A93A88926DE04C03C
:100C3400E63011F40E945E0A1F931F5FEE85AF91A8
:100C4400AE17B8F5A985A63069F40E94620AFA9332
:100C5400EA930E94440A3197E457FA4FA0810E9414
:100C6400AB0926C0E985E93011F450E00EC0EA3042
:100C740011F45FEF0AC00E94620A0E946B0A5E2FA1
:100C8400E985E73011F0E83021F40E94710A5E2F03
:100C940006C0E33011F4509502C0E03019F4A52FDA
:100CA400CBDD06C00E94750AEFEFEA93AD85D1DE75
:100CB400C3CFEF85E85FEF87ED85E850ED87DFC0B0
:100CC4005D8520E0E0E0ED8781C0E32FAD85AE0FC8
:100CD400A93020F42D85E0E0ED8703C0E8E0E31BB4
:100CE4002E2F3A93A22F0E9459094E2FE985E63000
:100CF40029F50E945E0A1F931F5FEE85AF91AE1720
:100D0400E0F40E94440A3197E457FA4FE081E42367
:100D1400AE2FE32F0E94DF0A0E947B0AE32FA42F49
:100D24000E94DF0AE095E1215E2B0E94620AFA9399
:100D3400EA93A52F0E94AB09DECF2CC0E93011F451
:100D440050E003C0EA30A9F45FEF0E94710AAE2FAD
:100D5400E32F0E94D70A5E2F1F931F5FEE85AF918A
:100D6400AE1730F40E94750A4A93A0E072DEF4CF05
:100D740011C01F931F5FEE85AF91AE1758F40E9408
:100D8400860AAE2FE32F0E94D70AEA934A93AD85D1
:100D940060DEEFCFED85E03009F47AC0AD85A83090
:100DA40028F4ED85E21B5E2FE0E003C0532FED85B0
:100DB400E850ED8710E0EF85E85FEF87E8E0E31B9C
:100DC4002E2F0889EA85FB85EE83FF83E52FF0E06B
:100DD400E059FD4F4491E985E63029F50E945E0A09
:100DE4001F931F5FEE85AF91AE17E0F40E94440A93
:100DF4003197E457FA4FE081E423AE2FE22F0E94AB
:100E0400D70A0E947B0AE22FA42F0E94D70AE095FA
:100E1400E1215E2B0E94620AFA93EA93A52F0E94B5
:100E2400AB09DECF2CC0E93011F450E003C0EA3046
:100E3400A9F45FEF0E94710AAE2FE22F0E94DF0A2D
:100E44005E2F1F931F5FEE85AF91AE1730F40E94A3
:100E5400750A4A93A0E0FDDDF4CF11C01F931F5F14
:100E6400EE85AF91AE1758F40E94860AAE2FE22F9A
:100E74000E94DF0AEA934A93AD85EBDDEFCFE88564
:100E8400AA85BB85F0E0EA0FFB1FEA87FB87AACEA1
:100E94000E941B0B619608950E94930A24F0E0E0DF
:100EA400F0E00C946209A881B981A435E0E0BE07A2
:100EB40024F0E3E5F0E00C946209E881F9810C94F4
:100EC40062090E94930A24F0E0E0F0E00C946209C5
:100ED400A881B981D09724F0EFE2F0E00C94620984
:100EE400E881F9810C946209BA93AA9323970E942A
:100EF4009A0A8F01002E012A19F4E0E0F0E05FC0A5
:100F04000E94A10A0F820E94A10A0E820E94A10AD5
:100F14000886EB85A885EA1718F4E0E0F0E04FC0F6
:100F2400F8010F5F1F4F5491A885BB27EE27A50F2B
:100F3400BE1FEB85F0E0EA17FB0718F0E0E0F0E0F5
:100F44003EC0EE81E695E695E6954E2FEE81E7707C
:100F540009F04F5FEF81E030A1F0A985BA85EC93E9
:100F6400A885EB85EA1BF0E0DF01EF81F0E00E9449
:100F7400E70ADF01E42FF0E00E94E70AE00FF11F27
:100F84001EC09801E52FF0E00E0F1F1FA885AF5F6C
:100F9400A887A150EB85AE1760F4F9012F5F3F4F8E
:100FA400A491B0E0E42FF0E00E94E70A0E0F1F1FA7
:100FB400EDCFF901E491A985BA85EC93F8010E947B
:100FC4001B0B2C960895E0E0E0934205A0914305A5
:100FD400BB270E94A60AF0E0AE0FBF1FE0914705B1
:100FE400F0E0AE0FBF1F6DDFE09343050895AA93B1
:100FF40021970E949A0A309709F455C0AF81AA300C
:1010040009F44FC0EF81EA93DE0117966DDFAF015B
:10101400309709F44AC0E0914605AE81EA0F3E2FAD
:10102400A0914205BB27F0E0EA0FFB1F8F010535B5
:10103400E0E01E0718F0032F1127C5DFE0914205F9
:10104400EA93E0914305EA93E885EA930E94A60AAD
:10105400EA93E1E0EA935A934A93A7E033DDE091FF
:101064004205AE81EA0FEA93E0914305EA93E091E9
:101074004605EA930E94A60A0E94AD0AE091420541
:10108400EA93A09143050E94A60AEA0FEA933A93D1
:10109400E09147050E94AD0AE4E5F0E0E017F107AE
:1010A40011F491DF02C0009342050E941B0B2896A5
:1010B4000895BA93AA931A93EC81EA93AC8109D068
:1010C4000E94B70A19F0A12F92DFFACF18810C946D
:1010D4005709AA93A981BB27DFDEE0934205A881C3
:1010E400BB27EFDEE09343050C946209AA93E881E1
:1010F400E07111F0DB9A01C0DB98E881E07211F035
:10110400DC9A01C0DC98E881E07411F0DD9A01C03A
:10111400DD98E881E07811F0DE9A01C0DE988DE078
:101124008A95F1F7DA9A8DE08A95F1F7DA988DE0ED
:101134008A95F1F77CC0AA93A881D8DFE881E2956B
:10114400E883A881D3DF85E88A95F1F770C0AA9374
:10115400E881F0E0EC57F84FE081A981AE0FEBDFB6
:10116400C980E881E09388070C946209A2E00E9498
:10117400BF0AACE0E0DFA1E00E94BF0AE0E0E09338
:101184008807CE2E0895AA93A881AA3021F0E09171
:101194008907CE1660F0E0E0EA93A0918807AF5F7C
:1011A400A0938807D4DFA881AA3009F440C0C3946F
:1011B400D89AA881C0DFD8983AC0BA93AA931A9350
:1011C4000E94B70A19F0A12FDEDFFACF18810C9420
:1011D400A909AA93D39AD49AD59AD69AD29AD09A8C
:1011E400D19ADA98D898D998E881E0938907E05899
:1011F400E0938607E881E054E0938707A4E1B0E038
:101204000E94CD0A0E94C50A0E94C50A0E94C50A0E
:10121400A0E26CDF88EC90E00197F1F7A8E28BDFA5
:10122400A4E089DFA5E887DFA6E085DF9FDF2196BC
:101234000895BA93AA93A991B991E991F991309635
:101244002AF4E095F09531966DE26D93E89480E18F
:1012540097E20DD088EE93E00AD084E6992707D070
:101264008AE005D06E2F10D066276C930895662708
:10127400E817F90720F06395E81BF90BC9F7662313
:1012840011F416F008956894605D6D930895BA930F
:10129400AA93B981A881109631F0FC81EB816A810F
:1012A40061931197E9F7EB81FC8125960895AA9340
:1012B400E881F0E0E059FD4FA491E9810E94D70A4A
:1012C40022960895AA931A93E981E73011F0EA303F
:1012D40019F41091400509C0E93019F41091410541
:1012E40004C0E830A1F410915005E0914105E030CC
:1012F40049F0103019F0EFEF188129C0EA81E09528
:10130400188125C0103019F4E0E0188120C0EA816A
:1013140018811DC0BA93AA93EA81E13021F4E881CF
:10132400F981E49114C0E23029F4A881B9810E94C2
:10133400F30A0DC0E33041F4A881B981E091590565
:10134400F0915A05099503C0A881B981EC912396BF
:101354000895AA93EB81E03029F4E881A981BA8148
:10136400EC9314C0E23031F4E881A981BA810E947F
:10137400FF0A0CC0E33051F4E981FA81FA93EA934D
:10138400AA81E0915B05F0915C0509952496089586
:10139400A6E00A9FF001E35AFA4FDF01E32FF0E0E1
:1013A400EE0FFF1FAE0FBF1F0E94EF0A0895E8E083
:1013B400F0E0E815F9050895AFE7B5E0A80DB91D0B
:1013C400AC91089580908805909089050895EFE088
:1013D400F0E03F01A0EDB7E00E94CD0AEAE0F0E0C2
:1013E4003F010895E0918805F09189050895ED91F4
:1013F400FD913196FE93EE930895AFE7B5E0A80D05
:10140400B91DEC91E03008959A928A92AFE6B5E066
:101414000E941B09EA2DA6E0EA02F001ED5DEA93C1
:10142400E9E1EA93AFE6B5E00E945B08F501319685
:101434005F01A82DA05D0C94C508D4DF31974F013E
:101444000895D0DF31964F010895CCDFFA93EA93E3
:10145400AFE6B5E00E941B09E5E0EA93EFE0EA930A
:1014640008950E945B08E7E3EA93EFE0EA93AFE6AE
:10147400B5E00C945B080E94DF08A0918805A05D8C
:101484000C94C508AAE8B5E0B2CFE0936400E091FB
:1014940065000895EA0FFB1FEE83FF830895EC8532
:1014A400EA93EF81F8853196EF83F8873197FA93C1
:1014B400EA93A0E00C94AB090A93A8890C9428043D
:1014C400EC85EA93EF81F8853196EF83F8873197BD
:1014D400089566277727DF01CB010C948C095A9372
:1014E400AA850C9464090A930395E889EA935A93AC
:1014F40008955E2FEC85EA93AF81B88588279927F4
:101504000E948C091E2E08950A930395E889EA9394
:10151400EE85EA93E985FA853196E987FA8731976A
:10152400D8CFBA93AA93A881B9810E94100B0895C9
:101534000E94140BE0914405F09145050895F801CB
:101544000F5F1F4F04900895E0914405F091450505
:101554003196E4910895EA93E0E0EA93E0E0F0E064
:10156400FA93EA93A9E00C946405A981BA81ED91F8
:10157400A983BA831E2FE03008950E949D08A3E03A
:10158400B0E00C94CD0AA0E30E94780888EC90E0C7
:101594000197F1F70895109639F080ED97E00197DF
:1015A400F1F7A8951197C9F70895EE230E2EEA2FA7
:1015B40019F0EE0F0A94E9F70895EE230E2EEA2FA0
:1015C40019F0E6950A94E9F70895FA9FF02DEB9F38
:1015D400F00DEA9FE02DF10D0895ED91FC91119726
:1015E4000895E199FECFFF93FFB7F894AEBBBFBB5C
:1015F400E09AEDB3FFBFFF910895E19B02C0A89567
:10160400FCCF9FB7F894AEBBBFBBE09A8DB3E8178D
:1016140019F0EDBBE29AE19A9FBF089500240A16DF
:101624000B0608955A934A933A932A931A930A936A
:1016340008955D814C813B812A8119810881089537
:00000001FF
