:0C0000000C946E010C9400000C940000A5
:10000C000C9400000C9400000C9400000C94000064
:10001C000C9400000C9400000C9400000C94000054
:10002C000C9400000C9400000C9400000C941D0225
:10003C000C9400000C9400000C9400000C94000034
:10004C000C9400000C9400000C9400000C94000024
:10005C000C9400000C9400000C9400000C94000014
:10006C000C9400000C9400000C9400000C94000004
:10007C000C9400000C9400000C9400000C940000F4
:10008C0005072060000000000000005F0000000772
:10009C00000700147F147F14242A7F2A12231308CC
:1000AC00646236495522500005030000001C2241B1
:1000BC00000041221C00082A1C2A0808083E0808D7
:1000CC0000503000000808080808003030000020FC
:1000DC00100804023E5149453E00427F40004261F7
:1000EC005149462141454B311814127F1027454583
:1000FC0045393C4A4949300171090503364949499A
:10010C0036064949291E00363600000056360000D6
:10011C00000814224114141414144122140800026F
:10012C0001510906324979413E7E1111117E7F49F8
:10013C004949363E414141227F4141221C7F494978
:10014C0049417F090901013E414151327F080808AC
:10015C007F00417F41002040413F017F0814224134
:10016C007F404040407F0204027F7F0408107F3EA6
:10017C004141413E7F090909063E4151215E7F09FB
:10018C00192946464949493101017F01013F404047
:10019C00403F1F2040201F7F2018207F631408142D
:1001AC00630304780403615149454300007F4141D6
:1001BC00020408102041417F0000040201020440A7
:1001CC0040404040000102040020545454787F48C1
:1001DC004444383844444420384444487F385454C8
:1001EC005418087E090102081454543C7F08040476
:1001FC007800447D40002040443D00007F1028449E
:10020C0000417F40007C041804787C080404783892
:10021C00444444387C14141408081414187C7C08C6
:10022C000404084854545420043F4440203C4040AB
:10023C00207C1C2040201C3C4030403C4428102892
:10024C00440C5050503C4464544C4400083641001B
:10025C0000007F0000004136080002010204027F0A
:10026C004141417F000103070F1F3F7FFF0000004A
:10027C000000000000001900000000000000000059
:10028C00000054454D503A0048554D493A00444100
:10029C004E4720534159210053617920786F6E6786
:1002AC00210080C001002D4E414E00494E460000F9
:1002BC000A0004007A020A0000059A020A000A05E4
:1002CC00A40202002B07AE0201003207B0020000AC
:1002DC00F894EE27ECBBF1E0F5BFE5BFE0936C00C2
:1002EC008DE0A2E0BB27ED938A95E9F780E090E1E1
:1002FC00A0E0B1E0ED930197E9F7ECEBF2E085912A
:10030C009591009761F0A591B59105901590BF015D
:10031C00F00105900D920197E1F7FB01F0CF8BBF37
:10032C00EFEFEDBFE0E1EEBFC0E0D5E00C9473025F
:10033C00BA93AA932A978AE0A0E0B0E0E4E8F2E04E
:10034C000E94D7090E94CB09BF9AC79A80EA8A9566
:10035C00F1F7C798A9E1B0E00E944109BF98C79A8C
:10036C0080EA8A95F1F7B79B02C0E0E05CC0B79BCE
:10037C00FECF80EA8A95F1F7B79902C0E0E053C04E
:10038C00B799FECF00E010E00530E0E01E0764F501
:10039C0020E030E02830E0E03E071CF5B79BFECFB4
:1003AC0085E88A95F1F7B79B19C0F801DE01149620
:1003BC00EE0FFF1FEA0FFB1FCF0160817181E7E099
:1003CC00F0E0E21BF30BA1E0B0E00E945F09E62B2A
:1003DC00F72BDC01ED93FC93B799FECF2F5F3F4FCA
:1003EC00D9CF0F5F1F4FD0CFEE81FF81AC81BD8184
:1003FC00EA0FFB1FA885B985EA0FFB1FAA85BB85F1
:10040C00EA0FFB1F2F01EC85FD85E415F50511F0B6
:10041C00E0E009C0E885A889B989EC93EC81AE8548
:10042C00BF85EC93E1E00E94D209629608950A928E
:10043C00EA93FA93EFB7EA93E0EEEDBDE0ECECBD96
:10044C008820B1F0E0EDF7E0EA15FB0511F4AA24E1
:10045C00BB240A2C0B2811F49498959AE8EEF3E03F
:10046C00EA15FB0511F49598949AF50131965F0104
:10047C00E991EFBFF991E99109901895BA93AA9374
:10048C00A881EFEFEA1BE1BF22960895E6E0F0E0C9
:10049C00FA93EA93A9E0B0E04BDF7E2EE1E0E7159A
:1004AC00D9F40E949F08AEE8B2E00E94DC07A62DAA
:1004BC000E94A608A62D0E94AF08E0E0EA93A1E0F6
:1004CC000E949E07A4E9B2E00E94DC07A92D0E94BD
:1004DC00A608A92D0E94AF0808952897ECE8F0E033
:1004EC00E883F983EE81EC7FEE83E37EE061EE83BB
:1004FC00EF81E078E264EF83DE01DBD0A0E10E94C3
:10050C00EE07BC9A8F9A8C9A8D9AE0E0E0BFE4E7F4
:10051C00E3BFE0E0E2BFA0E0B0E0B0DFE0E0EFBDC1
:10052C00E1E0EEBDE0EEEDBDE0ECECBDE4E0E7BFFC
:10053C00E0E0E0937D00BA98C29ABB98C39A789495
:10054C00AAE9B2E00E94DC07EAE0EA93EA93A0E0B1
:10055C00B5E00E944B07B29B99DFD6018FDFA8EE66
:10056C00B3E00E944109EFEFF0E0CE16DF06CCF0CD
:10057C00A0EDB7E00E944109A0E0B0E07FDFE1E030
:10058C008E2E0E949F08BC98A4EAB2E00E94DC0761
:10059C0037D1EAE0EA93EA93AAE0B5E00E944B0770
:1005AC0008C0D601E2E0F0E00E948309CE0EDF1E07
:1005BC00D2CF2896FFCF0895AA931A93E0916500A5
:1005CC00EF7EE093650018E0F6DFE981E07821F03A
:1005DC00E0916500E26003C0E0916500ED7FE0937F
:1005EC006500E981EE0FE983E6DFE0916500E460E8
:1005FC00E0936500E0DFE0916500EB7FE093650040
:10060C00115011F7E0916500E061E09365001881ED
:10061C000C943708AA93E0916500EE7FE093650097
:10062C00A881CADF0C941C08AA93E0916500E160D4
:10063C00E0936500A881C0DF0C941C08AA931A9360
:10064C00E981E695E695E6951E2FE4E5E19FF0013C
:10065C00DF01EA81F0E0EA0FFB1FE0933105F09334
:10066C003205E12F18810C947E08AA93E981E06889
:10067C00AE2FD0DFE981EA93A981E0DFE064AE2FF1
:10068C00C9DF0C943708AA93E981EA93A981EDDFBD
:10069C00E0913105F0913205ED5CFA4FE0810C945C
:1006AC003708AA930E94B808A881A083BDDF0C94D8
:1006BC001C08BA93AA930E94CB09E0916400E061F4
:1006CC000E94C308E061E0936500E0916400E4607F
:1006DC000E94C308EB7FE0936500E0916400E26048
:1006EC00E0936400E0916400E160E0936400E091C9
:1006FC006400E8600E94C308E77FE0936500AAE00D
:10070C00B0E00E944109E0916500E860E09365006B
:10071C00EC81FD81309721F1E681E3701E2FEC8195
:10072C00FD81E681E695E695E7700E2FEC81FD8163
:10073C00E781EF773E2FAC81BD810E94A409E09345
:10074C001805F093190512960E94A409E0932D0543
:10075C00F0932E05AC81BD8114960E94A4090DC0A6
:10076C0010E003E032E3E0E0F0E0E0931805F093F2
:10077C001905E0932D05F0932E05E0932F05F093CA
:10078C003005A1E247DFE12FE460AE2F43DFE02F1D
:10079C00E061AE2F3FDFE32FE068AE2F3BDFA0E23E
:1007AC0039DFA1E022D0E1E0E0931405E0E0E09332
:1007BC001505E1E0E0931A05E0931B05E0931C0599
:1007CC00EFEFE0931D05E1E0E0932405E5E2F5E0B1
:1007DC00FA93EA93EFEFEA93A8E0B0E00E941E08C8
:1007EC000FD0E1E00E94D20960C0AA93E881E0300A
:1007FC0011F0ECE001C0E8E0AE2F0CDF0C941C080B
:10080C000E94CB0930E0E0911505E03009F03FEF94
:10081C00E0E0EA93A0E029DF08EF11E0F8010150D5
:10082C001040309719F0A32F3CDFF8CFE0E0EA93AB
:10083C00A0E040D30E94D2090C949D08AA931A936D
:10084C00ED81EA93AD811FDF1E2FE981E73011F0B6
:10085C00E83039F4EB81EA93AA810E943908EB83E2
:10086C0008C0E33021F4EB81E095EB8302C0E0306B
:10087C0021F4EA81E0951E2302C0E23029F4EA81DA
:10088C00AB81EA231E2B0EC0E13029F4EA81AB8147
:10089C00EA231E2707C0E43029F4EA81E095AB81F6
:1008AC00EA2B1E23A12FFDDE188126960895AA930C
:1008BC0023970E94C909A889A43548F4AF85A033B1
:1008CC0030F4AE85A03019F0AD85A03009F4CCC160
:1008DC00EE85E887A889BB27EE85F0E0AE0FBF1F39
:1008EC00A535E0E0BE0720F0A889E4E5EA1BEE8719
:1008FC002D85AF85BB27ED85F0E0AE0FBF1FD197DF
:10090C0020F0AF85E0E3EA1BED87A985A63009F05E
:10091C005BC0EC85E13009F4A7C1E33039F4E09118
:10092C002F05F0913005309709F49EC10885ED85AF
:10093C00E695E695E6953E2FE22FE77019F4AD8526
:10094C002A17E9F0A02FBB27E32FF0E00E946809DB
:10095C00AA85BB850E94C808269526952695532FF7
:10096C005F935F5FE22FAF91EA1748F0102FE12FF2
:10097C001150E03019F00E94CD08F9CFF1CFAE85BF
:10098C000A1711F1EE85AA85BB85F0E00E94C80814
:10099C00ED85E77009F03F5F20E02F932F5FE32F89
:1009AC00AF91AE1788F41E851F931F5FE02FAF9198
:1009BC00AE1718F40E94CD08F7CFEE85AE81BF813B
:1009CC00F0E00E94C808E9CFEF85E7703E2FED8577
:1009DC00E03009F449C1EA85FB85EE83FF8310E022
:1009EC000889303009F063C0AD85A83008F45AC0CE
:1009FC00E985E03011F0E33009F402C0E73009F486
:100A0C0002C0E83009F402C0E93009F402C0EA304F
:100A1C0021F40A93A88929DE04C0E63011F40E945F
:100A2C00DA081F931F5FEE85AF91AE17A0F5A9856D
:100A3C00A63051F40E94DE08FA93EA930E94B8089B
:100A4C00A0810E94800826C0E985E93011F450E0AD
:100A5C000EC0EA3011F45FEF0AC00E94DE080E945B
:100A6C00E7085E2FE985E73011F0E83021F40E94A9
:100A7C00ED085E2F06C0E33011F4509502C0E03053
:100A8C0019F4A52FD1DD06C00E94F108EFEFEA930F
:100A9C00AD85D4DEC6CFEF85E85FEF87ED85E850F6
:100AAC00ED87D9C05D8520E0E0E0ED877EC0E32FC7
:100ABC00AD85AE0FA93020F42D85E0E0ED8703C0A5
:100ACC00E8E0E31B2E2F3A93A22F0E942E084E2F04
:100ADC00E985E63011F50E94DA081F931F5FEE8559
:100AEC00AF91AE17C8F40E94B808E081E423AE2F92
:100AFC00E32F0E9457090E94F708E32FA42F0E94AE
:100B0C005709E095E1215E2B0E94DE08FA93EA93E7
:100B1C00A52F0E948008E1CF2CC0E93011F450E0E1
:100B2C0003C0EA30A9F45FEF0E94ED08AE2FE32F6B
:100B3C000E944F095E2F1F931F5FEE85AF91AE177A
:100B4C0030F40E94F1084A93A0E078DEF4CF11C093
:100B5C001F931F5FEE85AF91AE1758F40E940209E8
:100B6C00AE2FE32F0E944F09EA934A93AD8566DEC0
:100B7C00EFCFED85E03009F477C0AD85A83028F4CF
:100B8C00ED85E21B5E2FE0E003C0532FED85E850AE
:100B9C00ED8710E0EF85E85FEF87E8E0E31B2E2F91
:100BAC000889EA85FB85EE83FF83E52FF0E0E059A9
:100BBC00FD4F4491E985E63011F50E94DA081F9348
:100BCC001F5FEE85AF91AE17C8F40E94B808E081A4
:100BDC00E423AE2FE22F0E944F090E94F708E22F68
:100BEC00A42F0E944F09E095E1215E2B0E94DE08A4
:100BFC00FA93EA93A52F0E948008E1CF2CC0E9302C
:100C0C0011F450E003C0EA30A9F45FEF0E94ED0844
:100C1C00AE2FE22F0E9457095E2F1F931F5FEE85A8
:100C2C00AF91AE1730F40E94F1084A93A0E006DEB3
:100C3C00F4CF11C01F931F5FEE85AF91AE1758F420
:100C4C000E940209AE2FE22F0E945709EA934A93A1
:100C5C00AD85F4DDEFCFE885AA85BB85F0E0EA0F22
:100C6C00FB1FEA87FB87B3CE0E94D00961960895DB
:100C7C000E940F0924F0E0E0F0E00C943708A88102
:100C8C00B981A435E0E0BE0724F0E3E5F0E00C9474
:100C9C003708E881F9810C9437080E940F0924F079
:100CAC00E0E0F0E00C943708A881B981D09724F0EB
:100CBC00EFE2F0E00C943708E881F9810C943708E6
:100CCC00BA93AA9323970E9416098F01002E012A2A
:100CDC0019F4E0E0F0E05FC00E941D090F820E9451
:100CEC001D090E820E941D090886EB85A885EA174E
:100CFC0018F4E0E0F0E04FC0F8010F5F1F4F549183
:100D0C00A885BB27EE27A50FBE1FEB85F0E0EA17E1
:100D1C00FB0718F0E0E0F0E03EC0EE81E695E695CA
:100D2C00E6954E2FEE81E77009F04F5FEF81E030D2
:100D3C00A1F0A985BA85EC93A885EB85EA1BF0E0B8
:100D4C00DF01EF81F0E00E946809DF01E42FF0E0A1
:100D5C000E946809E00FF11F1EC09801E52FF0E01A
:100D6C000E0F1F1FA885AF5FA887A150EB85AE178C
:100D7C0060F4F9012F5F3F4FA491B0E0E42FF0E055
:100D8C000E9468090E0F1F1FEDCFF901E491A98590
:100D9C00BA85EC93F8010E94D0092C960895E0E0F6
:100DAC00E0931605A0911705BB270E942209F0E0DD
:100DBC00AE0FBF1FE0911B05F0E0AE0FBF1F6DDF44
:100DCC00E09317050895AA9321970E94160930976E
:100DDC0009F455C0AF81AA3009F44FC0EF81EA93F2
:100DEC00DE0117966DDFAF01309709F44AC0E09130
:100DFC001A05AE81EA0F3E2FA0911605BB27F0E035
:100E0C00EA0FFB1F8F010535E0E01E0718F0032FDA
:100E1C001127C5DFE0911605EA93E0911705EA93D7
:100E2C00E885EA930E942209EA93E1E0EA935A9357
:100E3C004A93A7E03CDDE0911605AE81EA0FEA93F8
:100E4C00E0911705EA93E0911A05EA930E942209B2
:100E5C000E942909E0911605EA93A09117050E94BA
:100E6C002209EA0FEA933A93E0911B050E942909A3
:100E7C00E4E5F0E0E017F10711F491DF02C0009314
:100E8C0016050E94D00928960895BA93AA931A932E
:100E9C00EC81EA93AC810ED0A981BA81ED91A98342
:100EAC00BA831E2FE03019F0A12F8DDFF5CF1881FA
:100EBC000C942C08AA93A981BB27DADEE0931605C3
:100ECC00A881BB27EADEE09317050C943708AA9398
:100EDC00E881E07111F0DB9A01C0DB98E881E072E7
:100EEC0011F0DC9A01C0DC98E881E07411F0DD9A15
:100EFC0001C0DD98E881E07811F0DE9A01C0DE983F
:100F0C008DE08A95F1F7DA9A8DE08A95F1F7DA9807
:100F1C008DE08A95F1F78AC0AA93A881D8DFE88181
:100F2C00E295E883A881D3DF85E88A95F1F77EC046
:100F3C00AA93E881F0E0E55DF84FE081A981AE0F5E
:100F4C00EBDFE981E0932F07E881E093300789C05C
:100F5C00A2E00E943309ACE0DFDFA1E00E9433097C
:100F6C00E0E0E0933007E0932F070895AA93A8815F
:100F7C00AA3031F0E0913107A0912F07AE1760F045
:100F8C00E0E0EA93A0913007AF5FA0933007D0DF89
:100F9C00A881AA3009F44AC0E0912F07EF5FE093D3
:100FAC002F07D89AA881B8DFD89840C0BA93AA93D3
:100FBC001A93E981FA813196E983FA833197E491A6
:100FCC001E2FE03019F0A12FD1DFF3CF188190C084
:100FDC00AA93D39AD49AD59AD69AD29AD09AD19ACD
:100FEC00DA98D898D998E881E0933107E058E093E3
:100FFC002D07E881E054E0932E07A4E1B0E00E94B5
:10100C0041090E9439090E9439090E943909A0E25C
:10101C005EDF88EC90E00197F1F7A8E27DDFA4E0B9
:10102C007BDFA5E879DFA6E077DF92DF21960895D4
:10103C00BA93AA93B981A881109631F0FC81EB8107
:10104C006A8161931197E9F7EB81FC8125960895EC
:10105C00AA93E881F0E0E059FD4FA491E9810E9448
:10106C004F0922960895AA931A93E981E73011F05B
:10107C00EA3019F41091140509C0E93019F41091F3
:10108C00150504C0E830A1F410912405E091150574
:10109C00E03049F0103019F0EFEF188129C0EA81E7
:1010AC00E095188125C0103019F4E0E0188120C0BB
:1010BC00EA8118811DC0BA93AA93EA81E13021F428
:1010CC00E881F981E49114C0E23029F4A881B98156
:1010DC000E94A8090DC0E33041F4A881B981E091C8
:1010EC002D05F0912E05099503C0A881B981EC91CD
:1010FC0023960895AA93EB81E03029F4E881A98125
:10110C00BA81EC9314C0E23031F4E881A981BA8140
:10111C000E94B4090CC0E33051F4E981FA81FA93CE
:10112C00EA93AA81E0912F05F09130050995249658
:10113C0008950E94AE07E0E0EA93A0E00C949E07AD
:10114C00B0E0EAE0F0E00E948309E05DAE2F0C9481
:10115C00BC07BB27EAE0F0E00E948809E05DAE2FF7
:10116C000C94BC07A1E3B5E0ED91FD913196FE9393
:10117C00EE933197ED5CFA4F0895E0936400E091A3
:10118C0065000895EA0FFB1FEE83FF830895EC853D
:10119C00EA93EF81F8853196EF83F8873197FA93CC
:1011AC00EA93A0E00C9480080A93A8890C94240379
:1011BC00EC85EA93EF81F8853196EF83F8873197C8
:1011CC00089566277727DF01CB010C9461085A93A9
:1011DC00AA850C9439080A930395E889EA935A93E3
:1011EC0008955E2FEC85EA93AF81B88588279927FF
:1011FC000E9461081E2E08950A930395E889EA93CC
:10120C00EE85EA93E985FA853196E987FA87319775
:10121C00D8CFBA93AA93A881B9810E94C509089521
:10122C000E94C909E0911805F09119050895F8017B
:10123C000F5F1F4F04900895E0911805F091190568
:10124C003196E4910895EA93E0E0EA93E0E0F0E06F
:10125C00FA93EA93A9E00C945D040E949207A3E030
:10126C00B0E00C944109A0E30E946D0788EC90E07B
:10127C000197F1F70895109639F080ED97E00197FA
:10128C00F1F7A8951197C9F70895F195E195F040FC
:10129C000895EE230E2EEA2F19F0EE0F0A94E9F7BB
:1012AC000895EE230E2EEA2F19F0E6950A94E9F72D
:1012BC000895EE230E2EFD0121F0EE0FFF1F0A9470
:1012CC00E1F70895FA9FF02DEB9FF00DEA9FE02DCA
:1012DC00F10D08950024112490E1AA0FBB1F001CEE
:1012EC00111C0E1A1F0A18F40E0E1F1E01C0A1604D
:1012FC009A9599F7FD01D001089512D0EBDF0EF409
:10130C00C4DF0895E894B7FF04C0A095B09511967A
:10131C006894F7FDBADFDEDFFD010EF4B6DF089549
:10132C00E894F7FF02C0B1DF6894B7FF06C0A09540
:10133C00B095119600F8039400FA0895ED91FC9184
:10134C0011970895E199FECFFF93FFB7F894AEBBC8
:10135C00BFBBE09AEDB3FFBFFF910895E19B02C0C4
:10136C00A895FCCF9FB7F894AEBBBFBBE09A8DB3EA
:10137C00E81719F0EDBBE29AE19A9FBF089500249B
:10138C000A160B0608955A934A933A932A931A9382
:10139C000A9308955D814C813B812A8119810881D2
:1013AC000895AC0FBD1F05900D928A95E1F7089535
:00000001FF
