:020000000C945E
:10000200A3010C9400000C9400000C9400000C94CA
:1000120000000C9400000C9400000C9400000C945E
:1000220000000C9400000C9400000C9400000C944E
:1000320000000C9400000C9400000C9400000C943E
:1000420000000C9400000C9400000C9400000C942E
:1000520000000C9400000C9400000C9400000C941E
:1000620000000C9400000C9400000C9400000C940E
:1000720000000C9400000C9400000C9400000C94FE
:1000820000000C9400000C940000050720600000A2
:1000920000000000005F00000007000700147F144A
:1000A2007F14242A7F2A12231308646236495522B8
:1000B200500005030000001C2241000041221C00E8
:1000C200082A1C2A0808083E0808005030000008C8
:1000D20008080808003030000020100804023E51D1
:1000E20049453E00427F4000426151494621414517
:1000F2004B311814127F1027454545393C4A49496E
:100102003001710905033649494936064949291E14
:100112000036360000005636000000081422411452
:100122001414141441221408000201510906324920
:1001320079413E7E1111117E7F494949363E414146
:1001420041227F4141221C7F494949417F090901DE
:10015200013E414151327F0808087F00417F410042
:100162002040413F017F081422417F404040407FB0
:100172000204027F7F0408107F3E4141413E7F0915
:100182000909063E4151215E7F091929464649491E
:10019200493101017F01013F4040403F1F20402083
:1001A2001F7F2018207F631408146303047804035C
:1001B200615149454300007F41410204081020413A
:1001C200417F00000402010204404040404000011F
:1001D20002040020545454787F484444383844443C
:1001E2004420384444487F3854545418087E090146
:1001F20002081454543C7F0804047800447D4000F3
:100202002040443D00007F10284400417F40007C94
:10021200041804787C0804047838444444387C1474
:10022200141408081414187C7C0804040848545454
:100232005420043F4440203C4040207C1C2040206D
:100242001C3C4030403C44281028440C5050503C48
:100252004464544C44000836410000007F00000012
:100262004136080002010204027F4141417F000140
:1002720003070F1F3F7FFF001027E80364000A00F7
:10028200010000100001100001000000546F632003
:10029200646F3A20256425250056617420746F63CB
:1002A20020646F2063616F00486F616E2074686123
:1002B2006E6820636875207472696E682067696170
:1002C200740044616E6720676961742E2E2E0044AB
:1002D200616E672067696174004D617920676961A9
:1002E20074004254312E2047494154004254322E68
:1002F20020564154004D415920474941540080C085
:1003020001002D4E414E00494E46000002000400FD
:100312008C020F0000059B021A000F05AA020D00B5
:100322002905C40209003605F7020A003F05E40266
:1003320009004905EE0202008907000301008D074A
:1003420002030000F894EE27ECBBF1E0F5BFE5BF35
:10035200E0936C008DE0A2E0BB27ED938A95E9F76C
:1003620080E090E1A0E0B1E0ED930197E9F7EEE0E3
:10037200F3E085919591009761F0A591B591059073
:100382001590BF01F00105900D920197E1F7FB0175
:10039200F0CF8BBFEFEFEDBFE0E1EEBFC0E0D5E005
:1003A2000C946702BA93AA93E881E1BF52C1EFE6C7
:1003B200F5E0FA93EA93EEE8F2E0FA93EA93F201B7
:1003C200A4E6B0E00E94220BDF01EFEFF0E00E9412
:1003D2003A0B0E94150B0E94550B84E00E94B00854
:1003E2002896EAE0EA93E8E2EA93AFE6B5E00E94F3
:1003F2001F07E0E0EA93A1E00E941509AFE6B5E02D
:100402000E9443090895D5D10E942209ABE9B2E0C6
:100412000E944F090E942B0AA0E0B5E00E941F072C
:10042200C6DF0895EFEFF0E02F01D201BBDFEBDF73
:10043200A8EBBBE00E94F30A0E94300ABAD1EAE0BC
:10044200EA93EEE1EA93AFE0B5E00E941F070E9453
:100452002209AAEAB2E00E944F09A0EDB7E00E9489
:10046200F30A08951A930A9300E010E0A2D10E94C1
:100472002B0AA9E2B5E00E941F070E942209A1ED02
:10048200B2E00E944F0900E010E00A30E0E01E07EF
:10049200BCF4F8013196A9E1B0E00E94220B2F01D1
:1004A200EFEFF0E0E415F5050CF42F01D2017ADF4D
:1004B2007EDFA8EEB3E00E94F30A0F5F1F4FE5CF85
:1004C2000E94300AAFDF0991199108952897ECE84C
:1004D200F0E0E883F983EE81EC7FEE83E37EE06176
:1004E200EE83EF81E078E264EF83DE01BBD0A0E12E
:1004F2000E946209BA98C29ABB98C39ABC9AE4E76E
:10050200E3BFE0E0E2BFA0E0B0E04CDF0E942209DE
:1005120050D1ABEDB2E00E944F09E0E0EA93A1E0D6
:100522000E941509A4EEB2E00E944F09AEEEB2E0BD
:100532000E944F09EAE0EA93EA93A6E3B5E00E943B
:100542001F070E942B0AAFE3B5E00E941F07EAE0F3
:10055200EA93EEE1EA93A9E4B5E00E941F07B29B99
:1005620081DFB39B5FDFAAEFB0E00E94F30AF7CF0F
:10057200FFCF0895AA931A93E0916500EF7EE0936E
:10058200650018E0F6DFE981E07821F0E09165008E
:10059200E26003C0E0916500ED7FE0936500E981D0
:1005A200EE0FE983E6DFE0916500E460E093650029
:1005B200E0DFE0916500EB7FE0936500115011F7F9
:1005C200E0916500E061E0936500188142C0AA9362
:1005D200E0916500EE7FE0936500A881CBDFE7C084
:1005E200AA93E0916500E160E0936500A881C2DF13
:1005F200DEC0AA931A93E981E695E695E6951E2F49
:10060200E4E5E19FF001DF01EA81F0E0EA0FFB1F80
:10061200E0938F05F0939005E12F188123960895BA
:10062200AA93E981E068AE2FD2DFE981EA93A9813A
:10063200E0DFE064AE2FCBDF0CC0AA93E981EA933E
:10064200A981EEDFE0918F05F0919005EF56FA4F08
:10065200E08122960895AA930E94360AA881A08377
:10066200BFDFA5C0BA93AA930E947D0BE0916400FC
:10067200E0610E94410AE061E0936500E09164005C
:10068200E4600E94410AEB7FE0936500E091640020
:10069200E260E0936400E0916400E160E093640052
:1006A200E0916400E8600E94410AE77FE093650000
:1006B200AAE0B0E00E94F30AE0916500E860E093EE
:1006C2006500EC81FD81309721F1E681E3701E2FF8
:1006D200EC81FD81E681E695E695E7700E2FEC81CF
:1006E200FD81E781EF773E2FAC81BD810E944D0BEA
:1006F200E0935605F093570512960E944D0BE09336
:100702006B05F0936C05AC81BD8114960E944D0B74
:100712000DC010E003E032E3E0E0F0E0E0935605C4
:10072200F0935705E0936B05F0936C05E0936D052C
:10073200F0936E05A1E24BDFE12FE460AE2F47DFBD
:10074200E02FE061AE2F43DFE32FE068AE2F3FDF03
:10075200A0E23DDFA1E022D0E1E0E0935205E0E03B
:10076200E0935305E1E0E0935805E0935905E093E7
:100772005A05EFEFE0935B05E1E0E0936205E3E603
:10078200F5E0FA93EA93EFEFEA93A8E0B0E00E9473
:1007920091090FD0E1E00E94840B60C0AA93E88126
:1007A200E03011F0ECE001C0E8E0AE2F10DF21965E
:1007B20008950E947D0B30E0E0915305E03009F08E
:1007C2003FEFE0E0EA93A0E02BDF08EF11E0F80151
:1007D20001501040309719F0A32F3DDFF8CFE0E031
:1007E200EA93A0E03BD30E94840B24960895AA9337
:1007F2001A93ED81EA93AD8120DF1E2FE981E73064
:1008020011F0E83039F4EB81EA93AA810E94C5091C
:10081200EB8308C0E33021F4EB81E095EB8302C067
:10082200E03021F4EA81E0951E2302C0E23029F48F
:10083200EA81AB81EA231E2B0EC0E13029F4EA8162
:10084200AB81EA231E2707C0E43029F4EA81E09550
:10085200AB81EA2B1E23A12FFEDE18812696089576
:10086200AA9323970E947B0BA889A43548F4AF85ED
:10087200A03330F4AE85A03019F0AD85A03009F474
:10088200CCC1EE85E887A889BB27EE85F0E0AE0FE4
:10089200BF1FA535E0E0BE0720F0A889E4E5EA1B0A
:1008A200EE872D85AF85BB27ED85F0E0AE0FBF1F2C
:1008B200D19720F0AF85E0E3EA1BED87A985A6304A
:1008C20009F05BC0EC85E13009F4A7C1E33039F4EB
:1008D200E0916D05F0916E05309709F49EC108858F
:1008E200ED85E695E695E6953E2FE22FE77019F441
:1008F200AD852A17E9F0A02FBB27E32FF0E00E9475
:100902001A0BAA85BB850E94460A2695269526952E
:10091200532F5F935F5FE22FAF91EA1748F0102FDA
:10092200E12F1150E03019F00E944B0AF9CFF1CFBC
:10093200AE850A1711F1EE85AA85BB85F0E00E940B
:10094200460AED85E77009F03F5F20E02F932F5FA5
:10095200E32FAF91AE1788F41E851F931F5FE02F20
:10096200AF91AE1718F40E944B0AF7CFEE85AE8115
:10097200BF81F0E00E94460AE9CFEF85E7703E2F83
:10098200ED85E03009F449C1EA85FB85EE83FF83FA
:1009920010E00889303009F063C0AD85A83008F452
:1009A2005AC0E985E03011F0E33009F402C0E730C3
:1009B20009F402C0E83009F402C0E93009F402C0C7
:1009C200EA3021F40A93A8892BDE04C0E63011F440
:1009D2000E94580A1F931F5FEE85AF91AE17A0F5D4
:1009E200A985A63051F40E945C0AFA93EA930E9408
:1009F200360AA0810E940C0A26C0E985E93011F46A
:100A020050E00EC0EA3011F45FEF0AC00E945C0AA7
:100A12000E94650A5E2FE985E73011F0E83021F483
:100A22000E946B0A5E2F06C0E33011F4509502C09B
:100A3200E03019F4A52FD4DD06C00E946F0AEFEF53
:100A4200EA93AD85D4DEC6CFEF85E85FEF87ED850B
:100A5200E850ED87D9C05D8520E0E0E0ED877EC0FB
:100A6200E32FAD85AE0FA93020F42D85E0E0ED87B0
:100A720003C0E8E0E31B2E2F3A93A22F0E94BA098B
:100A82004E2FE985E63011F50E94580A1F931F5F29
:100A9200EE85AF91AE17C8F40E94360AE081E423D6
:100AA200AE2FE32F0E940D0B0E94750AE32FA42F95
:100AB2000E940D0BE095E1215E2B0E945C0AFA93E5
:100AC200EA93A52F0E940C0AE1CF2CC0E93011F461
:100AD20050E003C0EA30A9F45FEF0E946B0AAE2F28
:100AE200E32F0E94050B5E2F1F931F5FEE85AF91D0
:100AF200AE1730F40E946F0A4A93A0E078DEF4CF7A
:100B020011C01F931F5FEE85AF91AE1758F40E947C
:100B1200800AAE2FE32F0E94050BEA934A93AD851C
:100B220066DEEFCFED85E03009F477C0AD85A83001
:100B320028F4ED85E21B5E2FE0E003C0532FED8524
:100B4200E850ED8710E0EF85E85FEF87E8E0E31B10
:100B52002E2F0889EA85FB85EE83FF83E52FF0E0DF
:100B6200E059FD4F4491E985E63011F50E94580A9B
:100B72001F931F5FEE85AF91AE17C8F40E94360A2D
:100B8200E081E423AE2FE22F0E94050B0E94750A3A
:100B9200E22FA42F0E94050BE095E1215E2B0E941B
:100BA2005C0AFA93EA93A52F0E940C0AE1CF2CC0AB
:100BB200E93011F450E003C0EA30A9F45FEF0E947B
:100BC2006B0AAE2FE22F0E940D0B5E2F1F931F5F49
:100BD200EE85AF91AE1730F40E946F0A4A93A0E0FF
:100BE20006DEF4CF11C01F931F5FEE85AF91AE17E3
:100BF20058F40E94800AAE2FE22F0E940D0BEA9356
:100C02004A93AD85F4DDEFCFE885AA85BB85F0E098
:100C1200EA0FFB1FEA87FB87B3CE0E94820B619625
:100C220008950E948D0A24F0E0E0F0E00C94C309DC
:100C3200A881B981A435E0E0BE0724F0E3E5F0E045
:100C42000C94C309E881F9810C94C3090E948D0AAE
:100C520024F0E0E0F0E00C94C309A881B981D097B8
:100C620024F0EFE2F0E00C94C309E881F9810C94DE
:100C7200C309BA93AA9323970E94940A8F01002E64
:100C8200012A19F4E0E0F0E05FC00E949B0A0F82A3
:100C92000E949B0A0E820E949B0A0886EB85A88509
:100CA200EA1718F4E0E0F0E04FC0F8010F5F1F4FC1
:100CB2005491A885BB27EE27A50FBE1FEB85F0E058
:100CC200EA17FB0718F0E0E0F0E03EC0EE81E6959F
:100CD200E695E6954E2FEE81E77009F04F5FEF81C2
:100CE200E030A1F0A985BA85EC93A885EB85EA1BD3
:100CF200F0E0DF01EF81F0E00E941A0BDF01E42F48
:100D0200F0E00E941A0BE00FF11F1EC09801E52FC0
:100D1200F0E00E0F1F1FA885AF5FA887A150EB85DB
:100D2200AE1760F4F9012F5F3F4FA491B0E0E42FBA
:100D3200F0E00E941A0B0E0F1F1FEDCFF901E49194
:100D4200A985BA85EC93F8010E94820B2C9608952E
:100D5200E0E0E0935405A0915505BB270E94A00A4C
:100D6200F0E0AE0FBF1FE0915905F0E0AE0FBF1FDC
:100D72006DDFE09355050895AA9321970E94940A86
:100D8200309709F455C0AF81AA3009F44FC0EF8102
:100D9200EA93DE0117966DDFAF01309709F44AC07E
:100DA200E0915805AE81EA0F3E2FA0915405BB2772
:100DB200F0E0EA0FFB1F8F010535E0E01E0718F097
:100DC200032F1127C5DFE0915405EA93E091550501
:100DD200EA93E885EA930E94A00AEA93E1E0EA93A3
:100DE2005A934A93A7E03CDDE0915405AE81EA0FA5
:100DF200EA93E0915505EA93E0915805EA930E943F
:100E0200A00A0E94A70AE0915405EA93A091550511
:100E12000E94A00AEA0FEA933A93E09159050E94D0
:100E2200A70AE4E5F0E0E017F10711F491DF02C050
:100E3200009354050E94820B28960895BA93AA93B0
:100E42001A93EC81EA93AC8109D00E94B10A19F09D
:100E5200A12F92DFFACF18810C949F09AA93A9813E
:100E6200BB27DFDEE0935405A881BB27EFDEE093CA
:100E720055050C94C309BA93AA931A930A93AA81AB
:100E8200BB8112960E944D0B309759F1AA81BB810A
:100E920014960E944D0B8F01309761F00230E0E012
:100EA2001E0798F0F80131978F01AA81BB81149631
:100EB200ED93FC93AA81BB811296ED91FD9131963F
:100EC200FE93EE933197AC81A083AA81BB810E94ED
:100ED2004D0BFF232AF0ED91FD913196FE93EE9397
:100EE20006C0AA81BB81EFEFFFEFED93FC9319815E
:100EF20008810C949F09BA93AA9326970E947B0BB0
:100F020010E0AC85BD85E0E0F0E0ED93FC93EA896A
:100F1200FB893196EA8BFB8B3197E4912E2FE030DF
:100F220009F415C1E12FE03039F4253211F411E052
:100F320002C00E94B90A0AC1E130A9F4253219F4AB
:100F42000E94B90A02C112E040E000E02D3211F421
:100F520001E0FCC02B3211F44BE2F8C0203211F454
:100F620040E2F4C002C0E23039F450E013E0203332
:100F720011F40068EBC003C0E33009F0E7C020338E
:100F820010F02A3308F007C0AAE05A9F502DE22F32
:100F9200E0535E0FDBC0E22FE33649F40E94C00A41
:100FA200E889F989A481AA930E94C60ACEC0E337D0
:100FB20041F40E94C00A0E94CC0A0E94A1091E2F7D
:100FC2000AC0E03761F40E94C00A0E94CC0A0E9463
:100FD200AD091E2F086002600F7730E034C0E4369E
:100FE20011F0E93611F4046002C0E53731F4EAE7A2
:100FF200F2E0EE83FF8315E00CC0E83511F40860DF
:1010020003C0E83709F0A1C0E4E8F2E0EE83FF8311
:1010120014E002FF14C00E94C00A0E94D60AAB85E7
:10102200AA233AF4EA85FB850E94010BEA87FB8733
:101032004DE2403011F01F5F01C00B7F04C00E94DF
:10104200C00A0E94D60A00FD11C0151778F407FFE6
:1010520008C002FF04C00B7F242F115001C020E3FF
:1010620001C020E20E94B90A5150EFCF312F01FF97
:1010720017C03030A1F003FF06C0EE81FF81259139
:10108200EE83FF8305C0AE81BF812D91AE83BF8306
:101092000E94B90A503009F051503150EACF4BC08A
:1010A20020E3EE81FF810E94510BE887F987EE81F0
:1010B200FF813296EE83FF83E885F985AA85BB8599
:1010C200AE17BF0750F02F5FA885B985EA85FB856B
:1010D200EA1BFB0BEA87FB87EFCF2A3328F003FFDB
:1010E20002C0295F01C0295D04FD1AC0213320F42A
:1010F200A885B985119709F409C0531710F000FFAC
:1011020001C013C020E207FF0BC020E3006102FF11
:1011120007C00B7F4A930E94C60A503009F0515013
:101122000E94B90A503009F051503150A885B98552
:10113200129708F0B5CF00FF08C0503031F051507F
:10114200E0E2EA930E94C60AF8CF10E0E0CEAC8556
:10115200BD850E944D0B0E94820B64960895FF92FA
:10116200F82E26970E947D0B0E94DE0A309719F412
:10117200EFEFFFEF23C0DE0116960E94FD0A8D01FC
:101182000E94DE0AEE83FF83E0E0E887E987DE0162
:101192001A960E94FD0A0E944D0BFA93EA931A9343
:1011A2000A93ECE3F7E0FA93EA93DE011A96A3DEE0
:1011B2009F01AE81BF81E0E0EC93F9010E94840BB4
:1011C2002A96FF900895AA93E881E07111F0DB9AC4
:1011D20001C0DB98E881E07211F0DC9A01C0DC9872
:1011E200E881E07411F0DD9A01C0DD98E881E078D1
:1011F20011F0DE9A01C0DE988DE08A95F1F7DA9A55
:101202008DE08A95F1F7DA988DE08A95F1F786C03C
:10121200AA93A881D8DFE881E295E883A881D3DF89
:1012220085E88A95F1F77AC0AA93E881F0E0E7575A
:10123200F84FE081A981AE0FEBDF798068800C94D2
:10124200C309A2E00E94E50AACE0E2DFA1E00E944D
:10125200E50AE0E06E2E7E2E0895AA93A881AA30B8
:1012620011F0791448F0E0E0EA936394A62DDCDFF4
:10127200A881AA3009F452C07394D89AA881C8DF11
:10128200D8984CC0BA93AA931A930E94B10A19F043
:10129200A12FE3DFFACF18810C940A0ABA93AA931A
:1012A2001A93E981FA813196E983FA833197E491BD
:1012B2001E2FE03019F0A12FD0DFF3CF18810C944C
:1012C2000A0AAA93D39AD49AD59AD69AD29AD09A3B
:1012D200D19ADA98D898D9989880E881E058E09322
:1012E2008B07E881E054E0938C07A4E1B0E00E9410
:1012F200F30A0E94EB0A0E94EB0A0E94EB0AA0E2A8
:1013020062DF88EC90E00197F1F7A8E281DFA4E0C8
:101312007FDFA5E87DDFA6E07BDF93DF21960895DE
:10132200BA93AA93B981A881109631F0FC81EB811E
:101332006A8161931197E9F7EB81FC812596089503
:10134200BA93AA93A991B991EE27FF276D916623CB
:1013520011F03196FBCF0895BA93AA93AA27BB271F
:10136200E991F9910590002011F01196FBCFFD0152
:101372000895AA93E881F0E0E059FD4FA491E98134
:101382000E94050B22960895AA931A93E981E730E9
:1013920011F0EA3019F41091520509C0E93019F43C
:1013A2001091530504C0E830A1F410916205E09158
:1013B2005305E03049F0103019F0EFEF188129C0E1
:1013C200EA81E095188125C0103019F4E0E0188117
:1013D20020C0EA8118811DC0BA93AA93EA81E13044
:1013E20021F4E881F981E49114C0E23029F4A88162
:1013F200B9810E945A0B0DC0E33041F4A881B98132
:10140200E0916B05F0916C05099503C0A881B98143
:10141200EC9123960895AA93EB81E03029F4E881B8
:10142200A981BA81EC9314C0E23031F4E881A98138
:10143200BA810E94660B0CC0E33051F4E981FA8153
:10144200FA93EA93AA81E0916D05F0916E050995F0
:1014520024960895EAE0EA93E4E1EA9308954424A5
:101462005524A0E0B0E00C94D301AFE8B5E0ED91D3
:10147200FD913196FE93EE933197EF56FA4F089510
:10148200E0936400E09165000895EA0FFB1FEE838C
:10149200FF830895EC85EA93EF81F8853196EF8317
:1014A200F8873197FA93EA93A0E00C940C0A0A9316
:1014B200A8890C94FA02EC85EA93EF81F8853196BB
:1014C200EF83F8873197089566277727DF01CB01ED
:1014D2000C94ED095A93AA850C94C5090A930395B5
:1014E200E889EA935A9308955E2FEC85EA93AF81D7
:1014F200B885882799270E94ED091E2E08950A9320
:101502000395E889EA93EE85EA93E985FA853196AF
:10151200E987FA873197D8CFBA93AA93A881B9817C
:101522000E94770B08950E947B0BE0915605F09183
:1015320057050895F8010F5F1F4F04900895E09139
:101542005605F09157053196E4910895EA93E0E04B
:10155200EA93E0E0F0E0FA93EA93A9E00C94310414
:10156200A981BA81ED91A983BA831E2FE030089533
:101572002A93AD85BE85EF85F88909950895E88996
:10158200F9893497E88BF98B0895AD85BE85EF858F
:10159200F88909950895A889B98914960E944D0B76
:1015A200EE83FF83AE81BF810895A889B98914961D
:1015B2000E944D0BEA87FB870895DE011C960E946C
:1015C200FD0A0E944D0B08950E940909A3E0B0E0B4
:1015D2000C94F30AA0E30E94E40888EC90E00197DF
:1015E200F1F70895109639F080ED97E00197F1F741
:1015F200A8951197C9F708950024AF0DB01D08955D
:10160200F195E195F0400895EE230E2EEA2F19F0A0
:10161200EE0F0A94E9F70895EE230E2EEA2F19F041
:10162200E6950A94E9F708956F2F660F660B762FF9
:101632000895FA9FF02DEB9FF00DEA9FE02DF10D3A
:1016420008951CD0F6DF0EF4DBDF08950024112488
:1016520090E1AA0FBB1F001C111C0E1A1F0A18F4DE
:101662000E0E1F1E01C0A1609A9599F7FD01D001CF
:10167200089504D0EBDF0EF4C3DF0895E894F7FF7A
:1016820002C0BEDF6894B7FF06C0A095B095119660
:1016920000F8039400FA0895ED91FC9111970895D2
:1016A2000590F491E02D08957A936A93FA93EA9360
:1016B2000895E199FECFFF93FFB7F894AEBBBFBB8D
:1016C200E09AEDB3FFBFFF910895E19B02C0A89598
:1016D200FCCF9FB7F894AEBBBFBBE09A8DB3E817BF
:1016E20019F0EDBBE29AE19A9FBF089500240A1611
:1016F2000B0608955A934A933A932A931A930A939C
:1017020008955D814C813B812A8119810881089568
:00000001FF
