:040000000C948C01CF
:100004000C9400000C9400000C9400000C9400006C
:100014000C9400000C9400000C9400000C9400005C
:100024000C9400000C9400000C9400000C9400004C
:100034000C9400000C9453020C9400000C940000E7
:100044000C9400000C9400000C9400000C9400002C
:100054000C9400000C9400000C9400000C9400001C
:100064000C9400000C9400000C9400000C9400000C
:100074000C9400000C9400000C9400000C940000FC
:100084000C9400000C9400000507206000000000A0
:100094000000005F00000007000700147F147F14B5
:1000A400242A7F2A122313086462364955225000F9
:1000B40005030000001C2241000041221C00082A04
:1000C4001C2A0808083E08080050300000080808E8
:1000D4000808003030000020100804023E51494551
:1000E4003E00427F400042615149462141454B3127
:1000F4001814127F1027454545393C4A49493001B7
:10010400710905033649494936064949291E00360D
:10011400360000005636000000081422411414145E
:10012400141441221408000201510906324979418C
:100134003E7E1111117E7F494949363E414141229B
:100144007F4141221C7F494949417F090901013E00
:10015400414151327F0808087F00417F410020401F
:10016400413F017F081422417F404040407F020408
:10017400027F7F0408107F3E4141413E7F09090907
:10018400063E4151215E7F091929464649494931B4
:1001940001017F01013F4040403F1F2040201F7F5D
:1001A4002018207F63140814630304780403615146
:1001B40049454300007F4141020408102041417F2A
:1001C40000000402010204404040404000010204D7
:1001D4000020545454787F484444383844444420DC
:1001E400384444487F3854545418087E090102089E
:1001F4001454543C7F0804047800447D400020409B
:10020400443D00007F10284400417F40007C0418D6
:1002140004787C0804047838444444387C14141466
:1002240008081414187C7C08040408485454542006
:10023400043F4440203C4040207C1C2040201C3C87
:100244004030403C44281028440C5050503C4464F6
:10025400544C44000836410000007F000000413641
:10026400080002010204027F4141417F00010307AB
:100274000F1F3F7FFF0000000A0000000001000084
:10028400000001000200030004000500060007004E
:10029400080044616E672064692063687579656E3F
:1002A4000044616E672064692063687579656E2017
:1002B4002E2E2E0044656E2074616E670044656EB8
:1002C4002074616E673A200080C001002D4E414EBB
:1002D40000494E4600000A0004007A021100670536
:1002E40084020F000005960213000F05A502090001
:1002F4002205B8020B002B05C10209003605B8021D
:100304000B003F05C10202008C07CC0201009207DA
:10031400CE020000F894EE27ECBBF1E0F5BFE5BF98
:10032400E0936C008DE0A2E0BB27ED938A95E9F79A
:1003340080E090E1A0E0B1E0ED930197E9F7EAED08
:10034400F2E085919591009761F0A591B5910590A2
:100354001590BF01F00105900D920197E1F7FB01A3
:10036400F0CF8BBFEFEFEDBFE0E1EEBFC0E0D5E033
:100374000C943203EAEEE0936100BC9AA79ABD9A0A
:10038400E3E8E6B908950E94460A30E03330A0F568
:10039400303019F4EDEFE0936200313019F4E7EFF7
:1003A400E0936200323019F4EFEDE093620000E074
:1003B400033000F5003041F4E0B1E4701E2F143036
:1003C40019F00E9426091AC0013041F4E0B1E0712D
:1003D4001E2F103119F00E94260910C0023041F47A
:1003E400E0B1E1701E2F113019F00E94260906C0F9
:1003F4000F5FDECF3F5FCACFEFEFFFEF0E944D0AE2
:1004040024960895BA93AA932897ECE8F0E0E88339
:10041400F983EE81EC7FEE83EA85E770EE0FEE0F51
:100424000E2EEE81E37EE029EE83E885EF770E2E33
:10043400EF81E078E029EF83DE01ABD10C943F0734
:10044400A0E10E9447080E9414080895BA93AA9351
:10045400A881EFEFEA1BE1BF22960895C59A08959B
:10046400A8E7B0E0F3DF0895A0E0B0E0EFDFC598BF
:100474000895E0E0E0BFE4E7E3BFE0E0E2BFA0E02E
:10048400B0E0E4DFE0E0EFBDE1E0EEBDECEFEDBDB8
:10049400E0EEECBDE4E0E7BFE0E0E0937D007894BB
:1004A40008950A921A92FA926A937A938A939A9383
:1004B400AA93BA93EA93FA93EFB7EA931A930A9337
:1004C400ECEFEDBDE0EEECBDF20131962F01E8EC6E
:1004D400F0E04E165F0614F04424552446145704E5
:1004E40014F4AF9A01C0AF98E7ECF0E0E415F50519
:1004F40069F449DF8F01EFEFFFEFE017F10731F007
:10050400A9E8B5E0A00FB11FE1E0EC9309911991BE
:10051400E991EFBFF991E991B991A99199918991E3
:1005240079916991F99019900990189588249924E2
:100534000E94350964F00E943A09A13041F00E94FA
:10054400350909F40895F40131964F01F1CFBB2028
:10055400B1F046010E94350994F00E94350921F456
:100564000E943A09A03009F002C0BB2404C00E94D2
:100574003A09A13021F0F40131964F01EBCFBB20B1
:10058400C9F44601002480149004A4F00024081443
:10059400090421F40E943A09A03009F003C0E1E003
:1005A400BE2E08950E943A09A13021F0F40131973A
:1005B4004F01E8CF0E944009BB2011F051DF01C078
:1005C4004DDFA9E8B5E0AC0DBD1DEC91E03071F54F
:1005D40087D1E5E0EA93EAE0EA93A0E0B5E00E947F
:1005E4004B09A0E00E940508AFE0B5E00E943B087B
:1005F400BB2019F0F601319602C0F60131976F0164
:100604000E945209A2E2B5E00E945D090E94B70768
:10061400E0E0EA93A1E00E940508ABE2B5E00E94A5
:100624006609A8EEB3E00E94FD09CBCF59D10E9420
:100634005209A6E3B5E00E945D090E944B09A1E0BE
:100644000E940508AFE3B5E00E946609A9E8B5E099
:10065400AC0DBD1DE0E0EC9307DF0E944009089556
:10066400E4E0F0E0FA93EA93A2E4B0E0CBDEE8DE63
:1006740081DEFFDEDA92CA92A9E7B5E00E9477082C
:10068400EEE1EA93E4E1EA93A9E7B5E00E94B70753
:100694004DDFFECFFFCF0895AA931A93E091650032
:1006A400EF7EE093650018E0F6DFE981E07821F061
:1006B400E0916500E26003C0E0916500ED7FE093A6
:1006C4006500E981EE0FE983E6DFE0916500E4600F
:1006D400E0936500E0DFE0916500EB7FE093650067
:1006E400115011F7E0916500E061E0936500188115
:1006F4000C94BE08AA93E0916500EE7FE093650038
:10070400A881CADF0C947508AA93E0916500E160A2
:10071400E0936500A881C0DF0C947508AA931A932E
:10072400E981E695E695E6951E2FE4E5E19FF00163
:10073400DF01EA81F0E0EA0FFB1FE0939205F093FA
:100744009305E12F18810C940509AA93E981E068C7
:10075400AE2FD0DFE981EA93A981E0DFE064AE2F18
:10076400C9DF0C94BE08AA93E981EA93A981EDDF5D
:10077400E0919205F0919305EC56FA4FE0810C94C8
:10078400BE08AA930E946C09A881A083BDDF0C94C3
:100794007508BA93AA930E94460AE0916400E06146
:1007A4000E947709E061E0936500E0916400E460F1
:1007B4000E947709EB7FE0936500E0916400E260BA
:1007C400E0936400E0916400E160E0936400E091F0
:1007D4006400E8600E947709E77FE0936500AAE07F
:1007E400B0E00E94FD09E0916500E860E0936500D7
:1007F400EC81FD81309721F1E681E3701E2FEC81BD
:10080400FD81E681E695E695E7700E2FEC81FD818A
:10081400E781EF773E2FAC81BD810E941F0AE093F0
:100824004E05F0934F0512960E941F0AE09363054C
:10083400F0936405AC81BD8114960E941F0A0DC01B
:1008440010E003E032E3E0E0F0E0E0934E05F093E3
:100854004F05E0936305F0936405E0936505F09319
:100864006605A1E247DFE12FE460AE2F43DFE02F0E
:10087400E061AE2F3FDFE32FE068AE2F3BDFA0E265
:1008840039DFA1E022D0E1E0E0934A05E0E0E09323
:100894004B05E1E0E0935005E0935105E0935205E8
:1008A400EFEFE0935305E1E0E0935A05EBE5F5E063
:1008B400FA93EA93EFEFEA93A8E0B0E00E94A50868
:1008C4000FD0E1E00E944D0A60C0AA93E881E030B5
:1008D40011F0ECE001C0E8E0AE2F0CDF0C947508D9
:1008E4000E94460A30E0E0914B05E03009F03FEF0A
:1008F400E0E0EA93A0E029DF08EF11E0F8010150FD
:100904001040309719F0A32F3CDFF8CFE0E0EA93D2
:10091400A0E03BD30E944D0A0C942409AA931A9395
:10092400ED81EA93AD811FDF1E2FE981E73011F0DD
:10093400E83039F4EB81EA93AA810E94C008EB8382
:1009440008C0E33021F4EB81E095EB8302C0E03092
:1009540021F4EA81E0951E2302C0E23029F4EA8101
:10096400AB81EA231E2B0EC0E13029F4EA81AB816E
:10097400EA231E2707C0E43029F4EA81E095AB811D
:10098400EA2B1E23A12FFDDE188126960895AA9333
:1009940023970E94440AA889A43548F4AF85A0335C
:1009A40030F4AE85A03019F0AD85A03009F4CCC187
:1009B400EE85E887A889BB27EE85F0E0AE0FBF1F60
:1009C400A535E0E0BE0720F0A889E4E5EA1BEE8740
:1009D4002D85AF85BB27ED85F0E0AE0FBF1FD19706
:1009E40020F0AF85E0E3EA1BED87A985A63009F086
:1009F4005BC0EC85E13009F4A7C1E33039F4E09140
:100A04006505F0916605309709F49EC10885ED856A
:100A1400E695E695E6953E2FE22FE77019F4AD854D
:100A24002A17E9F0A02FBB27E32FF0E00E94170A52
:100A3400AA85BB850E947C09269526952695532F69
:100A44005F935F5FE22FAF91EA1748F0102FE12F19
:100A54001150E03019F00E948109F9CFF1CFAE8531
:100A64000A1711F1EE85AA85BB85F0E00E947C0986
:100A7400ED85E77009F03F5F20E02F932F5FE32FB0
:100A8400AF91AE1788F41E851F931F5FE02FAF91BF
:100A9400AE1718F40E948109F7CFEE85AE81BF81AD
:100AA400F0E00E947C09E9CFEF85E7703E2FED85E9
:100AB400E03009F449C1EA85FB85EE83FF8310E049
:100AC4000889303009F063C0AD85A83008F45AC0F5
:100AD400E985E03011F0E33009F402C0E73009F4AD
:100AE40002C0E83009F402C0E93009F402C0EA3077
:100AF40021F40A93A88929DE04C0E63011F40E9487
:100B04008E091F931F5FEE85AF91AE17A0F5A985DF
:100B1400A63051F40E949209FA93EA930E946C0958
:100B2400A0810E94070926C0E985E93011F450E04C
:100B34000EC0EA3011F45FEF0AC00E9492090E94CD
:100B44009B095E2FE985E73011F0E83021F40E941B
:100B5400A1095E2F06C0E33011F4509502C0E030C5
:100B640019F4A52FD1DD06C00E94A509EFEFEA9381
:100B7400AD85D4DEC6CFEF85E85FEF87ED85E8501D
:100B8400ED87D9C05D8520E0E0E0ED877EC0E32FEE
:100B9400AD85AE0FA93020F42D85E0E0ED8703C0CC
:100BA400E8E0E31B2E2F3A93A22F0E94B5084E2FA4
:100BB400E985E63011F50E948E091F931F5FEE85CB
:100BC400AF91AE17C8F40E946C09E081E423AE2F04
:100BD400E32F0E940F0A0E94AB09E32FA42F0E9467
:100BE4000F0AE095E1215E2B0E949209FA93EA93A1
:100BF400A52F0E940709E1CF2CC0E93011F450E081
:100C040003C0EA30A9F45FEF0E94A109AE2FE32FDD
:100C14000E94070A5E2F1F931F5FEE85AF91AE17E8
:100C240030F40E94A5094A93A0E078DEF4CF11C005
:100C34001F931F5FEE85AF91AE1758F40E94B6095B
:100C4400AE2FE32F0E94070AEA934A93AD8566DE2E
:100C5400EFCFED85E03009F477C0AD85A83028F4F6
:100C6400ED85E21B5E2FE0E003C0532FED85E850D5
:100C7400ED8710E0EF85E85FEF87E8E0E31B2E2FB8
:100C84000889EA85FB85EE83FF83E52FF0E0E059D0
:100C9400FD4F4491E985E63011F50E948E091F93BA
:100CA4001F5FEE85AF91AE17C8F40E946C09E08116
:100CB400E423AE2FE22F0E94070A0E94AB09E22F21
:100CC400A42F0E94070AE095E1215E2B0E9492095D
:100CD400FA93EA93A52F0E940709E1CF2CC0E930CB
:100CE40011F450E003C0EA30A9F45FEF0E94A109B7
:100CF400AE2FE22F0E940F0A5E2F1F931F5FEE8517
:100D0400AF91AE1730F40E94A5094A93A0E006DE25
:100D1400F4CF11C01F931F5FEE85AF91AE1758F447
:100D24000E94B609AE2FE22F0E940F0AEA934A935B
:100D3400AD85F4DDEFCFE885AA85BB85F0E0EA0F49
:100D4400FB1FEA87FB87B3CE0E944B0A6196089586
:100D54000E94C30924F0E0E0F0E00C94BE08A881EE
:100D6400B981A435E0E0BE0724F0E3E5F0E00C949B
:100D7400BE08E881F9810C94BE080E94C30924F0DE
:100D8400E0E0F0E00C94BE08A881B981D09724F08B
:100D9400EFE2F0E00C94BE08E881F9810C94BE08FF
:100DA400BA93AA9323970E94CA098F01002E012A9D
:100DB40019F4E0E0F0E05FC00E94D1090F820E94C4
:100DC400D1090E820E94D1090886EB85A885EA170D
:100DD40018F4E0E0F0E04FC0F8010F5F1F4F5491AA
:100DE400A885BB27EE27A50FBE1FEB85F0E0EA1709
:100DF400FB0718F0E0E0F0E03EC0EE81E695E695F2
:100E0400E6954E2FEE81E77009F04F5FEF81E030F9
:100E1400A1F0A985BA85EC93A885EB85EA1BF0E0DF
:100E2400DF01EF81F0E00E94170ADF01E42FF0E018
:100E34000E94170AE00FF11F1EC09801E52FF0E091
:100E44000E0F1F1FA885AF5FA887A150EB85AE17B3
:100E540060F4F9012F5F3F4FA491B0E0E42FF0E07C
:100E64000E94170A0E0F1F1FEDCFF901E491A98507
:100E7400BA85EC93F8010E944B0A2C960895E0E0A1
:100E8400E0934C05A0914D05BB270E94D609F0E0E4
:100E9400AE0FBF1FE0915105F0E0AE0FBF1F6DDF35
:100EA400E0934D050895AA9321970E94CA093097AB
:100EB40009F455C0AF81AA3009F44FC0EF81EA9319
:100EC400DE0117966DDFAF01309709F44AC0E09157
:100ED4005005AE81EA0F3E2FA0914C05BB27F0E0F0
:100EE400EA0FFB1F8F010535E0E01E0718F0032F02
:100EF4001127C5DFE0914C05EA93E0914D05EA9393
:100F0400E885EA930E94D609EA93E1E0EA935A93CA
:100F14004A93A7E03CDDE0914C05AE81EA0FEA93E9
:100F2400E0914D05EA93E0915005EA930E94D609B9
:100F34000E94DD09E0914C05EA93A0914D050E94C1
:100F4400D609EA0FEA933A93E09151050E94DD092C
:100F5400E4E5F0E0E017F10711F491DF02C000933B
:100F64004C050E944B0A28960895BA93AA931A93A3
:100F7400EC81EA93AC8109D00E94E70919F0A12F12
:100F840092DFFACF18810C94B308AA93A981BB27E6
:100F9400DFDEE0934C05A881BB27EFDEE0934D052F
:100FA4000C94BE08AA93E881E07111F0DB9A01C0A9
:100FB400DB98E881E07211F0DC9A01C0DC98E881EA
:100FC400E07411F0DD9A01C0DD98E881E07811F059
:100FD400DE9A01C0DE988DE08A95F1F7DA9A8DE009
:100FE4008A95F1F7DA988DE08A95F1F77CC0AA9397
:100FF400A881D8DFE881E295E883A881D3DF85E87A
:101004008A95F1F770C0AA93E881F0E0E457F84FAD
:10101400E081A981AE0FEBDFA980E881E09390071E
:101024000C94BE08A2E00E94EF09ACE0E0DFA1E06E
:101034000E94EF09E0E0E0939007AE2E0895AA9392
:10104400A881AA3021F0E0919107AE1660F0E0E0AB
:10105400EA93A0919007AF5FA0939007D4DFA88193
:10106400AA3009F440C0A394D89AA881C0DFD898C4
:101074003AC0BA93AA931A930E94E70919F0A12FD0
:10108400DEDFFACF18810C940509AA93D39AD49A77
:10109400D59AD69AD29AD09AD19ADA98D898D998D9
:1010A400E881E0939107E058E0938E07E881E054EB
:1010B400E0938F07A4E1B0E00E94FD090E94F509C6
:1010C4000E94F5090E94F509A0E26CDF88EC90E02B
:1010D4000197F1F7A8E28BDFA4E089DFA5E887DFB9
:1010E400A6E085DF9FDF21960895BA93AA93A9917C
:1010F400B991E991F99130962AF4E095F0953196F9
:101104006DE26D93E89480E197E20DD088EE93E070
:101114000AD084E6992707D08AE005D06E2F10D034
:1011240066276C9308956627E817F90720F06395FE
:10113400E81BF90BC9F7662311F416F008956894B7
:10114400605D6D930895BA93AA93B981A8811096AE
:1011540031F0FC81EB816A8161931197E9F7EB81AE
:10116400FC8125960895AA93E881F0E0E059FD4FAB
:10117400A491E9810E94070A22960895AA931A93DA
:10118400E981E73011F0EA3019F410914A0509C0F9
:10119400E93019F410914B0504C0E830A1F4109122
:1011A4005A05E0914B05E03049F0103019F0EFEFAB
:1011B400188129C0EA81E095188125C0103019F4FE
:1011C400E0E0188120C0EA8118811DC0BA93AA9377
:1011D400EA81E13021F4E881F981E49114C0E2303C
:1011E40029F4A881B9810E94230A0DC0E33041F497
:1011F400A881B981E0916305F0916405099503C064
:10120400A881B981EC9123960895AA93EB81E030EB
:1012140029F4E881A981BA81EC9314C0E23031F455
:10122400E881A981BA810E942F0A0CC0E33051F4ED
:10123400E981FA81FA93EA93AA81E0916505F09134
:101244006605099524960895A6E00A9FF001E959D8
:10125400FA4FDF01E32FF0E0EE0FFF1FAE0FBF1FC9
:101264000E941F0A0895E8E0F0E0E815F9050895E2
:10127400A9E8B5E0A80DB91DAC910895EFE0F0E040
:101284003F01A0EDB7E00E94FD09EAE0F0E03F0174
:1012940008950E94B7070E941408E0E0EA930895B5
:1012A400DA92CA92A9E7B5E00E947708E5E0EA93EA
:1012B400E9E1EA9308950E94B707E7E3EA93E9E1D5
:1012C400EA93A9E7B5E008950E943B08AC2DA05D20
:1012D4000C942108A2E9B5E0ED91FD913196FE93BD
:1012E400EE933197EC56FA4F0895E0936400E09141
:1012F40065000895EA0FFB1FEE83FF830895EC85D4
:10130400EA93EF81F8853196EF83F8873197FA9362
:10131400EA93A0E00C9407090A93A8890C9490031B
:10132400EC85EA93EF81F8853196EF83F88731975E
:10133400089566277727DF01CB010C94E8085A93B8
:10134400AA850C94C0080A930395E889EA935A93F2
:1013540008955E2FEC85EA93AF81B8858827992795
:101364000E94E8081E2E08950A930395E889EA93DB
:10137400EE85EA93E985FA853196E987FA8731970C
:10138400D8CFBA93AA93A881B9810E94400A08953C
:101394000E94440AE0914E05F0914F050895F8012A
:1013A4000F5F1F4F04900895E0914E05F0914F0593
:1013B4003196E4910895EA93E0E0EA93E0E0F0E006
:1013C400FA93EA93A9E00C94C904A981BA81ED9136
:1013D400A983BA831E2FE03008950E94F907A3E081
:1013E400B0E00C94FD09A0E30E94D40788EC90E0DF
:1013F4000197F1F70895109639F080ED97E0019781
:10140400F1F7A8951197C9F70895EE230E2EEA2F48
:1014140019F0EE0F0A94E9F70895EE230E2EEA2F41
:1014240019F0E6950A94E9F70895FA9FF02DEB9FD9
:10143400F00DEA9FE02DF10D0895ED91FC911197C7
:101444000895E199FECFFF93FFB7F894AEBBBFBBFD
:10145400E09AEDB3FFBFFF910895E19B02C0A89508
:10146400FCCF9FB7F894AEBBBFBBE09A8DB3E8172F
:1014740019F0EDBBE29AE19A9FBF089500240A1681
:101484000B0608955A934A933A932A931A930A930C
:1014940008955D814C813B812A81198108810895D9
:00000001FF
